{
  "_format": "hh-sol-artifact-1",
  "contractName": "MyContract",
  "sourceName": "contracts/getting_started_with_solidity/13_array/MyContract.sol",
  "abi": [
    {
      "inputs": [
        {
          "internalType": "uint256",
          "name": "index",
          "type": "uint256"
        }
      ],
      "name": "getItemInArray",
      "outputs": [
        {
          "internalType": "uint256",
          "name": "",
          "type": "uint256"
        }
      ],
      "stateMutability": "view",
      "type": "function"
    },
    {
      "inputs": [],
      "name": "getLength",
      "outputs": [
        {
          "internalType": "uint256",
          "name": "",
          "type": "uint256"
        }
      ],
      "stateMutability": "view",
      "type": "function"
    },
    {
      "inputs": [
        {
          "internalType": "uint256",
          "name": "",
          "type": "uint256"
        }
      ],
      "name": "myArray",
      "outputs": [
        {
          "internalType": "uint256",
          "name": "",
          "type": "uint256"
        }
      ],
      "stateMutability": "view",
      "type": "function"
    },
    {
      "inputs": [
        {
          "internalType": "uint256",
          "name": "",
          "type": "uint256"
        }
      ],
      "name": "myArray2",
      "outputs": [
        {
          "internalType": "uint256",
          "name": "",
          "type": "uint256"
        }
      ],
      "stateMutability": "view",
      "type": "function"
    },
    {
      "inputs": [
        {
          "internalType": "uint256",
          "name": "",
          "type": "uint256"
        }
      ],
      "name": "myFixedSizeArray",
      "outputs": [
        {
          "internalType": "uint256",
          "name": "",
          "type": "uint256"
        }
      ],
      "stateMutability": "view",
      "type": "function"
    },
    {
      "inputs": [
        {
          "internalType": "uint256",
          "name": "i",
          "type": "uint256"
        }
      ],
      "name": "pushIsToAdd",
      "outputs": [],
      "stateMutability": "nonpayable",
      "type": "function"
    },
    {
      "inputs": [
        {
          "internalType": "uint256",
          "name": "index",
          "type": "uint256"
        }
      ],
      "name": "remove",
      "outputs": [],
      "stateMutability": "nonpayable",
      "type": "function"
    },
    {
      "inputs": [
        {
          "internalType": "uint256",
          "name": "index",
          "type": "uint256"
        }
      ],
      "name": "removeAndCompact",
      "outputs": [],
      "stateMutability": "nonpayable",
      "type": "function"
    },
    {
      "inputs": [
        {
          "internalType": "uint256",
          "name": "locationInArray",
          "type": "uint256"
        },
        {
          "internalType": "uint256",
          "name": "valueToChange",
          "type": "uint256"
        }
      ],
      "name": "updateTheArray",
      "outputs": [],
      "stateMutability": "nonpayable",
      "type": "function"
    }
  ],
  "bytecode": "0x60806040526040518060800160405280600160ff168152602001600260ff168152602001600360ff168152602001600460ff168152506001906004610045929190610058565b5034801561005257600080fd5b506100c7565b828054828255906000526020600020908101928215610099579160200282015b82811115610098578251829060ff16905591602001919060010190610078565b5b5090506100a691906100aa565b5090565b5b808211156100c35760008160009055506001016100ab565b5090565b61053a806100d66000396000f3fe608060405234801561001057600080fd5b50600436106100935760003560e01c80638c11818a116100665780638c11818a1461011c578063b0a844291461014c578063be1c766b1461017c578063cc3e57d91461019a578063dff5bdf0146101ca57610093565b80634620b023146100985780634cc82215146100c857806352f2a6f8146100e45780637bbc7d0414610100575b600080fd5b6100b260048036038101906100ad91906103ac565b6101e6565b6040516100bf91906103e8565b60405180910390f35b6100e260048036038101906100dd91906103ac565b610201565b005b6100fe60048036038101906100f99190610403565b610226565b005b61011a600480360381019061011591906103ac565b61024d565b005b610136600480360381019061013191906103ac565b610279565b60405161014391906103e8565b60405180910390f35b610166600480360381019061016191906103ac565b61029d565b60405161017391906103e8565b60405180910390f35b6101846102c4565b60405161019191906103e8565b60405180910390f35b6101b460048036038101906101af91906103ac565b6102d0565b6040516101c191906103e8565b60405180910390f35b6101e460048036038101906101df91906103ac565b6102f4565b005b600281600a81106101f657600080fd5b016000915090505481565b6000818154811061021557610214610443565b5b906000526020600020016000905550565b806000838154811061023b5761023a610443565b5b90600052602060002001819055505050565b600081908060018154018082558091505060019003906000526020600020016000909190919091505550565b6001818154811061028957600080fd5b906000526020600020016000915090505481565b60008082815481106102b2576102b1610443565b5b90600052602060002001549050919050565b60008080549050905090565b600081815481106102e057600080fd5b906000526020600020016000915090505481565b6000600160008054905061030891906104a1565b8154811061031957610318610443565b5b90600052602060002001546000828154811061033857610337610443565b5b90600052602060002001819055506000805480610358576103576104d5565b5b6001900381819060005260206000200160009055905550565b600080fd5b6000819050919050565b61038981610376565b811461039457600080fd5b50565b6000813590506103a681610380565b92915050565b6000602082840312156103c2576103c1610371565b5b60006103d084828501610397565b91505092915050565b6103e281610376565b82525050565b60006020820190506103fd60008301846103d9565b92915050565b6000806040838503121561041a57610419610371565b5b600061042885828601610397565b925050602061043985828601610397565b9150509250929050565b7f4e487b7100000000000000000000000000000000000000000000000000000000600052603260045260246000fd5b7f4e487b7100000000000000000000000000000000000000000000000000000000600052601160045260246000fd5b60006104ac82610376565b91506104b783610376565b9250828210156104ca576104c9610472565b5b828203905092915050565b7f4e487b7100000000000000000000000000000000000000000000000000000000600052603160045260246000fdfea2646970667358221220bbc7aa30b136c8859c85d2bddfa915389eb28e0384aa67bf5641d48cce9ded1a64736f6c63430008090033",
  "linkReferences": {},
  "deployedLinkReferences": {}
}