{
  "_format": "hh-sol-artifact-1",
  "contractName": "MyContract",
  "sourceName": "contracts/getting_started_with_solidity/18_imports/MyContract.sol",
  "abi": [
    {
      "inputs": [
        {
          "internalType": "uint256",
          "name": "a",
          "type": "uint256"
        },
        {
          "internalType": "uint256",
          "name": "b",
          "type": "uint256"
        }
      ],
      "name": "callOtherContract",
      "outputs": [
        {
          "internalType": "uint256",
          "name": "",
          "type": "uint256"
        }
      ],
      "stateMutability": "view",
      "type": "function"
    },
    {
      "inputs": [],
      "name": "otherContract",
      "outputs": [
        {
          "internalType": "contract OtherContract",
          "name": "",
          "type": "address"
        }
      ],
      "stateMutability": "view",
      "type": "function"
    }
  ],
  "bytecode": "0x60806040526040516100109061007e565b604051809103906000f08015801561002c573d6000803e3d6000fd5b506000806101000a81548173ffffffffffffffffffffffffffffffffffffffff021916908373ffffffffffffffffffffffffffffffffffffffff16021790555034801561007857600080fd5b5061008b565b6101f6806103dd83390190565b6103438061009a6000396000f3fe608060405234801561001057600080fd5b50600436106100365760003560e01c8063a507e8ca1461003b578063e98d36e11461006b575b600080fd5b6100556004803603810190610050919061019e565b610089565b60405161006291906101ed565b60405180910390f35b61007361013f565b6040516100809190610287565b60405180910390f35b60008060009054906101000a900473ffffffffffffffffffffffffffffffffffffffff1673ffffffffffffffffffffffffffffffffffffffff1663cad0899b84846040518363ffffffff1660e01b81526004016100e79291906102a2565b60206040518083038186803b1580156100ff57600080fd5b505afa158015610113573d6000803e3d6000fd5b505050506040513d601f19601f8201168201806040525081019061013791906102e0565b905092915050565b60008054906101000a900473ffffffffffffffffffffffffffffffffffffffff1681565b600080fd5b6000819050919050565b61017b81610168565b811461018657600080fd5b50565b60008135905061019881610172565b92915050565b600080604083850312156101b5576101b4610163565b5b60006101c385828601610189565b92505060206101d485828601610189565b9150509250929050565b6101e781610168565b82525050565b600060208201905061020260008301846101de565b92915050565b600073ffffffffffffffffffffffffffffffffffffffff82169050919050565b6000819050919050565b600061024d61024861024384610208565b610228565b610208565b9050919050565b600061025f82610232565b9050919050565b600061027182610254565b9050919050565b61028181610266565b82525050565b600060208201905061029c6000830184610278565b92915050565b60006040820190506102b760008301856101de565b6102c460208301846101de565b9392505050565b6000815190506102da81610172565b92915050565b6000602082840312156102f6576102f5610163565b5b6000610304848285016102cb565b9150509291505056fea2646970667358221220da94dc72d87ef7efda7c6e7dea265a4a4d10f9632c0d03056e76348121dfb8e064736f6c63430008090033608060405234801561001057600080fd5b506101d6806100206000396000f3fe608060405234801561001057600080fd5b506004361061002b5760003560e01c8063cad0899b14610030575b600080fd5b61004a600480360381019061004591906100b1565b610060565b6040516100579190610100565b60405180910390f35b6000818361006e919061014a565b905092915050565b600080fd5b6000819050919050565b61008e8161007b565b811461009957600080fd5b50565b6000813590506100ab81610085565b92915050565b600080604083850312156100c8576100c7610076565b5b60006100d68582860161009c565b92505060206100e78582860161009c565b9150509250929050565b6100fa8161007b565b82525050565b600060208201905061011560008301846100f1565b92915050565b7f4e487b7100000000000000000000000000000000000000000000000000000000600052601160045260246000fd5b60006101558261007b565b91506101608361007b565b9250827fffffffffffffffffffffffffffffffffffffffffffffffffffffffffffffffff038211156101955761019461011b565b5b82820190509291505056fea264697066735822122013a5658457f2215bee134e63092078431b309ce76a25ced3f736b69cbf2ca63064736f6c63430008090033",
  "linkReferences": {},
  "deployedLinkReferences": {}
}