{
  "_format": "hh-sol-artifact-1",
  "contractName": "MyContract",
  "sourceName": "contracts/getting_started_with_solidity/05_visibility/MyContract.sol",
  "abi": [
    {
      "inputs": [],
      "name": "externalFunction",
      "outputs": [
        {
          "internalType": "string",
          "name": "",
          "type": "string"
        }
      ],
      "stateMutability": "pure",
      "type": "function"
    },
    {
      "inputs": [],
      "name": "getAge",
      "outputs": [
        {
          "internalType": "uint256",
          "name": "",
          "type": "uint256"
        }
      ],
      "stateMutability": "view",
      "type": "function"
    },
    {
      "inputs": [],
      "name": "getName",
      "outputs": [
        {
          "internalType": "string",
          "name": "",
          "type": "string"
        }
      ],
      "stateMutability": "view",
      "type": "function"
    },
    {
      "inputs": [],
      "name": "id",
      "outputs": [
        {
          "internalType": "string",
          "name": "",
          "type": "string"
        }
      ],
      "stateMutability": "view",
      "type": "function"
    },
    {
      "inputs": [
        {
          "internalType": "string",
          "name": "newName",
          "type": "string"
        }
      ],
      "name": "setName",
      "outputs": [],
      "stateMutability": "nonpayable",
      "type": "function"
    }
  ],
  "bytecode": "0x608060405260236001556040518060400160405280600381526020017f313233000000000000000000000000000000000000000000000000000000000081525060029080519060200190610054929190610067565b5034801561006157600080fd5b5061016b565b82805461007390610139565b90600052602060002090601f01602090048101928261009557600085556100dc565b82601f106100ae57805160ff19168380011785556100dc565b828001600101855582156100dc579182015b828111156100db5782518255916020019190600101906100c0565b5b5090506100e991906100ed565b5090565b5b808211156101065760008160009055506001016100ee565b5090565b7f4e487b7100000000000000000000000000000000000000000000000000000000600052602260045260246000fd5b6000600282049050600182168061015157607f821691505b602082108114156101655761016461010a565b5b50919050565b61063b8061017a6000396000f3fe608060405234801561001057600080fd5b50600436106100575760003560e01c806317d7de7c1461005c5780633a32b5491461007a578063967e6e6514610098578063af640d0f146100b6578063c47f0027146100d4575b600080fd5b6100646100f0565b60405161007191906103bc565b60405180910390f35b610082610182565b60405161008f91906103bc565b60405180910390f35b6100a06101bf565b6040516100ad91906103f7565b60405180910390f35b6100be6101ce565b6040516100cb91906103bc565b60405180910390f35b6100ee60048036038101906100e9919061055b565b61025c565b005b6060600080546100ff906105d3565b80601f016020809104026020016040519081016040528092919081815260200182805461012b906105d3565b80156101785780601f1061014d57610100808354040283529160200191610178565b820191906000526020600020905b81548152906001019060200180831161015b57829003601f168201915b5050505050905090565b60606040518060400160405280601181526020017f65787465726e616c2d66756e6374696f6e000000000000000000000000000000815250905090565b60006101c9610276565b905090565b600280546101db906105d3565b80601f0160208091040260200160405190810160405280929190818152602001828054610207906105d3565b80156102545780601f1061022957610100808354040283529160200191610254565b820191906000526020600020905b81548152906001019060200180831161023757829003601f168201915b505050505081565b8060009080519060200190610272929190610280565b5050565b6000600154905090565b82805461028c906105d3565b90600052602060002090601f0160209004810192826102ae57600085556102f5565b82601f106102c757805160ff19168380011785556102f5565b828001600101855582156102f5579182015b828111156102f45782518255916020019190600101906102d9565b5b5090506103029190610306565b5090565b5b8082111561031f576000816000905550600101610307565b5090565b600081519050919050565b600082825260208201905092915050565b60005b8381101561035d578082015181840152602081019050610342565b8381111561036c576000848401525b50505050565b6000601f19601f8301169050919050565b600061038e82610323565b610398818561032e565b93506103a881856020860161033f565b6103b181610372565b840191505092915050565b600060208201905081810360008301526103d68184610383565b905092915050565b6000819050919050565b6103f1816103de565b82525050565b600060208201905061040c60008301846103e8565b92915050565b6000604051905090565b600080fd5b600080fd5b600080fd5b600080fd5b7f4e487b7100000000000000000000000000000000000000000000000000000000600052604160045260246000fd5b61046882610372565b810181811067ffffffffffffffff8211171561048757610486610430565b5b80604052505050565b600061049a610412565b90506104a6828261045f565b919050565b600067ffffffffffffffff8211156104c6576104c5610430565b5b6104cf82610372565b9050602081019050919050565b82818337600083830152505050565b60006104fe6104f9846104ab565b610490565b90508281526020810184848401111561051a5761051961042b565b5b6105258482856104dc565b509392505050565b600082601f83011261054257610541610426565b5b81356105528482602086016104eb565b91505092915050565b6000602082840312156105715761057061041c565b5b600082013567ffffffffffffffff81111561058f5761058e610421565b5b61059b8482850161052d565b91505092915050565b7f4e487b7100000000000000000000000000000000000000000000000000000000600052602260045260246000fd5b600060028204905060018216806105eb57607f821691505b602082108114156105ff576105fe6105a4565b5b5091905056fea26469706673582212200b868adeb7429c6cd4f0e57dbc39a5ed77b4cf87a152aa2787e9a8304d423e1b64736f6c63430008090033",
  "linkReferences": {},
  "deployedLinkReferences": {}
}