{
  "_format": "hh-sol-artifact-1",
  "contractName": "FlashMinterMock",
  "sourceName": "contracts/sample_apps/11_flash_loan/mocks/FlashMinterMock.sol",
  "abi": [
    {
      "inputs": [
        {
          "internalType": "string",
          "name": "name",
          "type": "string"
        },
        {
          "internalType": "string",
          "name": "symbol",
          "type": "string"
        },
        {
          "internalType": "uint256",
          "name": "fee",
          "type": "uint256"
        }
      ],
      "stateMutability": "nonpayable",
      "type": "constructor"
    },
    {
      "anonymous": false,
      "inputs": [
        {
          "indexed": true,
          "internalType": "address",
          "name": "owner",
          "type": "address"
        },
        {
          "indexed": true,
          "internalType": "address",
          "name": "spender",
          "type": "address"
        },
        {
          "indexed": false,
          "internalType": "uint256",
          "name": "value",
          "type": "uint256"
        }
      ],
      "name": "Approval",
      "type": "event"
    },
    {
      "anonymous": false,
      "inputs": [
        {
          "indexed": true,
          "internalType": "address",
          "name": "from",
          "type": "address"
        },
        {
          "indexed": true,
          "internalType": "address",
          "name": "to",
          "type": "address"
        },
        {
          "indexed": false,
          "internalType": "uint256",
          "name": "value",
          "type": "uint256"
        }
      ],
      "name": "Transfer",
      "type": "event"
    },
    {
      "inputs": [],
      "name": "CALLBACK_SUCCESS",
      "outputs": [
        {
          "internalType": "bytes32",
          "name": "",
          "type": "bytes32"
        }
      ],
      "stateMutability": "view",
      "type": "function"
    },
    {
      "inputs": [
        {
          "internalType": "address",
          "name": "owner",
          "type": "address"
        },
        {
          "internalType": "address",
          "name": "spender",
          "type": "address"
        }
      ],
      "name": "allowance",
      "outputs": [
        {
          "internalType": "uint256",
          "name": "",
          "type": "uint256"
        }
      ],
      "stateMutability": "view",
      "type": "function"
    },
    {
      "inputs": [
        {
          "internalType": "address",
          "name": "spender",
          "type": "address"
        },
        {
          "internalType": "uint256",
          "name": "amount",
          "type": "uint256"
        }
      ],
      "name": "approve",
      "outputs": [
        {
          "internalType": "bool",
          "name": "",
          "type": "bool"
        }
      ],
      "stateMutability": "nonpayable",
      "type": "function"
    },
    {
      "inputs": [
        {
          "internalType": "address",
          "name": "account",
          "type": "address"
        }
      ],
      "name": "balanceOf",
      "outputs": [
        {
          "internalType": "uint256",
          "name": "",
          "type": "uint256"
        }
      ],
      "stateMutability": "view",
      "type": "function"
    },
    {
      "inputs": [],
      "name": "decimals",
      "outputs": [
        {
          "internalType": "uint8",
          "name": "",
          "type": "uint8"
        }
      ],
      "stateMutability": "view",
      "type": "function"
    },
    {
      "inputs": [
        {
          "internalType": "address",
          "name": "spender",
          "type": "address"
        },
        {
          "internalType": "uint256",
          "name": "subtractedValue",
          "type": "uint256"
        }
      ],
      "name": "decreaseAllowance",
      "outputs": [
        {
          "internalType": "bool",
          "name": "",
          "type": "bool"
        }
      ],
      "stateMutability": "nonpayable",
      "type": "function"
    },
    {
      "inputs": [],
      "name": "fee",
      "outputs": [
        {
          "internalType": "uint256",
          "name": "",
          "type": "uint256"
        }
      ],
      "stateMutability": "view",
      "type": "function"
    },
    {
      "inputs": [
        {
          "internalType": "address",
          "name": "token",
          "type": "address"
        },
        {
          "internalType": "uint256",
          "name": "amount",
          "type": "uint256"
        }
      ],
      "name": "flashFee",
      "outputs": [
        {
          "internalType": "uint256",
          "name": "",
          "type": "uint256"
        }
      ],
      "stateMutability": "view",
      "type": "function"
    },
    {
      "inputs": [
        {
          "internalType": "contract IERC3156FlashBorrower",
          "name": "receiver",
          "type": "address"
        },
        {
          "internalType": "address",
          "name": "token",
          "type": "address"
        },
        {
          "internalType": "uint256",
          "name": "amount",
          "type": "uint256"
        },
        {
          "internalType": "bytes",
          "name": "data",
          "type": "bytes"
        }
      ],
      "name": "flashLoan",
      "outputs": [
        {
          "internalType": "bool",
          "name": "",
          "type": "bool"
        }
      ],
      "stateMutability": "nonpayable",
      "type": "function"
    },
    {
      "inputs": [
        {
          "internalType": "address",
          "name": "spender",
          "type": "address"
        },
        {
          "internalType": "uint256",
          "name": "addedValue",
          "type": "uint256"
        }
      ],
      "name": "increaseAllowance",
      "outputs": [
        {
          "internalType": "bool",
          "name": "",
          "type": "bool"
        }
      ],
      "stateMutability": "nonpayable",
      "type": "function"
    },
    {
      "inputs": [
        {
          "internalType": "address",
          "name": "token",
          "type": "address"
        }
      ],
      "name": "maxFlashFloan",
      "outputs": [
        {
          "internalType": "uint256",
          "name": "",
          "type": "uint256"
        }
      ],
      "stateMutability": "view",
      "type": "function"
    },
    {
      "inputs": [
        {
          "internalType": "address",
          "name": "receiver",
          "type": "address"
        },
        {
          "internalType": "uint256",
          "name": "amount",
          "type": "uint256"
        }
      ],
      "name": "mint",
      "outputs": [],
      "stateMutability": "nonpayable",
      "type": "function"
    },
    {
      "inputs": [],
      "name": "name",
      "outputs": [
        {
          "internalType": "string",
          "name": "",
          "type": "string"
        }
      ],
      "stateMutability": "view",
      "type": "function"
    },
    {
      "inputs": [],
      "name": "symbol",
      "outputs": [
        {
          "internalType": "string",
          "name": "",
          "type": "string"
        }
      ],
      "stateMutability": "view",
      "type": "function"
    },
    {
      "inputs": [],
      "name": "totalSupply",
      "outputs": [
        {
          "internalType": "uint256",
          "name": "",
          "type": "uint256"
        }
      ],
      "stateMutability": "view",
      "type": "function"
    },
    {
      "inputs": [
        {
          "internalType": "address",
          "name": "to",
          "type": "address"
        },
        {
          "internalType": "uint256",
          "name": "amount",
          "type": "uint256"
        }
      ],
      "name": "transfer",
      "outputs": [
        {
          "internalType": "bool",
          "name": "",
          "type": "bool"
        }
      ],
      "stateMutability": "nonpayable",
      "type": "function"
    },
    {
      "inputs": [
        {
          "internalType": "address",
          "name": "from",
          "type": "address"
        },
        {
          "internalType": "address",
          "name": "to",
          "type": "address"
        },
        {
          "internalType": "uint256",
          "name": "amount",
          "type": "uint256"
        }
      ],
      "name": "transferFrom",
      "outputs": [
        {
          "internalType": "bool",
          "name": "",
          "type": "bool"
        }
      ],
      "stateMutability": "nonpayable",
      "type": "function"
    }
  ],
  "bytecode": "0x60806040523480156200001157600080fd5b50604051620024693803806200246983398181016040528101906200003791906200030b565b828282828281600390805190602001906200005492919062000083565b5080600490805190602001906200006d92919062000083565b505050806005819055505050505050506200040a565b8280546200009190620003d4565b90600052602060002090601f016020900481019282620000b5576000855562000101565b82601f10620000d057805160ff191683800117855562000101565b8280016001018555821562000101579182015b8281111562000100578251825591602001919060010190620000e3565b5b50905062000110919062000114565b5090565b5b808211156200012f57600081600090555060010162000115565b5090565b6000604051905090565b600080fd5b600080fd5b600080fd5b600080fd5b6000601f19601f8301169050919050565b7f4e487b7100000000000000000000000000000000000000000000000000000000600052604160045260246000fd5b6200019c8262000151565b810181811067ffffffffffffffff82111715620001be57620001bd62000162565b5b80604052505050565b6000620001d362000133565b9050620001e1828262000191565b919050565b600067ffffffffffffffff82111562000204576200020362000162565b5b6200020f8262000151565b9050602081019050919050565b60005b838110156200023c5780820151818401526020810190506200021f565b838111156200024c576000848401525b50505050565b6000620002696200026384620001e6565b620001c7565b9050828152602081018484840111156200028857620002876200014c565b5b620002958482856200021c565b509392505050565b600082601f830112620002b557620002b462000147565b5b8151620002c784826020860162000252565b91505092915050565b6000819050919050565b620002e581620002d0565b8114620002f157600080fd5b50565b6000815190506200030581620002da565b92915050565b6000806000606084860312156200032757620003266200013d565b5b600084015167ffffffffffffffff81111562000348576200034762000142565b5b62000356868287016200029d565b935050602084015167ffffffffffffffff8111156200037a576200037962000142565b5b62000388868287016200029d565b92505060406200039b86828701620002f4565b9150509250925092565b7f4e487b7100000000000000000000000000000000000000000000000000000000600052602260045260246000fd5b60006002820490506001821680620003ed57607f821691505b60208210811415620004045762000403620003a5565b5b50919050565b61204f806200041a6000396000f3fe608060405234801561001057600080fd5b506004361061010b5760003560e01c806370a08231116100a2578063a457c2d711610071578063a457c2d7146102e2578063a9059cbb14610312578063d9d98ce414610342578063dd62ed3e14610372578063ddca3f43146103a25761010b565b806370a08231146102465780638237e5381461027657806395d89b41146102945780639e3fa57f146102b25761010b565b8063313ce567116100de578063313ce567146101ac57806339509351146101ca57806340c10f19146101fa5780635cffe9de146102165761010b565b806306fdde0314610110578063095ea7b31461012e57806318160ddd1461015e57806323b872dd1461017c575b600080fd5b6101186103c0565b6040516101259190611318565b60405180910390f35b610148600480360381019061014391906113d8565b610452565b6040516101559190611433565b60405180910390f35b610166610475565b604051610173919061145d565b60405180910390f35b61019660048036038101906101919190611478565b61047f565b6040516101a39190611433565b60405180910390f35b6101b46104ae565b6040516101c191906114e7565b60405180910390f35b6101e460048036038101906101df91906113d8565b6104b7565b6040516101f19190611433565b60405180910390f35b610214600480360381019061020f91906113d8565b6104ee565b005b610230600480360381019061022b91906115a5565b6104fc565b60405161023d9190611433565b60405180910390f35b610260600480360381019061025b919061162d565b61071b565b60405161026d919061145d565b60405180910390f35b61027e610763565b60405161028b9190611673565b60405180910390f35b61029c610787565b6040516102a99190611318565b60405180910390f35b6102cc60048036038101906102c7919061162d565b610819565b6040516102d9919061145d565b60405180910390f35b6102fc60048036038101906102f791906113d8565b610890565b6040516103099190611433565b60405180910390f35b61032c600480360381019061032791906113d8565b610907565b6040516103399190611433565b60405180910390f35b61035c600480360381019061035791906113d8565b61092a565b604051610369919061145d565b60405180910390f35b61038c6004803603810190610387919061168e565b6109ac565b604051610399919061145d565b60405180910390f35b6103aa610a33565b6040516103b7919061145d565b60405180910390f35b6060600380546103cf906116fd565b80601f01602080910402602001604051908101604052809291908181526020018280546103fb906116fd565b80156104485780601f1061041d57610100808354040283529160200191610448565b820191906000526020600020905b81548152906001019060200180831161042b57829003601f168201915b5050505050905090565b60008061045d610a39565b905061046a818585610a41565b600191505092915050565b6000600254905090565b60008061048a610a39565b9050610497858285610c0c565b6104a2858585610c98565b60019150509392505050565b60006012905090565b6000806104c2610a39565b90506104e38185856104d485896109ac565b6104de919061175e565b610a41565b600191505092915050565b6104f88282610f19565b5050565b60003073ffffffffffffffffffffffffffffffffffffffff168573ffffffffffffffffffffffffffffffffffffffff161461056c576040517f08c379a000000000000000000000000000000000000000000000000000000000815260040161056390611826565b60405180910390fd5b60006105788686611079565b90506105848786610f19565b7f439148f0bbc682ca079e46d6e2c2f0c1e3b820f1a291b069d8882abf8cf18dd98773ffffffffffffffffffffffffffffffffffffffff166323e30c8b338989868a8a6040518763ffffffff1660e01b81526004016105e8969594939291906118a2565b602060405180830381600087803b15801561060257600080fd5b505af1158015610616573d6000803e3d6000fd5b505050506040513d601f19601f8201168201806040525081019061063a919061192a565b1461067a576040517f08c379a0000000000000000000000000000000000000000000000000000000008152600401610671906119a3565b60405180910390fd5b600061068688306109ac565b90508186610694919061175e565b8110156106d6576040517f08c379a00000000000000000000000000000000000000000000000000000000081526004016106cd906119a3565b60405180910390fd5b6106f7883084896106e7919061175e565b846106f291906119c3565b610a41565b61070c888388610707919061175e565b61109e565b60019250505095945050505050565b60008060008373ffffffffffffffffffffffffffffffffffffffff1673ffffffffffffffffffffffffffffffffffffffff168152602001908152602001600020549050919050565b7f439148f0bbc682ca079e46d6e2c2f0c1e3b820f1a291b069d8882abf8cf18dd981565b606060048054610796906116fd565b80601f01602080910402602001604051908101604052809291908181526020018280546107c2906116fd565b801561080f5780601f106107e45761010080835404028352916020019161080f565b820191906000526020600020905b8154815290600101906020018083116107f257829003601f168201915b5050505050905090565b60003073ffffffffffffffffffffffffffffffffffffffff168273ffffffffffffffffffffffffffffffffffffffff1614610855576000610889565b61085d610475565b7fffffffffffffffffffffffffffffffffffffffffffffffffffffffffffffffff61088891906119c3565b5b9050919050565b60008061089b610a39565b905060006108a982866109ac565b9050838110156108ee576040517f08c379a00000000000000000000000000000000000000000000000000000000081526004016108e590611a69565b60405180910390fd5b6108fb8286868403610a41565b60019250505092915050565b600080610912610a39565b905061091f818585610c98565b600191505092915050565b60003073ffffffffffffffffffffffffffffffffffffffff168373ffffffffffffffffffffffffffffffffffffffff161461099a576040517f08c379a000000000000000000000000000000000000000000000000000000000815260040161099190611826565b60405180910390fd5b6109a48383611079565b905092915050565b6000600160008473ffffffffffffffffffffffffffffffffffffffff1673ffffffffffffffffffffffffffffffffffffffff16815260200190815260200160002060008373ffffffffffffffffffffffffffffffffffffffff1673ffffffffffffffffffffffffffffffffffffffff16815260200190815260200160002054905092915050565b60055481565b600033905090565b600073ffffffffffffffffffffffffffffffffffffffff168373ffffffffffffffffffffffffffffffffffffffff161415610ab1576040517f08c379a0000000000000000000000000000000000000000000000000000000008152600401610aa890611afb565b60405180910390fd5b600073ffffffffffffffffffffffffffffffffffffffff168273ffffffffffffffffffffffffffffffffffffffff161415610b21576040517f08c379a0000000000000000000000000000000000000000000000000000000008152600401610b1890611b8d565b60405180910390fd5b80600160008573ffffffffffffffffffffffffffffffffffffffff1673ffffffffffffffffffffffffffffffffffffffff16815260200190815260200160002060008473ffffffffffffffffffffffffffffffffffffffff1673ffffffffffffffffffffffffffffffffffffffff168152602001908152602001600020819055508173ffffffffffffffffffffffffffffffffffffffff168373ffffffffffffffffffffffffffffffffffffffff167f8c5be1e5ebec7d5bd14f71427d1e84f3dd0314c0f7b2291e5b200ac8c7c3b92583604051610bff919061145d565b60405180910390a3505050565b6000610c1884846109ac565b90507fffffffffffffffffffffffffffffffffffffffffffffffffffffffffffffffff8114610c925781811015610c84576040517f08c379a0000000000000000000000000000000000000000000000000000000008152600401610c7b90611bf9565b60405180910390fd5b610c918484848403610a41565b5b50505050565b600073ffffffffffffffffffffffffffffffffffffffff168373ffffffffffffffffffffffffffffffffffffffff161415610d08576040517f08c379a0000000000000000000000000000000000000000000000000000000008152600401610cff90611c8b565b60405180910390fd5b600073ffffffffffffffffffffffffffffffffffffffff168273ffffffffffffffffffffffffffffffffffffffff161415610d78576040517f08c379a0000000000000000000000000000000000000000000000000000000008152600401610d6f90611d1d565b60405180910390fd5b610d83838383611275565b60008060008573ffffffffffffffffffffffffffffffffffffffff1673ffffffffffffffffffffffffffffffffffffffff16815260200190815260200160002054905081811015610e09576040517f08c379a0000000000000000000000000000000000000000000000000000000008152600401610e0090611daf565b60405180910390fd5b8181036000808673ffffffffffffffffffffffffffffffffffffffff1673ffffffffffffffffffffffffffffffffffffffff16815260200190815260200160002081905550816000808573ffffffffffffffffffffffffffffffffffffffff1673ffffffffffffffffffffffffffffffffffffffff1681526020019081526020016000206000828254610e9c919061175e565b925050819055508273ffffffffffffffffffffffffffffffffffffffff168473ffffffffffffffffffffffffffffffffffffffff167fddf252ad1be2c89b69c2b068fc378daa952ba7f163c4a11628f55a4df523b3ef84604051610f00919061145d565b60405180910390a3610f1384848461127a565b50505050565b600073ffffffffffffffffffffffffffffffffffffffff168273ffffffffffffffffffffffffffffffffffffffff161415610f89576040517f08c379a0000000000000000000000000000000000000000000000000000000008152600401610f8090611e1b565b60405180910390fd5b610f9560008383611275565b8060026000828254610fa7919061175e565b92505081905550806000808473ffffffffffffffffffffffffffffffffffffffff1673ffffffffffffffffffffffffffffffffffffffff1681526020019081526020016000206000828254610ffc919061175e565b925050819055508173ffffffffffffffffffffffffffffffffffffffff16600073ffffffffffffffffffffffffffffffffffffffff167fddf252ad1be2c89b69c2b068fc378daa952ba7f163c4a11628f55a4df523b3ef83604051611061919061145d565b60405180910390a36110756000838361127a565b5050565b60006127106005548361108c9190611e3b565b6110969190611ec4565b905092915050565b600073ffffffffffffffffffffffffffffffffffffffff168273ffffffffffffffffffffffffffffffffffffffff16141561110e576040517f08c379a000000000000000000000000000000000000000000000000000000000815260040161110590611f67565b60405180910390fd5b61111a82600083611275565b60008060008473ffffffffffffffffffffffffffffffffffffffff1673ffffffffffffffffffffffffffffffffffffffff168152602001908152602001600020549050818110156111a0576040517f08c379a000000000000000000000000000000000000000000000000000000000815260040161119790611ff9565b60405180910390fd5b8181036000808573ffffffffffffffffffffffffffffffffffffffff1673ffffffffffffffffffffffffffffffffffffffff1681526020019081526020016000208190555081600260008282546111f791906119c3565b92505081905550600073ffffffffffffffffffffffffffffffffffffffff168373ffffffffffffffffffffffffffffffffffffffff167fddf252ad1be2c89b69c2b068fc378daa952ba7f163c4a11628f55a4df523b3ef8460405161125c919061145d565b60405180910390a36112708360008461127a565b505050565b505050565b505050565b600081519050919050565b600082825260208201905092915050565b60005b838110156112b957808201518184015260208101905061129e565b838111156112c8576000848401525b50505050565b6000601f19601f8301169050919050565b60006112ea8261127f565b6112f4818561128a565b935061130481856020860161129b565b61130d816112ce565b840191505092915050565b6000602082019050818103600083015261133281846112df565b905092915050565b600080fd5b600080fd5b600073ffffffffffffffffffffffffffffffffffffffff82169050919050565b600061136f82611344565b9050919050565b61137f81611364565b811461138a57600080fd5b50565b60008135905061139c81611376565b92915050565b6000819050919050565b6113b5816113a2565b81146113c057600080fd5b50565b6000813590506113d2816113ac565b92915050565b600080604083850312156113ef576113ee61133a565b5b60006113fd8582860161138d565b925050602061140e858286016113c3565b9150509250929050565b60008115159050919050565b61142d81611418565b82525050565b60006020820190506114486000830184611424565b92915050565b611457816113a2565b82525050565b6000602082019050611472600083018461144e565b92915050565b6000806000606084860312156114915761149061133a565b5b600061149f8682870161138d565b93505060206114b08682870161138d565b92505060406114c1868287016113c3565b9150509250925092565b600060ff82169050919050565b6114e1816114cb565b82525050565b60006020820190506114fc60008301846114d8565b92915050565b600061150d82611364565b9050919050565b61151d81611502565b811461152857600080fd5b50565b60008135905061153a81611514565b92915050565b600080fd5b600080fd5b600080fd5b60008083601f84011261156557611564611540565b5b8235905067ffffffffffffffff81111561158257611581611545565b5b60208301915083600182028301111561159e5761159d61154a565b5b9250929050565b6000806000806000608086880312156115c1576115c061133a565b5b60006115cf8882890161152b565b95505060206115e08882890161138d565b94505060406115f1888289016113c3565b935050606086013567ffffffffffffffff8111156116125761161161133f565b5b61161e8882890161154f565b92509250509295509295909350565b6000602082840312156116435761164261133a565b5b60006116518482850161138d565b91505092915050565b6000819050919050565b61166d8161165a565b82525050565b60006020820190506116886000830184611664565b92915050565b600080604083850312156116a5576116a461133a565b5b60006116b38582860161138d565b92505060206116c48582860161138d565b9150509250929050565b7f4e487b7100000000000000000000000000000000000000000000000000000000600052602260045260246000fd5b6000600282049050600182168061171557607f821691505b60208210811415611729576117286116ce565b5b50919050565b7f4e487b7100000000000000000000000000000000000000000000000000000000600052601160045260246000fd5b6000611769826113a2565b9150611774836113a2565b9250827fffffffffffffffffffffffffffffffffffffffffffffffffffffffffffffffff038211156117a9576117a861172f565b5b828201905092915050565b7f466c6173684d696e7465723a20556e737570706f727465642063757272656e6360008201527f7900000000000000000000000000000000000000000000000000000000000000602082015250565b600061181060218361128a565b915061181b826117b4565b604082019050919050565b6000602082019050818103600083015261183f81611803565b9050919050565b61184f81611364565b82525050565b600082825260208201905092915050565b82818337600083830152505050565b60006118818385611855565b935061188e838584611866565b611897836112ce565b840190509392505050565b600060a0820190506118b76000830189611846565b6118c46020830188611846565b6118d1604083018761144e565b6118de606083018661144e565b81810360808301526118f1818486611875565b9050979650505050505050565b6119078161165a565b811461191257600080fd5b50565b600081519050611924816118fe565b92915050565b6000602082840312156119405761193f61133a565b5b600061194e84828501611915565b91505092915050565b7f466c6173684d696e7465723a205265706179206e6f7420617070726f76656400600082015250565b600061198d601f8361128a565b915061199882611957565b602082019050919050565b600060208201905081810360008301526119bc81611980565b9050919050565b60006119ce826113a2565b91506119d9836113a2565b9250828210156119ec576119eb61172f565b5b828203905092915050565b7f45524332303a2064656372656173656420616c6c6f77616e63652062656c6f7760008201527f207a65726f000000000000000000000000000000000000000000000000000000602082015250565b6000611a5360258361128a565b9150611a5e826119f7565b604082019050919050565b60006020820190508181036000830152611a8281611a46565b9050919050565b7f45524332303a20617070726f76652066726f6d20746865207a65726f2061646460008201527f7265737300000000000000000000000000000000000000000000000000000000602082015250565b6000611ae560248361128a565b9150611af082611a89565b604082019050919050565b60006020820190508181036000830152611b1481611ad8565b9050919050565b7f45524332303a20617070726f766520746f20746865207a65726f20616464726560008201527f7373000000000000000000000000000000000000000000000000000000000000602082015250565b6000611b7760228361128a565b9150611b8282611b1b565b604082019050919050565b60006020820190508181036000830152611ba681611b6a565b9050919050565b7f45524332303a20696e73756666696369656e7420616c6c6f77616e6365000000600082015250565b6000611be3601d8361128a565b9150611bee82611bad565b602082019050919050565b60006020820190508181036000830152611c1281611bd6565b9050919050565b7f45524332303a207472616e736665722066726f6d20746865207a65726f20616460008201527f6472657373000000000000000000000000000000000000000000000000000000602082015250565b6000611c7560258361128a565b9150611c8082611c19565b604082019050919050565b60006020820190508181036000830152611ca481611c68565b9050919050565b7f45524332303a207472616e7366657220746f20746865207a65726f206164647260008201527f6573730000000000000000000000000000000000000000000000000000000000602082015250565b6000611d0760238361128a565b9150611d1282611cab565b604082019050919050565b60006020820190508181036000830152611d3681611cfa565b9050919050565b7f45524332303a207472616e7366657220616d6f756e742065786365656473206260008201527f616c616e63650000000000000000000000000000000000000000000000000000602082015250565b6000611d9960268361128a565b9150611da482611d3d565b604082019050919050565b60006020820190508181036000830152611dc881611d8c565b9050919050565b7f45524332303a206d696e7420746f20746865207a65726f206164647265737300600082015250565b6000611e05601f8361128a565b9150611e1082611dcf565b602082019050919050565b60006020820190508181036000830152611e3481611df8565b9050919050565b6000611e46826113a2565b9150611e51836113a2565b9250817fffffffffffffffffffffffffffffffffffffffffffffffffffffffffffffffff0483118215151615611e8a57611e8961172f565b5b828202905092915050565b7f4e487b7100000000000000000000000000000000000000000000000000000000600052601260045260246000fd5b6000611ecf826113a2565b9150611eda836113a2565b925082611eea57611ee9611e95565b5b828204905092915050565b7f45524332303a206275726e2066726f6d20746865207a65726f2061646472657360008201527f7300000000000000000000000000000000000000000000000000000000000000602082015250565b6000611f5160218361128a565b9150611f5c82611ef5565b604082019050919050565b60006020820190508181036000830152611f8081611f44565b9050919050565b7f45524332303a206275726e20616d6f756e7420657863656564732062616c616e60008201527f6365000000000000000000000000000000000000000000000000000000000000602082015250565b6000611fe360228361128a565b9150611fee82611f87565b604082019050919050565b6000602082019050818103600083015261201281611fd6565b905091905056fea2646970667358221220f06c84e933348764d3a9444ef0a9079ccae2f78e8b8197e7424a0d4d7e04567164736f6c63430008090033",
  "linkReferences": {},
  "deployedLinkReferences": {}
}