{
  "_format": "hh-sol-artifact-1",
  "contractName": "MyContract",
  "sourceName": "contracts/getting_started_with_solidity/22_if_statement/MyContract.sol",
  "abi": [
    {
      "inputs": [],
      "name": "symbol",
      "outputs": [
        {
          "internalType": "string",
          "name": "",
          "type": "string"
        }
      ],
      "stateMutability": "view",
      "type": "function"
    },
    {
      "inputs": [
        {
          "internalType": "uint256",
          "name": "_symbolNum",
          "type": "uint256"
        }
      ],
      "name": "symbolNum",
      "outputs": [],
      "stateMutability": "nonpayable",
      "type": "function"
    }
  ],
  "bytecode": "0x608060405234801561001057600080fd5b50610465806100206000396000f3fe608060405234801561001057600080fd5b50600436106100365760003560e01c80631c69c1581461003b57806395d89b4114610057575b600080fd5b610055600480360381019061005091906102e6565b610075565b005b61005f61017a565b60405161006c91906103ac565b60405180910390f35b60018114156100cf576040518060400160405280600381526020017f4254430000000000000000000000000000000000000000000000000000000000815250600090805190602001906100c9929190610208565b50610177565b6002811415610129576040518060400160405280600381526020017f455448000000000000000000000000000000000000000000000000000000000081525060009080519060200190610123929190610208565b50610176565b6040518060400160405280600881526020017f43524150434f494e00000000000000000000000000000000000000000000000081525060009080519060200190610174929190610208565b505b5b50565b60008054610187906103fd565b80601f01602080910402602001604051908101604052809291908181526020018280546101b3906103fd565b80156102005780601f106101d557610100808354040283529160200191610200565b820191906000526020600020905b8154815290600101906020018083116101e357829003601f168201915b505050505081565b828054610214906103fd565b90600052602060002090601f016020900481019282610236576000855561027d565b82601f1061024f57805160ff191683800117855561027d565b8280016001018555821561027d579182015b8281111561027c578251825591602001919060010190610261565b5b50905061028a919061028e565b5090565b5b808211156102a757600081600090555060010161028f565b5090565b600080fd5b6000819050919050565b6102c3816102b0565b81146102ce57600080fd5b50565b6000813590506102e0816102ba565b92915050565b6000602082840312156102fc576102fb6102ab565b5b600061030a848285016102d1565b91505092915050565b600081519050919050565b600082825260208201905092915050565b60005b8381101561034d578082015181840152602081019050610332565b8381111561035c576000848401525b50505050565b6000601f19601f8301169050919050565b600061037e82610313565b610388818561031e565b935061039881856020860161032f565b6103a181610362565b840191505092915050565b600060208201905081810360008301526103c68184610373565b905092915050565b7f4e487b7100000000000000000000000000000000000000000000000000000000600052602260045260246000fd5b6000600282049050600182168061041557607f821691505b60208210811415610429576104286103ce565b5b5091905056fea2646970667358221220b2edd388224d7935b935ad99b0f6565a3a6381074e40f97ec1c6f710fabba7ec64736f6c63430008090033",
  "linkReferences": {},
  "deployedLinkReferences": {}
}