{
  "_format": "hh-sol-artifact-1",
  "contractName": "MyContract",
  "sourceName": "contracts/getting_started_with_solidity/06_pure_and_view_functions/MyContract.sol",
  "abi": [
    {
      "inputs": [],
      "name": "getName",
      "outputs": [
        {
          "internalType": "string",
          "name": "",
          "type": "string"
        }
      ],
      "stateMutability": "view",
      "type": "function"
    },
    {
      "inputs": [
        {
          "internalType": "int256",
          "name": "a",
          "type": "int256"
        },
        {
          "internalType": "int256",
          "name": "b",
          "type": "int256"
        }
      ],
      "name": "sum",
      "outputs": [
        {
          "internalType": "int256",
          "name": "",
          "type": "int256"
        }
      ],
      "stateMutability": "pure",
      "type": "function"
    }
  ],
  "bytecode": "0x60806040526040518060400160405280600881526020017f4a6f686e20446f650000000000000000000000000000000000000000000000008152506000908051906020019061004f929190610062565b5034801561005c57600080fd5b50610166565b82805461006e90610134565b90600052602060002090601f01602090048101928261009057600085556100d7565b82601f106100a957805160ff19168380011785556100d7565b828001600101855582156100d7579182015b828111156100d65782518255916020019190600101906100bb565b5b5090506100e491906100e8565b5090565b5b808211156101015760008160009055506001016100e9565b5090565b7f4e487b7100000000000000000000000000000000000000000000000000000000600052602260045260246000fd5b6000600282049050600182168061014c57607f821691505b602082108114156101605761015f610105565b5b50919050565b6103eb806101756000396000f3fe608060405234801561001057600080fd5b50600436106100365760003560e01c806317d7de7c1461003b5780639967062d14610059575b600080fd5b610043610089565b60405161005091906101ca565b60405180910390f35b610073600480360381019061006e9190610227565b61011b565b6040516100809190610276565b60405180910390f35b606060008054610098906102c0565b80601f01602080910402602001604051908101604052809291908181526020018280546100c4906102c0565b80156101115780601f106100e657610100808354040283529160200191610111565b820191906000526020600020905b8154815290600101906020018083116100f457829003601f168201915b5050505050905090565b600081836101299190610321565b905092915050565b600081519050919050565b600082825260208201905092915050565b60005b8381101561016b578082015181840152602081019050610150565b8381111561017a576000848401525b50505050565b6000601f19601f8301169050919050565b600061019c82610131565b6101a6818561013c565b93506101b681856020860161014d565b6101bf81610180565b840191505092915050565b600060208201905081810360008301526101e48184610191565b905092915050565b600080fd5b6000819050919050565b610204816101f1565b811461020f57600080fd5b50565b600081359050610221816101fb565b92915050565b6000806040838503121561023e5761023d6101ec565b5b600061024c85828601610212565b925050602061025d85828601610212565b9150509250929050565b610270816101f1565b82525050565b600060208201905061028b6000830184610267565b92915050565b7f4e487b7100000000000000000000000000000000000000000000000000000000600052602260045260246000fd5b600060028204905060018216806102d857607f821691505b602082108114156102ec576102eb610291565b5b50919050565b7f4e487b7100000000000000000000000000000000000000000000000000000000600052601160045260246000fd5b600061032c826101f1565b9150610337836101f1565b9250817f7fffffffffffffffffffffffffffffffffffffffffffffffffffffffffffffff03831360008312151615610372576103716102f2565b5b817f80000000000000000000000000000000000000000000000000000000000000000383126000831216156103aa576103a96102f2565b5b82820190509291505056fea264697066735822122033f00b6406f11f0cd9ef36a2d9b0217530dd3a345381973fae50675ee5c8d1a764736f6c63430008090033",
  "linkReferences": {},
  "deployedLinkReferences": {}
}