{
  "_format": "hh-sol-artifact-1",
  "contractName": "MyContract",
  "sourceName": "contracts/getting_started_with_solidity/16_struct/MyContract.sol",
  "abi": [
    {
      "inputs": [
        {
          "internalType": "string",
          "name": "_text",
          "type": "string"
        }
      ],
      "name": "create",
      "outputs": [],
      "stateMutability": "nonpayable",
      "type": "function"
    },
    {
      "inputs": [
        {
          "internalType": "uint256",
          "name": "_index",
          "type": "uint256"
        }
      ],
      "name": "get",
      "outputs": [
        {
          "internalType": "string",
          "name": "",
          "type": "string"
        },
        {
          "internalType": "bool",
          "name": "",
          "type": "bool"
        }
      ],
      "stateMutability": "view",
      "type": "function"
    },
    {
      "inputs": [
        {
          "internalType": "uint256",
          "name": "",
          "type": "uint256"
        }
      ],
      "name": "todos",
      "outputs": [
        {
          "internalType": "string",
          "name": "text",
          "type": "string"
        },
        {
          "internalType": "bool",
          "name": "completed",
          "type": "bool"
        }
      ],
      "stateMutability": "view",
      "type": "function"
    }
  ],
  "bytecode": "0x608060405234801561001057600080fd5b50610729806100206000396000f3fe608060405234801561001057600080fd5b50600436106100415760003560e01c80639507d39a14610046578063b6a46b3b14610077578063bc8bc2b414610093575b600080fd5b610060600480360381019061005b91906103d4565b6100c4565b60405161006e9291906104b5565b60405180910390f35b610091600480360381019061008c919061061a565b610199565b005b6100ad60048036038101906100a891906103d4565b61021e565b6040516100bb9291906104b5565b60405180910390f35b6060600080600084815481106100dd576100dc610663565b5b90600052602060002090600202019050806000018160010160009054906101000a900460ff1681805461010f906106c1565b80601f016020809104026020016040519081016040528092919081815260200182805461013b906106c1565b80156101885780601f1061015d57610100808354040283529160200191610188565b820191906000526020600020905b81548152906001019060200180831161016b57829003601f168201915b505050505091509250925050915091565b6000604051806040016040528083815260200160001515815250908060018154018082558091505060019003906000526020600020906002020160009091909190915060008201518160000190805190602001906101f89291906102e7565b5060208201518160010160006101000a81548160ff021916908315150217905550505050565b6000818154811061022e57600080fd5b9060005260206000209060020201600091509050806000018054610251906106c1565b80601f016020809104026020016040519081016040528092919081815260200182805461027d906106c1565b80156102ca5780601f1061029f576101008083540402835291602001916102ca565b820191906000526020600020905b8154815290600101906020018083116102ad57829003601f168201915b5050505050908060010160009054906101000a900460ff16905082565b8280546102f3906106c1565b90600052602060002090601f016020900481019282610315576000855561035c565b82601f1061032e57805160ff191683800117855561035c565b8280016001018555821561035c579182015b8281111561035b578251825591602001919060010190610340565b5b509050610369919061036d565b5090565b5b8082111561038657600081600090555060010161036e565b5090565b6000604051905090565b600080fd5b600080fd5b6000819050919050565b6103b18161039e565b81146103bc57600080fd5b50565b6000813590506103ce816103a8565b92915050565b6000602082840312156103ea576103e9610394565b5b60006103f8848285016103bf565b91505092915050565b600081519050919050565b600082825260208201905092915050565b60005b8381101561043b578082015181840152602081019050610420565b8381111561044a576000848401525b50505050565b6000601f19601f8301169050919050565b600061046c82610401565b610476818561040c565b935061048681856020860161041d565b61048f81610450565b840191505092915050565b60008115159050919050565b6104af8161049a565b82525050565b600060408201905081810360008301526104cf8185610461565b90506104de60208301846104a6565b9392505050565b600080fd5b600080fd5b7f4e487b7100000000000000000000000000000000000000000000000000000000600052604160045260246000fd5b61052782610450565b810181811067ffffffffffffffff82111715610546576105456104ef565b5b80604052505050565b600061055961038a565b9050610565828261051e565b919050565b600067ffffffffffffffff821115610585576105846104ef565b5b61058e82610450565b9050602081019050919050565b82818337600083830152505050565b60006105bd6105b88461056a565b61054f565b9050828152602081018484840111156105d9576105d86104ea565b5b6105e484828561059b565b509392505050565b600082601f830112610601576106006104e5565b5b81356106118482602086016105aa565b91505092915050565b6000602082840312156106305761062f610394565b5b600082013567ffffffffffffffff81111561064e5761064d610399565b5b61065a848285016105ec565b91505092915050565b7f4e487b7100000000000000000000000000000000000000000000000000000000600052603260045260246000fd5b7f4e487b7100000000000000000000000000000000000000000000000000000000600052602260045260246000fd5b600060028204905060018216806106d957607f821691505b602082108114156106ed576106ec610692565b5b5091905056fea2646970667358221220935a184348d7ea72fb59abd703b1ecdbd2378843ce96de749c0fc7d4d744b1b164736f6c63430008090033",
  "linkReferences": {},
  "deployedLinkReferences": {}
}