{
  "_format": "hh-sol-artifact-1",
  "contractName": "NestedMapsContract",
  "sourceName": "contracts/getting_started_with_solidity/14_mapping/02_NestedMapsContract.sol",
  "abi": [
    {
      "inputs": [
        {
          "internalType": "address",
          "name": "",
          "type": "address"
        },
        {
          "internalType": "address",
          "name": "",
          "type": "address"
        }
      ],
      "name": "allowance",
      "outputs": [
        {
          "internalType": "uint256",
          "name": "",
          "type": "uint256"
        }
      ],
      "stateMutability": "view",
      "type": "function"
    },
    {
      "inputs": [
        {
          "internalType": "address",
          "name": "_addressOwner",
          "type": "address"
        },
        {
          "internalType": "address",
          "name": "_addressSpender",
          "type": "address"
        }
      ],
      "name": "get",
      "outputs": [
        {
          "internalType": "uint256",
          "name": "",
          "type": "uint256"
        }
      ],
      "stateMutability": "view",
      "type": "function"
    },
    {
      "inputs": [
        {
          "internalType": "address",
          "name": "_addressOwner",
          "type": "address"
        },
        {
          "internalType": "address",
          "name": "_addressSpender",
          "type": "address"
        }
      ],
      "name": "remove",
      "outputs": [],
      "stateMutability": "nonpayable",
      "type": "function"
    },
    {
      "inputs": [
        {
          "internalType": "address",
          "name": "_addressOwner",
          "type": "address"
        },
        {
          "internalType": "address",
          "name": "_addressSpender",
          "type": "address"
        },
        {
          "internalType": "uint256",
          "name": "amount",
          "type": "uint256"
        }
      ],
      "name": "set",
      "outputs": [],
      "stateMutability": "nonpayable",
      "type": "function"
    }
  ],
  "bytecode": "0x608060405234801561001057600080fd5b50610428806100206000396000f3fe608060405234801561001057600080fd5b506004361061004c5760003560e01c806319f02ceb146100515780637f7c14911461006d578063d81e842314610089578063dd62ed3e146100b9575b600080fd5b61006b60048036038101906100669190610335565b6100e9565b005b61008760048036038101906100829190610388565b61016e565b005b6100a3600480360381019061009e9190610388565b6101f1565b6040516100b091906103d7565b60405180910390f35b6100d360048036038101906100ce9190610388565b610277565b6040516100e091906103d7565b60405180910390f35b806000808573ffffffffffffffffffffffffffffffffffffffff1673ffffffffffffffffffffffffffffffffffffffff16815260200190815260200160002060008473ffffffffffffffffffffffffffffffffffffffff1673ffffffffffffffffffffffffffffffffffffffff16815260200190815260200160002081905550505050565b6000808373ffffffffffffffffffffffffffffffffffffffff1673ffffffffffffffffffffffffffffffffffffffff16815260200190815260200160002060008273ffffffffffffffffffffffffffffffffffffffff1673ffffffffffffffffffffffffffffffffffffffff168152602001908152602001600020600090555050565b60008060008473ffffffffffffffffffffffffffffffffffffffff1673ffffffffffffffffffffffffffffffffffffffff16815260200190815260200160002060008373ffffffffffffffffffffffffffffffffffffffff1673ffffffffffffffffffffffffffffffffffffffff16815260200190815260200160002054905092915050565b6000602052816000526040600020602052806000526040600020600091509150505481565b600080fd5b600073ffffffffffffffffffffffffffffffffffffffff82169050919050565b60006102cc826102a1565b9050919050565b6102dc816102c1565b81146102e757600080fd5b50565b6000813590506102f9816102d3565b92915050565b6000819050919050565b610312816102ff565b811461031d57600080fd5b50565b60008135905061032f81610309565b92915050565b60008060006060848603121561034e5761034d61029c565b5b600061035c868287016102ea565b935050602061036d868287016102ea565b925050604061037e86828701610320565b9150509250925092565b6000806040838503121561039f5761039e61029c565b5b60006103ad858286016102ea565b92505060206103be858286016102ea565b9150509250929050565b6103d1816102ff565b82525050565b60006020820190506103ec60008301846103c8565b9291505056fea264697066735822122063425dc0b9850a17e4b2090b405dc40130948d7e24ffbe5f5261cfa63b9a6a5b64736f6c63430008090033",
  "linkReferences": {},
  "deployedLinkReferences": {}
}