{
  "_format": "hh-sol-artifact-1",
  "contractName": "AddressBook",
  "sourceName": "contracts/sample_apps/02_address_book/AddressBook.sol",
  "abi": [
    {
      "inputs": [
        {
          "internalType": "address",
          "name": "contactAddress",
          "type": "address"
        },
        {
          "internalType": "string",
          "name": "aliasName",
          "type": "string"
        }
      ],
      "name": "addContact",
      "outputs": [],
      "stateMutability": "nonpayable",
      "type": "function"
    },
    {
      "inputs": [
        {
          "internalType": "address",
          "name": "contactAddress",
          "type": "address"
        }
      ],
      "name": "getAlias",
      "outputs": [
        {
          "internalType": "string",
          "name": "",
          "type": "string"
        }
      ],
      "stateMutability": "view",
      "type": "function"
    },
    {
      "inputs": [],
      "name": "getContacts",
      "outputs": [
        {
          "internalType": "address[]",
          "name": "",
          "type": "address[]"
        }
      ],
      "stateMutability": "view",
      "type": "function"
    },
    {
      "inputs": [
        {
          "internalType": "address",
          "name": "contactAddress",
          "type": "address"
        }
      ],
      "name": "removeContact",
      "outputs": [],
      "stateMutability": "nonpayable",
      "type": "function"
    }
  ],
  "bytecode": "0x608060405234801561001057600080fd5b50610de4806100206000396000f3fe608060405234801561001057600080fd5b506004361061004c5760003560e01c806399900d1114610051578063a6a6607214610081578063c44481641461009d578063db920b77146100b9575b600080fd5b61006b600480360381019061006691906108e0565b6100d7565b60405161007891906109a6565b60405180910390f35b61009b600480360381019061009691906108e0565b6101e5565b005b6100b760048036038101906100b29190610afd565b61058d565b005b6100c16106c1565b6040516100ce9190610c17565b60405180910390f35b6060600160003373ffffffffffffffffffffffffffffffffffffffff1673ffffffffffffffffffffffffffffffffffffffff16815260200190815260200160002060008373ffffffffffffffffffffffffffffffffffffffff1673ffffffffffffffffffffffffffffffffffffffff168152602001908152602001600020805461016090610c68565b80601f016020809104026020016040519081016040528092919081815260200182805461018c90610c68565b80156101d95780601f106101ae576101008083540402835291602001916101d9565b820191906000526020600020905b8154815290600101906020018083116101bc57829003601f168201915b50505050509050919050565b60008060003373ffffffffffffffffffffffffffffffffffffffff1673ffffffffffffffffffffffffffffffffffffffff16815260200190815260200160002080549050905060005b81811015610588576000803373ffffffffffffffffffffffffffffffffffffffff1673ffffffffffffffffffffffffffffffffffffffff168152602001908152602001600020818154811061028657610285610c9a565b5b9060005260206000200160009054906101000a900473ffffffffffffffffffffffffffffffffffffffff1673ffffffffffffffffffffffffffffffffffffffff168373ffffffffffffffffffffffffffffffffffffffff1614156105755760016000803373ffffffffffffffffffffffffffffffffffffffff1673ffffffffffffffffffffffffffffffffffffffff16815260200190815260200160002080549050118015610340575060018261033d9190610d02565b81105b15610465576000803373ffffffffffffffffffffffffffffffffffffffff1673ffffffffffffffffffffffffffffffffffffffff1681526020019081526020016000206001836103909190610d02565b815481106103a1576103a0610c9a565b5b9060005260206000200160009054906101000a900473ffffffffffffffffffffffffffffffffffffffff166000803373ffffffffffffffffffffffffffffffffffffffff1673ffffffffffffffffffffffffffffffffffffffff168152602001908152602001600020828154811061041c5761041b610c9a565b5b9060005260206000200160006101000a81548173ffffffffffffffffffffffffffffffffffffffff021916908373ffffffffffffffffffffffffffffffffffffffff1602179055505b6000803373ffffffffffffffffffffffffffffffffffffffff1673ffffffffffffffffffffffffffffffffffffffff1681526020019081526020016000208054806104b3576104b2610d36565b5b6001900381819060005260206000200160006101000a81549073ffffffffffffffffffffffffffffffffffffffff02191690559055600160003373ffffffffffffffffffffffffffffffffffffffff1673ffffffffffffffffffffffffffffffffffffffff16815260200190815260200160002060008473ffffffffffffffffffffffffffffffffffffffff1673ffffffffffffffffffffffffffffffffffffffff1681526020019081526020016000206000610570919061078b565b610588565b808061058090610d65565b91505061022e565b505050565b6000803373ffffffffffffffffffffffffffffffffffffffff1673ffffffffffffffffffffffffffffffffffffffff168152602001908152602001600020829080600181540180825580915050600190039060005260206000200160009091909190916101000a81548173ffffffffffffffffffffffffffffffffffffffff021916908373ffffffffffffffffffffffffffffffffffffffff16021790555080600160003373ffffffffffffffffffffffffffffffffffffffff1673ffffffffffffffffffffffffffffffffffffffff16815260200190815260200160002060008473ffffffffffffffffffffffffffffffffffffffff1673ffffffffffffffffffffffffffffffffffffffff16815260200190815260200160002090805190602001906106bc9291906107cb565b505050565b60606000803373ffffffffffffffffffffffffffffffffffffffff1673ffffffffffffffffffffffffffffffffffffffff16815260200190815260200160002080548060200260200160405190810160405280929190818152602001828054801561078157602002820191906000526020600020905b8160009054906101000a900473ffffffffffffffffffffffffffffffffffffffff1673ffffffffffffffffffffffffffffffffffffffff1681526020019060010190808311610737575b5050505050905090565b50805461079790610c68565b6000825580601f106107a957506107c8565b601f0160209004906000526020600020908101906107c79190610851565b5b50565b8280546107d790610c68565b90600052602060002090601f0160209004810192826107f95760008555610840565b82601f1061081257805160ff1916838001178555610840565b82800160010185558215610840579182015b8281111561083f578251825591602001919060010190610824565b5b50905061084d9190610851565b5090565b5b8082111561086a576000816000905550600101610852565b5090565b6000604051905090565b600080fd5b600080fd5b600073ffffffffffffffffffffffffffffffffffffffff82169050919050565b60006108ad82610882565b9050919050565b6108bd816108a2565b81146108c857600080fd5b50565b6000813590506108da816108b4565b92915050565b6000602082840312156108f6576108f5610878565b5b6000610904848285016108cb565b91505092915050565b600081519050919050565b600082825260208201905092915050565b60005b8381101561094757808201518184015260208101905061092c565b83811115610956576000848401525b50505050565b6000601f19601f8301169050919050565b60006109788261090d565b6109828185610918565b9350610992818560208601610929565b61099b8161095c565b840191505092915050565b600060208201905081810360008301526109c0818461096d565b905092915050565b600080fd5b600080fd5b7f4e487b7100000000000000000000000000000000000000000000000000000000600052604160045260246000fd5b610a0a8261095c565b810181811067ffffffffffffffff82111715610a2957610a286109d2565b5b80604052505050565b6000610a3c61086e565b9050610a488282610a01565b919050565b600067ffffffffffffffff821115610a6857610a676109d2565b5b610a718261095c565b9050602081019050919050565b82818337600083830152505050565b6000610aa0610a9b84610a4d565b610a32565b905082815260208101848484011115610abc57610abb6109cd565b5b610ac7848285610a7e565b509392505050565b600082601f830112610ae457610ae36109c8565b5b8135610af4848260208601610a8d565b91505092915050565b60008060408385031215610b1457610b13610878565b5b6000610b22858286016108cb565b925050602083013567ffffffffffffffff811115610b4357610b4261087d565b5b610b4f85828601610acf565b9150509250929050565b600081519050919050565b600082825260208201905092915050565b6000819050602082019050919050565b610b8e816108a2565b82525050565b6000610ba08383610b85565b60208301905092915050565b6000602082019050919050565b6000610bc482610b59565b610bce8185610b64565b9350610bd983610b75565b8060005b83811015610c0a578151610bf18882610b94565b9750610bfc83610bac565b925050600181019050610bdd565b5085935050505092915050565b60006020820190508181036000830152610c318184610bb9565b905092915050565b7f4e487b7100000000000000000000000000000000000000000000000000000000600052602260045260246000fd5b60006002820490506001821680610c8057607f821691505b60208210811415610c9457610c93610c39565b5b50919050565b7f4e487b7100000000000000000000000000000000000000000000000000000000600052603260045260246000fd5b6000819050919050565b7f4e487b7100000000000000000000000000000000000000000000000000000000600052601160045260246000fd5b6000610d0d82610cc9565b9150610d1883610cc9565b925082821015610d2b57610d2a610cd3565b5b828203905092915050565b7f4e487b7100000000000000000000000000000000000000000000000000000000600052603160045260246000fd5b6000610d7082610cc9565b91507fffffffffffffffffffffffffffffffffffffffffffffffffffffffffffffffff821415610da357610da2610cd3565b5b60018201905091905056fea2646970667358221220023a000236abf085234cfe79d45dc308db74502b7b8c5e163b3b16eac1f761ad64736f6c63430008090033",
  "linkReferences": {},
  "deployedLinkReferences": {}
}