{
  "_format": "hh-sol-artifact-1",
  "contractName": "EthGame",
  "sourceName": "contracts/sample_apps/08_eth_game/EthGame.sol",
  "abi": [
    {
      "inputs": [],
      "name": "balance",
      "outputs": [
        {
          "internalType": "uint256",
          "name": "",
          "type": "uint256"
        }
      ],
      "stateMutability": "view",
      "type": "function"
    },
    {
      "inputs": [],
      "name": "claimReward",
      "outputs": [],
      "stateMutability": "nonpayable",
      "type": "function"
    },
    {
      "inputs": [],
      "name": "deposit",
      "outputs": [],
      "stateMutability": "payable",
      "type": "function"
    },
    {
      "inputs": [],
      "name": "getBalance",
      "outputs": [
        {
          "internalType": "uint256",
          "name": "",
          "type": "uint256"
        }
      ],
      "stateMutability": "view",
      "type": "function"
    },
    {
      "inputs": [],
      "name": "targetAmount",
      "outputs": [
        {
          "internalType": "uint256",
          "name": "",
          "type": "uint256"
        }
      ],
      "stateMutability": "view",
      "type": "function"
    },
    {
      "inputs": [],
      "name": "winner",
      "outputs": [
        {
          "internalType": "address",
          "name": "",
          "type": "address"
        }
      ],
      "stateMutability": "view",
      "type": "function"
    }
  ],
  "bytecode": "0x608060405267c249fdd32778000060005534801561001c57600080fd5b506106ec8061002c6000396000f3fe6080604052600436106100555760003560e01c806312065fe01461005a578063953b8fb814610085578063b69ef8a8146100b0578063b88a802f146100db578063d0e30db0146100f2578063dfbf53ae146100fc575b600080fd5b34801561006657600080fd5b5061006f610127565b60405161007c91906103b3565b60405180910390f35b34801561009157600080fd5b5061009a61012f565b6040516100a791906103b3565b60405180910390f35b3480156100bc57600080fd5b506100c5610135565b6040516100d291906103b3565b60405180910390f35b3480156100e757600080fd5b506100f061013b565b005b6100fa61027a565b005b34801561010857600080fd5b50610111610374565b60405161011e919061040f565b60405180910390f35b600047905090565b60005481565b60025481565b600160009054906101000a900473ffffffffffffffffffffffffffffffffffffffff1673ffffffffffffffffffffffffffffffffffffffff163373ffffffffffffffffffffffffffffffffffffffff16146101cb576040517f08c379a00000000000000000000000000000000000000000000000000000000081526004016101c290610487565b60405180910390fd5b60003373ffffffffffffffffffffffffffffffffffffffff16476040516101f1906104d8565b60006040518083038185875af1925050503d806000811461022e576040519150601f19603f3d011682016040523d82523d6000602084013e610233565b606091505b5050905080610277576040517f08c379a000000000000000000000000000000000000000000000000000000000815260040161026e90610539565b60405180910390fd5b50565b670de0b6b3a764000034146102c4576040517f08c379a00000000000000000000000000000000000000000000000000000000081526004016102bb906105a5565b60405180910390fd5b34600260008282546102d691906105f4565b925050819055506000546002541115610324576040517f08c379a000000000000000000000000000000000000000000000000000000000815260040161031b90610696565b60405180910390fd5b60005460025414156103725733600160006101000a81548173ffffffffffffffffffffffffffffffffffffffff021916908373ffffffffffffffffffffffffffffffffffffffff1602179055505b565b600160009054906101000a900473ffffffffffffffffffffffffffffffffffffffff1681565b6000819050919050565b6103ad8161039a565b82525050565b60006020820190506103c860008301846103a4565b92915050565b600073ffffffffffffffffffffffffffffffffffffffff82169050919050565b60006103f9826103ce565b9050919050565b610409816103ee565b82525050565b60006020820190506104246000830184610400565b92915050565b600082825260208201905092915050565b7f4e6f742077696e6e657200000000000000000000000000000000000000000000600082015250565b6000610471600a8361042a565b915061047c8261043b565b602082019050919050565b600060208201905081810360008301526104a081610464565b9050919050565b600081905092915050565b50565b60006104c26000836104a7565b91506104cd826104b2565b600082019050919050565b60006104e3826104b5565b9150819050919050565b7f4661696c656420746f2073656e64204574686572000000000000000000000000600082015250565b600061052360148361042a565b915061052e826104ed565b602082019050919050565b6000602082019050818103600083015261055281610516565b9050919050565b7f596f752063616e206f6e6c792073656e64203120457468657200000000000000600082015250565b600061058f60198361042a565b915061059a82610559565b602082019050919050565b600060208201905081810360008301526105be81610582565b9050919050565b7f4e487b7100000000000000000000000000000000000000000000000000000000600052601160045260246000fd5b60006105ff8261039a565b915061060a8361039a565b9250827fffffffffffffffffffffffffffffffffffffffffffffffffffffffffffffffff0382111561063f5761063e6105c5565b5b828201905092915050565b7f47616d65206973206f7665720000000000000000000000000000000000000000600082015250565b6000610680600c8361042a565b915061068b8261064a565b602082019050919050565b600060208201905081810360008301526106af81610673565b905091905056fea2646970667358221220815ffe5f66501d34f93414f17a9ea372c9a7661d2dc51178ed6152b8e4f7a53f64736f6c63430008090033",
  "linkReferences": {},
  "deployedLinkReferences": {}
}