{
  "_format": "hh-sol-artifact-1",
  "contractName": "MyContract",
  "sourceName": "contracts/getting_started_with_solidity/07_function_modifiers/MyContract.sol",
  "abi": [
    {
      "inputs": [],
      "stateMutability": "nonpayable",
      "type": "constructor"
    },
    {
      "inputs": [],
      "name": "getName",
      "outputs": [
        {
          "internalType": "string",
          "name": "",
          "type": "string"
        }
      ],
      "stateMutability": "view",
      "type": "function"
    },
    {
      "inputs": [],
      "name": "owner",
      "outputs": [
        {
          "internalType": "address",
          "name": "",
          "type": "address"
        }
      ],
      "stateMutability": "view",
      "type": "function"
    },
    {
      "inputs": [
        {
          "internalType": "string",
          "name": "newName",
          "type": "string"
        }
      ],
      "name": "setName",
      "outputs": [],
      "stateMutability": "nonpayable",
      "type": "function"
    }
  ],
  "bytecode": "0x608060405234801561001057600080fd5b50336000806101000a81548173ffffffffffffffffffffffffffffffffffffffff021916908373ffffffffffffffffffffffffffffffffffffffff16021790555061064b806100606000396000f3fe608060405234801561001057600080fd5b50600436106100415760003560e01c806317d7de7c146100465780638da5cb5b14610064578063c47f002714610082575b600080fd5b61004e61009e565b60405161005b9190610338565b60405180910390f35b61006c610130565b604051610079919061039b565b60405180910390f35b61009c600480360381019061009791906104ff565b610154565b005b6060600180546100ad90610577565b80601f01602080910402602001604051908101604052809291908181526020018280546100d990610577565b80156101265780601f106100fb57610100808354040283529160200191610126565b820191906000526020600020905b81548152906001019060200180831161010957829003601f168201915b5050505050905090565b60008054906101000a900473ffffffffffffffffffffffffffffffffffffffff1681565b60008054906101000a900473ffffffffffffffffffffffffffffffffffffffff1673ffffffffffffffffffffffffffffffffffffffff163373ffffffffffffffffffffffffffffffffffffffff16146101e2576040517f08c379a00000000000000000000000000000000000000000000000000000000081526004016101d9906105f5565b60405180910390fd5b80600190805190602001906101f89291906101fc565b5050565b82805461020890610577565b90600052602060002090601f01602090048101928261022a5760008555610271565b82601f1061024357805160ff1916838001178555610271565b82800160010185558215610271579182015b82811115610270578251825591602001919060010190610255565b5b50905061027e9190610282565b5090565b5b8082111561029b576000816000905550600101610283565b5090565b600081519050919050565b600082825260208201905092915050565b60005b838110156102d95780820151818401526020810190506102be565b838111156102e8576000848401525b50505050565b6000601f19601f8301169050919050565b600061030a8261029f565b61031481856102aa565b93506103248185602086016102bb565b61032d816102ee565b840191505092915050565b6000602082019050818103600083015261035281846102ff565b905092915050565b600073ffffffffffffffffffffffffffffffffffffffff82169050919050565b60006103858261035a565b9050919050565b6103958161037a565b82525050565b60006020820190506103b0600083018461038c565b92915050565b6000604051905090565b600080fd5b600080fd5b600080fd5b600080fd5b7f4e487b7100000000000000000000000000000000000000000000000000000000600052604160045260246000fd5b61040c826102ee565b810181811067ffffffffffffffff8211171561042b5761042a6103d4565b5b80604052505050565b600061043e6103b6565b905061044a8282610403565b919050565b600067ffffffffffffffff82111561046a576104696103d4565b5b610473826102ee565b9050602081019050919050565b82818337600083830152505050565b60006104a261049d8461044f565b610434565b9050828152602081018484840111156104be576104bd6103cf565b5b6104c9848285610480565b509392505050565b600082601f8301126104e6576104e56103ca565b5b81356104f684826020860161048f565b91505092915050565b600060208284031215610515576105146103c0565b5b600082013567ffffffffffffffff811115610533576105326103c5565b5b61053f848285016104d1565b91505092915050565b7f4e487b7100000000000000000000000000000000000000000000000000000000600052602260045260246000fd5b6000600282049050600182168061058f57607f821691505b602082108114156105a3576105a2610548565b5b50919050565b7f4e6f74206f776e65720000000000000000000000000000000000000000000000600082015250565b60006105df6009836102aa565b91506105ea826105a9565b602082019050919050565b6000602082019050818103600083015261060e816105d2565b905091905056fea2646970667358221220915503abdc3b53f5e09ec8138f772212d4a30f669a46045a7d4ece9c4386715864736f6c63430008090033",
  "linkReferences": {},
  "deployedLinkReferences": {}
}