{
  "_format": "hh-sol-artifact-1",
  "contractName": "TokenSwap",
  "sourceName": "contracts/sample_apps/07_token_swap/TokenSwap.sol",
  "abi": [
    {
      "inputs": [
        {
          "internalType": "address",
          "name": "_token1",
          "type": "address"
        },
        {
          "internalType": "address",
          "name": "_owner1",
          "type": "address"
        },
        {
          "internalType": "address",
          "name": "_token2",
          "type": "address"
        },
        {
          "internalType": "address",
          "name": "_owner2",
          "type": "address"
        }
      ],
      "stateMutability": "nonpayable",
      "type": "constructor"
    },
    {
      "inputs": [],
      "name": "owner1",
      "outputs": [
        {
          "internalType": "address",
          "name": "",
          "type": "address"
        }
      ],
      "stateMutability": "view",
      "type": "function"
    },
    {
      "inputs": [],
      "name": "owner2",
      "outputs": [
        {
          "internalType": "address",
          "name": "",
          "type": "address"
        }
      ],
      "stateMutability": "view",
      "type": "function"
    },
    {
      "inputs": [
        {
          "internalType": "uint256",
          "name": "_amount1",
          "type": "uint256"
        },
        {
          "internalType": "uint256",
          "name": "_amount2",
          "type": "uint256"
        }
      ],
      "name": "swap",
      "outputs": [],
      "stateMutability": "nonpayable",
      "type": "function"
    },
    {
      "inputs": [],
      "name": "token1",
      "outputs": [
        {
          "internalType": "contract IERC20",
          "name": "",
          "type": "address"
        }
      ],
      "stateMutability": "view",
      "type": "function"
    },
    {
      "inputs": [],
      "name": "token2",
      "outputs": [
        {
          "internalType": "contract IERC20",
          "name": "",
          "type": "address"
        }
      ],
      "stateMutability": "view",
      "type": "function"
    }
  ],
  "bytecode": "0x608060405234801561001057600080fd5b50604051610cc3380380610cc3833981810160405281019061003291906101a1565b836000806101000a81548173ffffffffffffffffffffffffffffffffffffffff021916908373ffffffffffffffffffffffffffffffffffffffff16021790555082600260006101000a81548173ffffffffffffffffffffffffffffffffffffffff021916908373ffffffffffffffffffffffffffffffffffffffff16021790555081600160006101000a81548173ffffffffffffffffffffffffffffffffffffffff021916908373ffffffffffffffffffffffffffffffffffffffff16021790555080600360006101000a81548173ffffffffffffffffffffffffffffffffffffffff021916908373ffffffffffffffffffffffffffffffffffffffff16021790555050505050610208565b600080fd5b600073ffffffffffffffffffffffffffffffffffffffff82169050919050565b600061016e82610143565b9050919050565b61017e81610163565b811461018957600080fd5b50565b60008151905061019b81610175565b92915050565b600080600080608085870312156101bb576101ba61013e565b5b60006101c98782880161018c565b94505060206101da8782880161018c565b93505060406101eb8782880161018c565b92505060606101fc8782880161018c565b91505092959194509250565b610aac806102176000396000f3fe608060405234801561001057600080fd5b50600436106100575760003560e01c806325be124e1461005c578063527097251461007a5780637368891414610098578063d21220a7146100b6578063d96073cf146100d4575b600080fd5b6100646100f0565b60405161007191906106cd565b60405180910390f35b610082610116565b60405161008f9190610709565b60405180910390f35b6100a061013c565b6040516100ad9190610709565b60405180910390f35b6100be610162565b6040516100cb91906106cd565b60405180910390f35b6100ee60048036038101906100e9919061075f565b610186565b005b600160009054906101000a900473ffffffffffffffffffffffffffffffffffffffff1681565b600360009054906101000a900473ffffffffffffffffffffffffffffffffffffffff1681565b600260009054906101000a900473ffffffffffffffffffffffffffffffffffffffff1681565b60008054906101000a900473ffffffffffffffffffffffffffffffffffffffff1681565b600260009054906101000a900473ffffffffffffffffffffffffffffffffffffffff1673ffffffffffffffffffffffffffffffffffffffff163373ffffffffffffffffffffffffffffffffffffffff16148061022f5750600360009054906101000a900473ffffffffffffffffffffffffffffffffffffffff1673ffffffffffffffffffffffffffffffffffffffff163373ffffffffffffffffffffffffffffffffffffffff16145b61026e576040517f08c379a0000000000000000000000000000000000000000000000000000000008152600401610265906107fc565b60405180910390fd5b8160008054906101000a900473ffffffffffffffffffffffffffffffffffffffff1673ffffffffffffffffffffffffffffffffffffffff1663dd62ed3e600260009054906101000a900473ffffffffffffffffffffffffffffffffffffffff16306040518363ffffffff1660e01b81526004016102ec92919061081c565b60206040518083038186803b15801561030457600080fd5b505afa158015610318573d6000803e3d6000fd5b505050506040513d601f19601f8201168201806040525081019061033c919061085a565b101561037d576040517f08c379a0000000000000000000000000000000000000000000000000000000008152600401610374906108d3565b60405180910390fd5b80600160009054906101000a900473ffffffffffffffffffffffffffffffffffffffff1673ffffffffffffffffffffffffffffffffffffffff1663dd62ed3e600360009054906101000a900473ffffffffffffffffffffffffffffffffffffffff16306040518363ffffffff1660e01b81526004016103fd92919061081c565b60206040518083038186803b15801561041557600080fd5b505afa158015610429573d6000803e3d6000fd5b505050506040513d601f19601f8201168201806040525081019061044d919061085a565b101561048e576040517f08c379a00000000000000000000000000000000000000000000000000000000081526004016104859061093f565b60405180910390fd5b6104fe60008054906101000a900473ffffffffffffffffffffffffffffffffffffffff16600260009054906101000a900473ffffffffffffffffffffffffffffffffffffffff16600360009054906101000a900473ffffffffffffffffffffffffffffffffffffffff1685610574565b610570600160009054906101000a900473ffffffffffffffffffffffffffffffffffffffff16600360009054906101000a900473ffffffffffffffffffffffffffffffffffffffff16600260009054906101000a900473ffffffffffffffffffffffffffffffffffffffff1684610574565b5050565b60008473ffffffffffffffffffffffffffffffffffffffff166323b872dd8585856040518463ffffffff1660e01b81526004016105b39392919061096e565b602060405180830381600087803b1580156105cd57600080fd5b505af11580156105e1573d6000803e3d6000fd5b505050506040513d601f19601f8201168201806040525081019061060591906109dd565b905080610647576040517f08c379a000000000000000000000000000000000000000000000000000000000815260040161063e90610a56565b60405180910390fd5b5050505050565b600073ffffffffffffffffffffffffffffffffffffffff82169050919050565b6000819050919050565b600061069361068e6106898461064e565b61066e565b61064e565b9050919050565b60006106a582610678565b9050919050565b60006106b78261069a565b9050919050565b6106c7816106ac565b82525050565b60006020820190506106e260008301846106be565b92915050565b60006106f38261064e565b9050919050565b610703816106e8565b82525050565b600060208201905061071e60008301846106fa565b92915050565b600080fd5b6000819050919050565b61073c81610729565b811461074757600080fd5b50565b60008135905061075981610733565b92915050565b6000806040838503121561077657610775610724565b5b60006107848582860161074a565b92505060206107958582860161074a565b9150509250929050565b600082825260208201905092915050565b7f4e6f7420617574686f72697a6564000000000000000000000000000000000000600082015250565b60006107e6600e8361079f565b91506107f1826107b0565b602082019050919050565b60006020820190508181036000830152610815816107d9565b9050919050565b600060408201905061083160008301856106fa565b61083e60208301846106fa565b9392505050565b60008151905061085481610733565b92915050565b6000602082840312156108705761086f610724565b5b600061087e84828501610845565b91505092915050565b7f546f6b656e203120616c6c6f77616e636520746f6f206c6f7700000000000000600082015250565b60006108bd60198361079f565b91506108c882610887565b602082019050919050565b600060208201905081810360008301526108ec816108b0565b9050919050565b7f546f6b656e203220616c6c6f77616e636520746f6f206c6f7700000000000000600082015250565b600061092960198361079f565b9150610934826108f3565b602082019050919050565b600060208201905081810360008301526109588161091c565b9050919050565b61096881610729565b82525050565b600060608201905061098360008301866106fa565b61099060208301856106fa565b61099d604083018461095f565b949350505050565b60008115159050919050565b6109ba816109a5565b81146109c557600080fd5b50565b6000815190506109d7816109b1565b92915050565b6000602082840312156109f3576109f2610724565b5b6000610a01848285016109c8565b91505092915050565b7f546f6b656e207472616e73666572206661696c65640000000000000000000000600082015250565b6000610a4060158361079f565b9150610a4b82610a0a565b602082019050919050565b60006020820190508181036000830152610a6f81610a33565b905091905056fea26469706673582212206619997ef071694250c1d5e9a0cc9b2f4d409d04b3f841a11c8dcc0cfc0974e964736f6c63430008090033",
  "linkReferences": {},
  "deployedLinkReferences": {}
}