{
  "_format": "hh-sol-artifact-1",
  "contractName": "FlashMinter",
  "sourceName": "contracts/sample_apps/11_flash_loan/FlashMinter.sol",
  "abi": [
    {
      "inputs": [
        {
          "internalType": "string",
          "name": "name",
          "type": "string"
        },
        {
          "internalType": "string",
          "name": "symbol",
          "type": "string"
        },
        {
          "internalType": "uint256",
          "name": "fee_",
          "type": "uint256"
        }
      ],
      "stateMutability": "nonpayable",
      "type": "constructor"
    },
    {
      "anonymous": false,
      "inputs": [
        {
          "indexed": true,
          "internalType": "address",
          "name": "owner",
          "type": "address"
        },
        {
          "indexed": true,
          "internalType": "address",
          "name": "spender",
          "type": "address"
        },
        {
          "indexed": false,
          "internalType": "uint256",
          "name": "value",
          "type": "uint256"
        }
      ],
      "name": "Approval",
      "type": "event"
    },
    {
      "anonymous": false,
      "inputs": [
        {
          "indexed": true,
          "internalType": "address",
          "name": "from",
          "type": "address"
        },
        {
          "indexed": true,
          "internalType": "address",
          "name": "to",
          "type": "address"
        },
        {
          "indexed": false,
          "internalType": "uint256",
          "name": "value",
          "type": "uint256"
        }
      ],
      "name": "Transfer",
      "type": "event"
    },
    {
      "inputs": [],
      "name": "CALLBACK_SUCCESS",
      "outputs": [
        {
          "internalType": "bytes32",
          "name": "",
          "type": "bytes32"
        }
      ],
      "stateMutability": "view",
      "type": "function"
    },
    {
      "inputs": [
        {
          "internalType": "address",
          "name": "owner",
          "type": "address"
        },
        {
          "internalType": "address",
          "name": "spender",
          "type": "address"
        }
      ],
      "name": "allowance",
      "outputs": [
        {
          "internalType": "uint256",
          "name": "",
          "type": "uint256"
        }
      ],
      "stateMutability": "view",
      "type": "function"
    },
    {
      "inputs": [
        {
          "internalType": "address",
          "name": "spender",
          "type": "address"
        },
        {
          "internalType": "uint256",
          "name": "amount",
          "type": "uint256"
        }
      ],
      "name": "approve",
      "outputs": [
        {
          "internalType": "bool",
          "name": "",
          "type": "bool"
        }
      ],
      "stateMutability": "nonpayable",
      "type": "function"
    },
    {
      "inputs": [
        {
          "internalType": "address",
          "name": "account",
          "type": "address"
        }
      ],
      "name": "balanceOf",
      "outputs": [
        {
          "internalType": "uint256",
          "name": "",
          "type": "uint256"
        }
      ],
      "stateMutability": "view",
      "type": "function"
    },
    {
      "inputs": [],
      "name": "decimals",
      "outputs": [
        {
          "internalType": "uint8",
          "name": "",
          "type": "uint8"
        }
      ],
      "stateMutability": "view",
      "type": "function"
    },
    {
      "inputs": [
        {
          "internalType": "address",
          "name": "spender",
          "type": "address"
        },
        {
          "internalType": "uint256",
          "name": "subtractedValue",
          "type": "uint256"
        }
      ],
      "name": "decreaseAllowance",
      "outputs": [
        {
          "internalType": "bool",
          "name": "",
          "type": "bool"
        }
      ],
      "stateMutability": "nonpayable",
      "type": "function"
    },
    {
      "inputs": [],
      "name": "fee",
      "outputs": [
        {
          "internalType": "uint256",
          "name": "",
          "type": "uint256"
        }
      ],
      "stateMutability": "view",
      "type": "function"
    },
    {
      "inputs": [
        {
          "internalType": "address",
          "name": "token",
          "type": "address"
        },
        {
          "internalType": "uint256",
          "name": "amount",
          "type": "uint256"
        }
      ],
      "name": "flashFee",
      "outputs": [
        {
          "internalType": "uint256",
          "name": "",
          "type": "uint256"
        }
      ],
      "stateMutability": "view",
      "type": "function"
    },
    {
      "inputs": [
        {
          "internalType": "contract IERC3156FlashBorrower",
          "name": "receiver",
          "type": "address"
        },
        {
          "internalType": "address",
          "name": "token",
          "type": "address"
        },
        {
          "internalType": "uint256",
          "name": "amount",
          "type": "uint256"
        },
        {
          "internalType": "bytes",
          "name": "data",
          "type": "bytes"
        }
      ],
      "name": "flashLoan",
      "outputs": [
        {
          "internalType": "bool",
          "name": "",
          "type": "bool"
        }
      ],
      "stateMutability": "nonpayable",
      "type": "function"
    },
    {
      "inputs": [
        {
          "internalType": "address",
          "name": "spender",
          "type": "address"
        },
        {
          "internalType": "uint256",
          "name": "addedValue",
          "type": "uint256"
        }
      ],
      "name": "increaseAllowance",
      "outputs": [
        {
          "internalType": "bool",
          "name": "",
          "type": "bool"
        }
      ],
      "stateMutability": "nonpayable",
      "type": "function"
    },
    {
      "inputs": [
        {
          "internalType": "address",
          "name": "token",
          "type": "address"
        }
      ],
      "name": "maxFlashFloan",
      "outputs": [
        {
          "internalType": "uint256",
          "name": "",
          "type": "uint256"
        }
      ],
      "stateMutability": "view",
      "type": "function"
    },
    {
      "inputs": [],
      "name": "name",
      "outputs": [
        {
          "internalType": "string",
          "name": "",
          "type": "string"
        }
      ],
      "stateMutability": "view",
      "type": "function"
    },
    {
      "inputs": [],
      "name": "symbol",
      "outputs": [
        {
          "internalType": "string",
          "name": "",
          "type": "string"
        }
      ],
      "stateMutability": "view",
      "type": "function"
    },
    {
      "inputs": [],
      "name": "totalSupply",
      "outputs": [
        {
          "internalType": "uint256",
          "name": "",
          "type": "uint256"
        }
      ],
      "stateMutability": "view",
      "type": "function"
    },
    {
      "inputs": [
        {
          "internalType": "address",
          "name": "to",
          "type": "address"
        },
        {
          "internalType": "uint256",
          "name": "amount",
          "type": "uint256"
        }
      ],
      "name": "transfer",
      "outputs": [
        {
          "internalType": "bool",
          "name": "",
          "type": "bool"
        }
      ],
      "stateMutability": "nonpayable",
      "type": "function"
    },
    {
      "inputs": [
        {
          "internalType": "address",
          "name": "from",
          "type": "address"
        },
        {
          "internalType": "address",
          "name": "to",
          "type": "address"
        },
        {
          "internalType": "uint256",
          "name": "amount",
          "type": "uint256"
        }
      ],
      "name": "transferFrom",
      "outputs": [
        {
          "internalType": "bool",
          "name": "",
          "type": "bool"
        }
      ],
      "stateMutability": "nonpayable",
      "type": "function"
    }
  ],
  "bytecode": "0x60806040523480156200001157600080fd5b506040516200242e3803806200242e833981810160405281019062000037919062000305565b82828160039080519060200190620000519291906200007d565b5080600490805190602001906200006a9291906200007d565b5050508060058190555050505062000404565b8280546200008b90620003ce565b90600052602060002090601f016020900481019282620000af5760008555620000fb565b82601f10620000ca57805160ff1916838001178555620000fb565b82800160010185558215620000fb579182015b82811115620000fa578251825591602001919060010190620000dd565b5b5090506200010a91906200010e565b5090565b5b80821115620001295760008160009055506001016200010f565b5090565b6000604051905090565b600080fd5b600080fd5b600080fd5b600080fd5b6000601f19601f8301169050919050565b7f4e487b7100000000000000000000000000000000000000000000000000000000600052604160045260246000fd5b62000196826200014b565b810181811067ffffffffffffffff82111715620001b857620001b76200015c565b5b80604052505050565b6000620001cd6200012d565b9050620001db82826200018b565b919050565b600067ffffffffffffffff821115620001fe57620001fd6200015c565b5b62000209826200014b565b9050602081019050919050565b60005b838110156200023657808201518184015260208101905062000219565b8381111562000246576000848401525b50505050565b6000620002636200025d84620001e0565b620001c1565b90508281526020810184848401111562000282576200028162000146565b5b6200028f84828562000216565b509392505050565b600082601f830112620002af57620002ae62000141565b5b8151620002c18482602086016200024c565b91505092915050565b6000819050919050565b620002df81620002ca565b8114620002eb57600080fd5b50565b600081519050620002ff81620002d4565b92915050565b60008060006060848603121562000321576200032062000137565b5b600084015167ffffffffffffffff8111156200034257620003416200013c565b5b620003508682870162000297565b935050602084015167ffffffffffffffff8111156200037457620003736200013c565b5b620003828682870162000297565b92505060406200039586828701620002ee565b9150509250925092565b7f4e487b7100000000000000000000000000000000000000000000000000000000600052602260045260246000fd5b60006002820490506001821680620003e757607f821691505b60208210811415620003fe57620003fd6200039f565b5b50919050565b61201a80620004146000396000f3fe608060405234801561001057600080fd5b50600436106101005760003560e01c80638237e53811610097578063a9059cbb11610066578063a9059cbb146102eb578063d9d98ce41461031b578063dd62ed3e1461034b578063ddca3f431461037b57610100565b80638237e5381461024f57806395d89b411461026d5780639e3fa57f1461028b578063a457c2d7146102bb57610100565b8063313ce567116100d3578063313ce567146101a157806339509351146101bf5780635cffe9de146101ef57806370a082311461021f57610100565b806306fdde0314610105578063095ea7b31461012357806318160ddd1461015357806323b872dd14610171575b600080fd5b61010d610399565b60405161011a91906112e3565b60405180910390f35b61013d600480360381019061013891906113a3565b61042b565b60405161014a91906113fe565b60405180910390f35b61015b61044e565b6040516101689190611428565b60405180910390f35b61018b60048036038101906101869190611443565b610458565b60405161019891906113fe565b60405180910390f35b6101a9610487565b6040516101b691906114b2565b60405180910390f35b6101d960048036038101906101d491906113a3565b610490565b6040516101e691906113fe565b60405180910390f35b61020960048036038101906102049190611570565b6104c7565b60405161021691906113fe565b60405180910390f35b610239600480360381019061023491906115f8565b6106e6565b6040516102469190611428565b60405180910390f35b61025761072e565b604051610264919061163e565b60405180910390f35b610275610752565b60405161028291906112e3565b60405180910390f35b6102a560048036038101906102a091906115f8565b6107e4565b6040516102b29190611428565b60405180910390f35b6102d560048036038101906102d091906113a3565b61085b565b6040516102e291906113fe565b60405180910390f35b610305600480360381019061030091906113a3565b6108d2565b60405161031291906113fe565b60405180910390f35b610335600480360381019061033091906113a3565b6108f5565b6040516103429190611428565b60405180910390f35b61036560048036038101906103609190611659565b610977565b6040516103729190611428565b60405180910390f35b6103836109fe565b6040516103909190611428565b60405180910390f35b6060600380546103a8906116c8565b80601f01602080910402602001604051908101604052809291908181526020018280546103d4906116c8565b80156104215780601f106103f657610100808354040283529160200191610421565b820191906000526020600020905b81548152906001019060200180831161040457829003601f168201915b5050505050905090565b600080610436610a04565b9050610443818585610a0c565b600191505092915050565b6000600254905090565b600080610463610a04565b9050610470858285610bd7565b61047b858585610c63565b60019150509392505050565b60006012905090565b60008061049b610a04565b90506104bc8185856104ad8589610977565b6104b79190611729565b610a0c565b600191505092915050565b60003073ffffffffffffffffffffffffffffffffffffffff168573ffffffffffffffffffffffffffffffffffffffff1614610537576040517f08c379a000000000000000000000000000000000000000000000000000000000815260040161052e906117f1565b60405180910390fd5b60006105438686610ee4565b905061054f8786610f09565b7f439148f0bbc682ca079e46d6e2c2f0c1e3b820f1a291b069d8882abf8cf18dd98773ffffffffffffffffffffffffffffffffffffffff166323e30c8b338989868a8a6040518763ffffffff1660e01b81526004016105b39695949392919061186d565b602060405180830381600087803b1580156105cd57600080fd5b505af11580156105e1573d6000803e3d6000fd5b505050506040513d601f19601f8201168201806040525081019061060591906118f5565b14610645576040517f08c379a000000000000000000000000000000000000000000000000000000000815260040161063c9061196e565b60405180910390fd5b60006106518830610977565b9050818661065f9190611729565b8110156106a1576040517f08c379a00000000000000000000000000000000000000000000000000000000081526004016106989061196e565b60405180910390fd5b6106c2883084896106b29190611729565b846106bd919061198e565b610a0c565b6106d78883886106d29190611729565b611069565b60019250505095945050505050565b60008060008373ffffffffffffffffffffffffffffffffffffffff1673ffffffffffffffffffffffffffffffffffffffff168152602001908152602001600020549050919050565b7f439148f0bbc682ca079e46d6e2c2f0c1e3b820f1a291b069d8882abf8cf18dd981565b606060048054610761906116c8565b80601f016020809104026020016040519081016040528092919081815260200182805461078d906116c8565b80156107da5780601f106107af576101008083540402835291602001916107da565b820191906000526020600020905b8154815290600101906020018083116107bd57829003601f168201915b5050505050905090565b60003073ffffffffffffffffffffffffffffffffffffffff168273ffffffffffffffffffffffffffffffffffffffff1614610820576000610854565b61082861044e565b7fffffffffffffffffffffffffffffffffffffffffffffffffffffffffffffffff610853919061198e565b5b9050919050565b600080610866610a04565b905060006108748286610977565b9050838110156108b9576040517f08c379a00000000000000000000000000000000000000000000000000000000081526004016108b090611a34565b60405180910390fd5b6108c68286868403610a0c565b60019250505092915050565b6000806108dd610a04565b90506108ea818585610c63565b600191505092915050565b60003073ffffffffffffffffffffffffffffffffffffffff168373ffffffffffffffffffffffffffffffffffffffff1614610965576040517f08c379a000000000000000000000000000000000000000000000000000000000815260040161095c906117f1565b60405180910390fd5b61096f8383610ee4565b905092915050565b6000600160008473ffffffffffffffffffffffffffffffffffffffff1673ffffffffffffffffffffffffffffffffffffffff16815260200190815260200160002060008373ffffffffffffffffffffffffffffffffffffffff1673ffffffffffffffffffffffffffffffffffffffff16815260200190815260200160002054905092915050565b60055481565b600033905090565b600073ffffffffffffffffffffffffffffffffffffffff168373ffffffffffffffffffffffffffffffffffffffff161415610a7c576040517f08c379a0000000000000000000000000000000000000000000000000000000008152600401610a7390611ac6565b60405180910390fd5b600073ffffffffffffffffffffffffffffffffffffffff168273ffffffffffffffffffffffffffffffffffffffff161415610aec576040517f08c379a0000000000000000000000000000000000000000000000000000000008152600401610ae390611b58565b60405180910390fd5b80600160008573ffffffffffffffffffffffffffffffffffffffff1673ffffffffffffffffffffffffffffffffffffffff16815260200190815260200160002060008473ffffffffffffffffffffffffffffffffffffffff1673ffffffffffffffffffffffffffffffffffffffff168152602001908152602001600020819055508173ffffffffffffffffffffffffffffffffffffffff168373ffffffffffffffffffffffffffffffffffffffff167f8c5be1e5ebec7d5bd14f71427d1e84f3dd0314c0f7b2291e5b200ac8c7c3b92583604051610bca9190611428565b60405180910390a3505050565b6000610be38484610977565b90507fffffffffffffffffffffffffffffffffffffffffffffffffffffffffffffffff8114610c5d5781811015610c4f576040517f08c379a0000000000000000000000000000000000000000000000000000000008152600401610c4690611bc4565b60405180910390fd5b610c5c8484848403610a0c565b5b50505050565b600073ffffffffffffffffffffffffffffffffffffffff168373ffffffffffffffffffffffffffffffffffffffff161415610cd3576040517f08c379a0000000000000000000000000000000000000000000000000000000008152600401610cca90611c56565b60405180910390fd5b600073ffffffffffffffffffffffffffffffffffffffff168273ffffffffffffffffffffffffffffffffffffffff161415610d43576040517f08c379a0000000000000000000000000000000000000000000000000000000008152600401610d3a90611ce8565b60405180910390fd5b610d4e838383611240565b60008060008573ffffffffffffffffffffffffffffffffffffffff1673ffffffffffffffffffffffffffffffffffffffff16815260200190815260200160002054905081811015610dd4576040517f08c379a0000000000000000000000000000000000000000000000000000000008152600401610dcb90611d7a565b60405180910390fd5b8181036000808673ffffffffffffffffffffffffffffffffffffffff1673ffffffffffffffffffffffffffffffffffffffff16815260200190815260200160002081905550816000808573ffffffffffffffffffffffffffffffffffffffff1673ffffffffffffffffffffffffffffffffffffffff1681526020019081526020016000206000828254610e679190611729565b925050819055508273ffffffffffffffffffffffffffffffffffffffff168473ffffffffffffffffffffffffffffffffffffffff167fddf252ad1be2c89b69c2b068fc378daa952ba7f163c4a11628f55a4df523b3ef84604051610ecb9190611428565b60405180910390a3610ede848484611245565b50505050565b600061271060055483610ef79190611d9a565b610f019190611e23565b905092915050565b600073ffffffffffffffffffffffffffffffffffffffff168273ffffffffffffffffffffffffffffffffffffffff161415610f79576040517f08c379a0000000000000000000000000000000000000000000000000000000008152600401610f7090611ea0565b60405180910390fd5b610f8560008383611240565b8060026000828254610f979190611729565b92505081905550806000808473ffffffffffffffffffffffffffffffffffffffff1673ffffffffffffffffffffffffffffffffffffffff1681526020019081526020016000206000828254610fec9190611729565b925050819055508173ffffffffffffffffffffffffffffffffffffffff16600073ffffffffffffffffffffffffffffffffffffffff167fddf252ad1be2c89b69c2b068fc378daa952ba7f163c4a11628f55a4df523b3ef836040516110519190611428565b60405180910390a361106560008383611245565b5050565b600073ffffffffffffffffffffffffffffffffffffffff168273ffffffffffffffffffffffffffffffffffffffff1614156110d9576040517f08c379a00000000000000000000000000000000000000000000000000000000081526004016110d090611f32565b60405180910390fd5b6110e582600083611240565b60008060008473ffffffffffffffffffffffffffffffffffffffff1673ffffffffffffffffffffffffffffffffffffffff1681526020019081526020016000205490508181101561116b576040517f08c379a000000000000000000000000000000000000000000000000000000000815260040161116290611fc4565b60405180910390fd5b8181036000808573ffffffffffffffffffffffffffffffffffffffff1673ffffffffffffffffffffffffffffffffffffffff1681526020019081526020016000208190555081600260008282546111c2919061198e565b92505081905550600073ffffffffffffffffffffffffffffffffffffffff168373ffffffffffffffffffffffffffffffffffffffff167fddf252ad1be2c89b69c2b068fc378daa952ba7f163c4a11628f55a4df523b3ef846040516112279190611428565b60405180910390a361123b83600084611245565b505050565b505050565b505050565b600081519050919050565b600082825260208201905092915050565b60005b83811015611284578082015181840152602081019050611269565b83811115611293576000848401525b50505050565b6000601f19601f8301169050919050565b60006112b58261124a565b6112bf8185611255565b93506112cf818560208601611266565b6112d881611299565b840191505092915050565b600060208201905081810360008301526112fd81846112aa565b905092915050565b600080fd5b600080fd5b600073ffffffffffffffffffffffffffffffffffffffff82169050919050565b600061133a8261130f565b9050919050565b61134a8161132f565b811461135557600080fd5b50565b60008135905061136781611341565b92915050565b6000819050919050565b6113808161136d565b811461138b57600080fd5b50565b60008135905061139d81611377565b92915050565b600080604083850312156113ba576113b9611305565b5b60006113c885828601611358565b92505060206113d98582860161138e565b9150509250929050565b60008115159050919050565b6113f8816113e3565b82525050565b600060208201905061141360008301846113ef565b92915050565b6114228161136d565b82525050565b600060208201905061143d6000830184611419565b92915050565b60008060006060848603121561145c5761145b611305565b5b600061146a86828701611358565b935050602061147b86828701611358565b925050604061148c8682870161138e565b9150509250925092565b600060ff82169050919050565b6114ac81611496565b82525050565b60006020820190506114c760008301846114a3565b92915050565b60006114d88261132f565b9050919050565b6114e8816114cd565b81146114f357600080fd5b50565b600081359050611505816114df565b92915050565b600080fd5b600080fd5b600080fd5b60008083601f8401126115305761152f61150b565b5b8235905067ffffffffffffffff81111561154d5761154c611510565b5b60208301915083600182028301111561156957611568611515565b5b9250929050565b60008060008060006080868803121561158c5761158b611305565b5b600061159a888289016114f6565b95505060206115ab88828901611358565b94505060406115bc8882890161138e565b935050606086013567ffffffffffffffff8111156115dd576115dc61130a565b5b6115e98882890161151a565b92509250509295509295909350565b60006020828403121561160e5761160d611305565b5b600061161c84828501611358565b91505092915050565b6000819050919050565b61163881611625565b82525050565b6000602082019050611653600083018461162f565b92915050565b600080604083850312156116705761166f611305565b5b600061167e85828601611358565b925050602061168f85828601611358565b9150509250929050565b7f4e487b7100000000000000000000000000000000000000000000000000000000600052602260045260246000fd5b600060028204905060018216806116e057607f821691505b602082108114156116f4576116f3611699565b5b50919050565b7f4e487b7100000000000000000000000000000000000000000000000000000000600052601160045260246000fd5b60006117348261136d565b915061173f8361136d565b9250827fffffffffffffffffffffffffffffffffffffffffffffffffffffffffffffffff03821115611774576117736116fa565b5b828201905092915050565b7f466c6173684d696e7465723a20556e737570706f727465642063757272656e6360008201527f7900000000000000000000000000000000000000000000000000000000000000602082015250565b60006117db602183611255565b91506117e68261177f565b604082019050919050565b6000602082019050818103600083015261180a816117ce565b9050919050565b61181a8161132f565b82525050565b600082825260208201905092915050565b82818337600083830152505050565b600061184c8385611820565b9350611859838584611831565b61186283611299565b840190509392505050565b600060a0820190506118826000830189611811565b61188f6020830188611811565b61189c6040830187611419565b6118a96060830186611419565b81810360808301526118bc818486611840565b9050979650505050505050565b6118d281611625565b81146118dd57600080fd5b50565b6000815190506118ef816118c9565b92915050565b60006020828403121561190b5761190a611305565b5b6000611919848285016118e0565b91505092915050565b7f466c6173684d696e7465723a205265706179206e6f7420617070726f76656400600082015250565b6000611958601f83611255565b915061196382611922565b602082019050919050565b600060208201905081810360008301526119878161194b565b9050919050565b60006119998261136d565b91506119a48361136d565b9250828210156119b7576119b66116fa565b5b828203905092915050565b7f45524332303a2064656372656173656420616c6c6f77616e63652062656c6f7760008201527f207a65726f000000000000000000000000000000000000000000000000000000602082015250565b6000611a1e602583611255565b9150611a29826119c2565b604082019050919050565b60006020820190508181036000830152611a4d81611a11565b9050919050565b7f45524332303a20617070726f76652066726f6d20746865207a65726f2061646460008201527f7265737300000000000000000000000000000000000000000000000000000000602082015250565b6000611ab0602483611255565b9150611abb82611a54565b604082019050919050565b60006020820190508181036000830152611adf81611aa3565b9050919050565b7f45524332303a20617070726f766520746f20746865207a65726f20616464726560008201527f7373000000000000000000000000000000000000000000000000000000000000602082015250565b6000611b42602283611255565b9150611b4d82611ae6565b604082019050919050565b60006020820190508181036000830152611b7181611b35565b9050919050565b7f45524332303a20696e73756666696369656e7420616c6c6f77616e6365000000600082015250565b6000611bae601d83611255565b9150611bb982611b78565b602082019050919050565b60006020820190508181036000830152611bdd81611ba1565b9050919050565b7f45524332303a207472616e736665722066726f6d20746865207a65726f20616460008201527f6472657373000000000000000000000000000000000000000000000000000000602082015250565b6000611c40602583611255565b9150611c4b82611be4565b604082019050919050565b60006020820190508181036000830152611c6f81611c33565b9050919050565b7f45524332303a207472616e7366657220746f20746865207a65726f206164647260008201527f6573730000000000000000000000000000000000000000000000000000000000602082015250565b6000611cd2602383611255565b9150611cdd82611c76565b604082019050919050565b60006020820190508181036000830152611d0181611cc5565b9050919050565b7f45524332303a207472616e7366657220616d6f756e742065786365656473206260008201527f616c616e63650000000000000000000000000000000000000000000000000000602082015250565b6000611d64602683611255565b9150611d6f82611d08565b604082019050919050565b60006020820190508181036000830152611d9381611d57565b9050919050565b6000611da58261136d565b9150611db08361136d565b9250817fffffffffffffffffffffffffffffffffffffffffffffffffffffffffffffffff0483118215151615611de957611de86116fa565b5b828202905092915050565b7f4e487b7100000000000000000000000000000000000000000000000000000000600052601260045260246000fd5b6000611e2e8261136d565b9150611e398361136d565b925082611e4957611e48611df4565b5b828204905092915050565b7f45524332303a206d696e7420746f20746865207a65726f206164647265737300600082015250565b6000611e8a601f83611255565b9150611e9582611e54565b602082019050919050565b60006020820190508181036000830152611eb981611e7d565b9050919050565b7f45524332303a206275726e2066726f6d20746865207a65726f2061646472657360008201527f7300000000000000000000000000000000000000000000000000000000000000602082015250565b6000611f1c602183611255565b9150611f2782611ec0565b604082019050919050565b60006020820190508181036000830152611f4b81611f0f565b9050919050565b7f45524332303a206275726e20616d6f756e7420657863656564732062616c616e60008201527f6365000000000000000000000000000000000000000000000000000000000000602082015250565b6000611fae602283611255565b9150611fb982611f52565b604082019050919050565b60006020820190508181036000830152611fdd81611fa1565b905091905056fea2646970667358221220627a8b34eaadf3e822de030734550b687aa8991c2f8c8c4cbce04becc599581864736f6c63430008090033",
  "linkReferences": {},
  "deployedLinkReferences": {}
}