{
  "_format": "hh-sol-artifact-1",
  "contractName": "SolidityOperatorExample",
  "sourceName": "contracts/getting_started_with_solidity/01_data_types/02_SolidityOperatorExample.sol",
  "abi": [
    {
      "inputs": [],
      "name": "getResults",
      "outputs": [],
      "stateMutability": "nonpayable",
      "type": "function"
    },
    {
      "inputs": [],
      "name": "variable_add",
      "outputs": [
        {
          "internalType": "uint256",
          "name": "",
          "type": "uint256"
        }
      ],
      "stateMutability": "view",
      "type": "function"
    },
    {
      "inputs": [],
      "name": "variable_div",
      "outputs": [
        {
          "internalType": "uint256",
          "name": "",
          "type": "uint256"
        }
      ],
      "stateMutability": "view",
      "type": "function"
    },
    {
      "inputs": [],
      "name": "variable_mod",
      "outputs": [
        {
          "internalType": "uint256",
          "name": "",
          "type": "uint256"
        }
      ],
      "stateMutability": "view",
      "type": "function"
    },
    {
      "inputs": [],
      "name": "variable_mul",
      "outputs": [
        {
          "internalType": "uint256",
          "name": "",
          "type": "uint256"
        }
      ],
      "stateMutability": "view",
      "type": "function"
    },
    {
      "inputs": [],
      "name": "variable_sub",
      "outputs": [
        {
          "internalType": "uint256",
          "name": "",
          "type": "uint256"
        }
      ],
      "stateMutability": "view",
      "type": "function"
    }
  ],
  "bytecode": "0x60806040526046600055603260015560196002556050600355604460045534801561002957600080fd5b506103b6806100396000396000f3fe608060405234801561001057600080fd5b50600436106100625760003560e01c806329c22e12146100675780634717f97c1461008557806362a291a31461008f578063d3f3272e146100ad578063d83e7435146100cb578063dbc01f31146100e9575b600080fd5b61006f610107565b60405161007c91906101c1565b60405180910390f35b61008d61010d565b005b610097610190565b6040516100a491906101c1565b60405180910390f35b6100b5610196565b6040516100c291906101c1565b60405180910390f35b6100d361019c565b6040516100e091906101c1565b60405180910390f35b6100f16101a2565b6040516100fe91906101c1565b60405180910390f35b60005481565b601960008082825461011f919061020b565b92505081905550601e600160008282546101399190610261565b925050819055506019600260008282546101539190610295565b9250508190555060056003600082825461016d919061031e565b92505081905550603c60046000828254610187919061034f565b92505081905550565b60015481565b60035481565b60025481565b60045481565b6000819050919050565b6101bb816101a8565b82525050565b60006020820190506101d660008301846101b2565b92915050565b7f4e487b7100000000000000000000000000000000000000000000000000000000600052601160045260246000fd5b6000610216826101a8565b9150610221836101a8565b9250827fffffffffffffffffffffffffffffffffffffffffffffffffffffffffffffffff03821115610256576102556101dc565b5b828201905092915050565b600061026c826101a8565b9150610277836101a8565b92508282101561028a576102896101dc565b5b828203905092915050565b60006102a0826101a8565b91506102ab836101a8565b9250817fffffffffffffffffffffffffffffffffffffffffffffffffffffffffffffffff04831182151516156102e4576102e36101dc565b5b828202905092915050565b7f4e487b7100000000000000000000000000000000000000000000000000000000600052601260045260246000fd5b6000610329826101a8565b9150610334836101a8565b925082610344576103436102ef565b5b828204905092915050565b600061035a826101a8565b9150610365836101a8565b925082610375576103746102ef565b5b82820690509291505056fea2646970667358221220ef6d95a797debbdd119403dd76af0de7319a2d550fb95525196bb43d4e14666364736f6c63430008090033",
  "linkReferences": {},
  "deployedLinkReferences": {}
}