{
  "_format": "hh-sol-artifact-1",
  "contractName": "MyContract",
  "sourceName": "contracts/getting_started_with_solidity/20_memory_and_storage/MyContract.sol",
  "abi": [
    {
      "inputs": [
        {
          "internalType": "string",
          "name": "_firstName",
          "type": "string"
        },
        {
          "internalType": "string",
          "name": "_lastName",
          "type": "string"
        }
      ],
      "stateMutability": "nonpayable",
      "type": "constructor"
    },
    {
      "inputs": [],
      "name": "fullname",
      "outputs": [
        {
          "internalType": "string",
          "name": "",
          "type": "string"
        }
      ],
      "stateMutability": "view",
      "type": "function"
    }
  ],
  "bytecode": "0x608060405234801561001057600080fd5b5060405161065538038061065583398181016040528101906100329190610288565b8160009080519060200190610048929190610067565b50806001908051906020019061005f929190610067565b505050610361565b8280546100739061032f565b90600052602060002090601f01602090048101928261009557600085556100dc565b82601f106100ae57805160ff19168380011785556100dc565b828001600101855582156100dc579182015b828111156100db5782518255916020019190600101906100c0565b5b5090506100e991906100ed565b5090565b5b808211156101065760008160009055506001016100ee565b5090565b6000604051905090565b600080fd5b600080fd5b600080fd5b600080fd5b6000601f19601f8301169050919050565b7f4e487b7100000000000000000000000000000000000000000000000000000000600052604160045260246000fd5b61017182610128565b810181811067ffffffffffffffff821117156101905761018f610139565b5b80604052505050565b60006101a361010a565b90506101af8282610168565b919050565b600067ffffffffffffffff8211156101cf576101ce610139565b5b6101d882610128565b9050602081019050919050565b60005b838110156102035780820151818401526020810190506101e8565b83811115610212576000848401525b50505050565b600061022b610226846101b4565b610199565b90508281526020810184848401111561024757610246610123565b5b6102528482856101e5565b509392505050565b600082601f83011261026f5761026e61011e565b5b815161027f848260208601610218565b91505092915050565b6000806040838503121561029f5761029e610114565b5b600083015167ffffffffffffffff8111156102bd576102bc610119565b5b6102c98582860161025a565b925050602083015167ffffffffffffffff8111156102ea576102e9610119565b5b6102f68582860161025a565b9150509250929050565b7f4e487b7100000000000000000000000000000000000000000000000000000000600052602260045260246000fd5b6000600282049050600182168061034757607f821691505b6020821081141561035b5761035a610300565b5b50919050565b6102e5806103706000396000f3fe608060405234801561001057600080fd5b506004361061002b5760003560e01c80638ef490ea14610030575b600080fd5b61003861004e565b6040516100459190610112565b60405180910390f35b606060016000604051602001610065929190610280565b604051602081830303815290604052905090565b600081519050919050565b600082825260208201905092915050565b60005b838110156100b3578082015181840152602081019050610098565b838111156100c2576000848401525b50505050565b6000601f19601f8301169050919050565b60006100e482610079565b6100ee8185610084565b93506100fe818560208601610095565b610107816100c8565b840191505092915050565b6000602082019050818103600083015261012c81846100d9565b905092915050565b7f4e487b7100000000000000000000000000000000000000000000000000000000600052602260045260246000fd5b6000600282049050600182168061017b57607f821691505b6020821081141561018f5761018e610134565b5b50919050565b600081905092915050565b60008190508160005260206000209050919050565b600081546101c281610163565b6101cc8186610195565b945060018216600081146101e757600181146101f85761022b565b60ff1983168652818601935061022b565b610201856101a0565b60005b8381101561022357815481890152600182019150602081019050610204565b838801955050505b50505092915050565b7f2000000000000000000000000000000000000000000000000000000000000000600082015250565b600061026a600183610195565b915061027582610234565b600182019050919050565b600061028c82856101b5565b91506102978261025d565b91506102a382846101b5565b9150819050939250505056fea2646970667358221220296530732b73aa2c7eed77aad668ad43042c92e2b26699deb17ac65d540f9ab664736f6c63430008090033",
  "linkReferences": {},
  "deployedLinkReferences": {}
}