{
  "_format": "hh-sol-artifact-1",
  "contractName": "Timelock",
  "sourceName": "contracts/sample_apps/04_time_lock/Timelock.sol",
  "abi": [
    {
      "inputs": [
        {
          "internalType": "address",
          "name": "",
          "type": "address"
        }
      ],
      "name": "balances",
      "outputs": [
        {
          "internalType": "uint256",
          "name": "",
          "type": "uint256"
        }
      ],
      "stateMutability": "view",
      "type": "function"
    },
    {
      "inputs": [],
      "name": "deposit",
      "outputs": [],
      "stateMutability": "payable",
      "type": "function"
    },
    {
      "inputs": [
        {
          "internalType": "uint256",
          "name": "_secondsToIncrease",
          "type": "uint256"
        }
      ],
      "name": "increaseLockTime",
      "outputs": [],
      "stateMutability": "nonpayable",
      "type": "function"
    },
    {
      "inputs": [
        {
          "internalType": "address",
          "name": "",
          "type": "address"
        }
      ],
      "name": "lockTime",
      "outputs": [
        {
          "internalType": "uint256",
          "name": "",
          "type": "uint256"
        }
      ],
      "stateMutability": "view",
      "type": "function"
    },
    {
      "inputs": [],
      "name": "withdraw",
      "outputs": [],
      "stateMutability": "nonpayable",
      "type": "function"
    }
  ],
  "bytecode": "0x608060405234801561001057600080fd5b50610846806100206000396000f3fe60806040526004361061004a5760003560e01c806327e235e31461004f5780633ccfd60b1461008c57806379af55e4146100a3578063a4beda63146100cc578063d0e30db014610109575b600080fd5b34801561005b57600080fd5b5061007660048036038101906100719190610536565b610113565b604051610083919061057c565b60405180910390f35b34801561009857600080fd5b506100a161012b565b005b3480156100af57600080fd5b506100ca60048036038101906100c591906105c3565b610364565b005b3480156100d857600080fd5b506100f360048036038101906100ee9190610536565b6103fc565b604051610100919061057c565b60405180910390f35b610111610414565b005b60006020528060005260406000206000915090505481565b60008060003373ffffffffffffffffffffffffffffffffffffffff1673ffffffffffffffffffffffffffffffffffffffff16815260200190815260200160002054116101ac576040517f08c379a00000000000000000000000000000000000000000000000000000000081526004016101a39061064d565b60405180910390fd5b600160003373ffffffffffffffffffffffffffffffffffffffff1673ffffffffffffffffffffffffffffffffffffffff16815260200190815260200160002054421161022d576040517f08c379a0000000000000000000000000000000000000000000000000000000008152600401610224906106b9565b60405180910390fd5b60008060003373ffffffffffffffffffffffffffffffffffffffff1673ffffffffffffffffffffffffffffffffffffffff16815260200190815260200160002054905060008060003373ffffffffffffffffffffffffffffffffffffffff1673ffffffffffffffffffffffffffffffffffffffff1681526020019081526020016000208190555060003373ffffffffffffffffffffffffffffffffffffffff16826040516102da9061070a565b60006040518083038185875af1925050503d8060008114610317576040519150601f19603f3d011682016040523d82523d6000602084013e61031c565b606091505b5050905080610360576040517f08c379a00000000000000000000000000000000000000000000000000000000081526004016103579061076b565b60405180910390fd5b5050565b6103b681600160003373ffffffffffffffffffffffffffffffffffffffff1673ffffffffffffffffffffffffffffffffffffffff168152602001908152602001600020546104bd90919063ffffffff16565b600160003373ffffffffffffffffffffffffffffffffffffffff1673ffffffffffffffffffffffffffffffffffffffff1681526020019081526020016000208190555050565b60016020528060005260406000206000915090505481565b346000803373ffffffffffffffffffffffffffffffffffffffff1673ffffffffffffffffffffffffffffffffffffffff168152602001908152602001600020600082825461046291906107ba565b9250508190555062093a804261047891906107ba565b600160003373ffffffffffffffffffffffffffffffffffffffff1673ffffffffffffffffffffffffffffffffffffffff16815260200190815260200160002081905550565b600081836104cb91906107ba565b905092915050565b600080fd5b600073ffffffffffffffffffffffffffffffffffffffff82169050919050565b6000610503826104d8565b9050919050565b610513816104f8565b811461051e57600080fd5b50565b6000813590506105308161050a565b92915050565b60006020828403121561054c5761054b6104d3565b5b600061055a84828501610521565b91505092915050565b6000819050919050565b61057681610563565b82525050565b6000602082019050610591600083018461056d565b92915050565b6105a081610563565b81146105ab57600080fd5b50565b6000813590506105bd81610597565b92915050565b6000602082840312156105d9576105d86104d3565b5b60006105e7848285016105ae565b91505092915050565b600082825260208201905092915050565b7f696e73756666696369656e742066756e64730000000000000000000000000000600082015250565b60006106376012836105f0565b915061064282610601565b602082019050919050565b600060208201905081810360008301526106668161062a565b9050919050565b7f6c6f636b2074696d6520686173206e6f74206578706972656400000000000000600082015250565b60006106a36019836105f0565b91506106ae8261066d565b602082019050919050565b600060208201905081810360008301526106d281610696565b9050919050565b600081905092915050565b50565b60006106f46000836106d9565b91506106ff826106e4565b600082019050919050565b6000610715826106e7565b9150819050919050565b7f4661696c656420746f2073656e64206574686572000000000000000000000000600082015250565b60006107556014836105f0565b91506107608261071f565b602082019050919050565b6000602082019050818103600083015261078481610748565b9050919050565b7f4e487b7100000000000000000000000000000000000000000000000000000000600052601160045260246000fd5b60006107c582610563565b91506107d083610563565b9250827fffffffffffffffffffffffffffffffffffffffffffffffffffffffffffffffff038211156108055761080461078b565b5b82820190509291505056fea2646970667358221220686b53d09bd7eeea5150a1ae03e237ec39afccef400e21bd4c42f22427f6c4c864736f6c63430008090033",
  "linkReferences": {},
  "deployedLinkReferences": {}
}