{
  "_format": "hh-sol-artifact-1",
  "contractName": "SharedWallet",
  "sourceName": "contracts/sample_apps/06_shared_wallet/SharedWallet.sol",
  "abi": [
    {
      "inputs": [],
      "stateMutability": "nonpayable",
      "type": "constructor"
    },
    {
      "anonymous": false,
      "inputs": [
        {
          "indexed": false,
          "internalType": "address",
          "name": "from",
          "type": "address"
        },
        {
          "indexed": false,
          "internalType": "uint256",
          "name": "amount",
          "type": "uint256"
        }
      ],
      "name": "DepositFunds",
      "type": "event"
    },
    {
      "anonymous": false,
      "inputs": [
        {
          "indexed": false,
          "internalType": "address",
          "name": "from",
          "type": "address"
        },
        {
          "indexed": false,
          "internalType": "address",
          "name": "to",
          "type": "address"
        },
        {
          "indexed": false,
          "internalType": "uint256",
          "name": "amount",
          "type": "uint256"
        }
      ],
      "name": "TransferFunds",
      "type": "event"
    },
    {
      "anonymous": false,
      "inputs": [
        {
          "indexed": false,
          "internalType": "address",
          "name": "from",
          "type": "address"
        },
        {
          "indexed": false,
          "internalType": "uint256",
          "name": "amount",
          "type": "uint256"
        }
      ],
      "name": "WithdrawFunds",
      "type": "event"
    },
    {
      "inputs": [
        {
          "internalType": "address",
          "name": "owner",
          "type": "address"
        }
      ],
      "name": "addOwner",
      "outputs": [],
      "stateMutability": "nonpayable",
      "type": "function"
    },
    {
      "inputs": [
        {
          "internalType": "address",
          "name": "owner",
          "type": "address"
        }
      ],
      "name": "removeOwner",
      "outputs": [],
      "stateMutability": "nonpayable",
      "type": "function"
    },
    {
      "inputs": [
        {
          "internalType": "address payable",
          "name": "to",
          "type": "address"
        },
        {
          "internalType": "uint256",
          "name": "amount",
          "type": "uint256"
        }
      ],
      "name": "transferTo",
      "outputs": [],
      "stateMutability": "nonpayable",
      "type": "function"
    },
    {
      "inputs": [
        {
          "internalType": "uint256",
          "name": "amount",
          "type": "uint256"
        }
      ],
      "name": "withdraw",
      "outputs": [],
      "stateMutability": "nonpayable",
      "type": "function"
    },
    {
      "stateMutability": "payable",
      "type": "receive"
    }
  ],
  "bytecode": "0x608060405234801561001057600080fd5b50336000806101000a81548173ffffffffffffffffffffffffffffffffffffffff021916908373ffffffffffffffffffffffffffffffffffffffff160217905550610977806100606000396000f3fe6080604052600436106100435760003560e01c8063173825d9146100885780632ccb1b30146100b15780632e1a7d4d146100da5780637065cb481461010357610083565b36610083577fd241e73300212f6df233a8e6d3146b88a9d4964e06621d54b5ff6afeba7b1b88333460405161007992919061063e565b60405180910390a1005b600080fd5b34801561009457600080fd5b506100af60048036038101906100aa9190610698565b61012c565b005b3480156100bd57600080fd5b506100d860048036038101906100d3919061072f565b610215565b005b3480156100e657600080fd5b5061010160048036038101906100fc919061076f565b61038a565b005b34801561010f57600080fd5b5061012a60048036038101906101259190610698565b6104fc565b005b60008054906101000a900473ffffffffffffffffffffffffffffffffffffffff1673ffffffffffffffffffffffffffffffffffffffff163373ffffffffffffffffffffffffffffffffffffffff16146101ba576040517f08c379a00000000000000000000000000000000000000000000000000000000081526004016101b1906107f9565b60405180910390fd5b6000600160008373ffffffffffffffffffffffffffffffffffffffff1673ffffffffffffffffffffffffffffffffffffffff16815260200190815260200160002060006101000a81548160ff02191690831515021790555050565b60008054906101000a900473ffffffffffffffffffffffffffffffffffffffff1673ffffffffffffffffffffffffffffffffffffffff163373ffffffffffffffffffffffffffffffffffffffff1614806102b85750600160003373ffffffffffffffffffffffffffffffffffffffff1673ffffffffffffffffffffffffffffffffffffffff16815260200190815260200160002060009054906101000a900460ff165b6102f7576040517f08c379a00000000000000000000000000000000000000000000000000000000081526004016102ee9061088b565b60405180910390fd5b8047101561030457600080fd5b8173ffffffffffffffffffffffffffffffffffffffff166108fc829081150290604051600060405180830381858888f1935050505015801561034a573d6000803e3d6000fd5b507f5a0155838afb0f859197785e575b9ad1afeb456c6e522b6f632ee8465941315e33838360405161037e9392919061090a565b60405180910390a15050565b60008054906101000a900473ffffffffffffffffffffffffffffffffffffffff1673ffffffffffffffffffffffffffffffffffffffff163373ffffffffffffffffffffffffffffffffffffffff16148061042d5750600160003373ffffffffffffffffffffffffffffffffffffffff1673ffffffffffffffffffffffffffffffffffffffff16815260200190815260200160002060009054906101000a900460ff165b61046c576040517f08c379a00000000000000000000000000000000000000000000000000000000081526004016104639061088b565b60405180910390fd5b8047101561047957600080fd5b3373ffffffffffffffffffffffffffffffffffffffff166108fc829081150290604051600060405180830381858888f193505050501580156104bf573d6000803e3d6000fd5b507f21901fa892c430ea8bd38b9390225ac8e67eac75ee10ffba16feefc539a288f933826040516104f192919061063e565b60405180910390a150565b60008054906101000a900473ffffffffffffffffffffffffffffffffffffffff1673ffffffffffffffffffffffffffffffffffffffff163373ffffffffffffffffffffffffffffffffffffffff161461058a576040517f08c379a0000000000000000000000000000000000000000000000000000000008152600401610581906107f9565b60405180910390fd5b60018060008373ffffffffffffffffffffffffffffffffffffffff1673ffffffffffffffffffffffffffffffffffffffff16815260200190815260200160002060006101000a81548160ff02191690831515021790555050565b600073ffffffffffffffffffffffffffffffffffffffff82169050919050565b600061060f826105e4565b9050919050565b61061f81610604565b82525050565b6000819050919050565b61063881610625565b82525050565b60006040820190506106536000830185610616565b610660602083018461062f565b9392505050565b600080fd5b61067581610604565b811461068057600080fd5b50565b6000813590506106928161066c565b92915050565b6000602082840312156106ae576106ad610667565b5b60006106bc84828501610683565b91505092915050565b60006106d0826105e4565b9050919050565b6106e0816106c5565b81146106eb57600080fd5b50565b6000813590506106fd816106d7565b92915050565b61070c81610625565b811461071757600080fd5b50565b60008135905061072981610703565b92915050565b6000806040838503121561074657610745610667565b5b6000610754858286016106ee565b92505060206107658582860161071a565b9150509250929050565b60006020828403121561078557610784610667565b5b60006107938482850161071a565b91505092915050565b600082825260208201905092915050565b7f4e6f7420636f6e7472616374206f776e65720000000000000000000000000000600082015250565b60006107e360128361079c565b91506107ee826107ad565b602082019050919050565b60006020820190508181036000830152610812816107d6565b9050919050565b7f4e6f7420636f6e7472616374206f776e6572206f72206f776e657273206f662060008201527f7368617265642077616c6c657400000000000000000000000000000000000000602082015250565b6000610875602d8361079c565b915061088082610819565b604082019050919050565b600060208201905081810360008301526108a481610868565b9050919050565b6000819050919050565b60006108d06108cb6108c6846105e4565b6108ab565b6105e4565b9050919050565b60006108e2826108b5565b9050919050565b60006108f4826108d7565b9050919050565b610904816108e9565b82525050565b600060608201905061091f6000830186610616565b61092c60208301856108fb565b610939604083018461062f565b94935050505056fea26469706673582212208fc28f43f5dd8083c5de8c10297dc006ad8848d04da506b65a14c3ad46b062f464736f6c63430008090033",
  "linkReferences": {},
  "deployedLinkReferences": {}
}