{
  "_format": "hh-sol-artifact-1",
  "contractName": "EtherWallet",
  "sourceName": "contracts/solidity_by_examples/01_ether_wallet/EtherWallet.sol",
  "abi": [
    {
      "inputs": [],
      "stateMutability": "payable",
      "type": "constructor"
    },
    {
      "inputs": [],
      "name": "getBalance",
      "outputs": [
        {
          "internalType": "uint256",
          "name": "",
          "type": "uint256"
        }
      ],
      "stateMutability": "view",
      "type": "function"
    },
    {
      "inputs": [],
      "name": "owner",
      "outputs": [
        {
          "internalType": "address payable",
          "name": "",
          "type": "address"
        }
      ],
      "stateMutability": "view",
      "type": "function"
    },
    {
      "inputs": [
        {
          "internalType": "uint256",
          "name": "amount",
          "type": "uint256"
        }
      ],
      "name": "withdraw",
      "outputs": [],
      "stateMutability": "nonpayable",
      "type": "function"
    }
  ],
  "bytecode": "0x6080604052336000806101000a81548173ffffffffffffffffffffffffffffffffffffffff021916908373ffffffffffffffffffffffffffffffffffffffff160217905550610363806100536000396000f3fe608060405234801561001057600080fd5b50600436106100415760003560e01c806312065fe0146100465780632e1a7d4d146100645780638da5cb5b14610080575b600080fd5b61004e61009e565b60405161005b91906101db565b60405180910390f35b61007e60048036038101906100799190610227565b6100a6565b005b61008861019e565b6040516100959190610295565b60405180910390f35b600047905090565b60008054906101000a900473ffffffffffffffffffffffffffffffffffffffff1673ffffffffffffffffffffffffffffffffffffffff163373ffffffffffffffffffffffffffffffffffffffff1614610134576040517f08c379a000000000000000000000000000000000000000000000000000000000815260040161012b9061030d565b60405180910390fd5b60008054906101000a900473ffffffffffffffffffffffffffffffffffffffff1673ffffffffffffffffffffffffffffffffffffffff166108fc829081150290604051600060405180830381858888f1935050505015801561019a573d6000803e3d6000fd5b5050565b60008054906101000a900473ffffffffffffffffffffffffffffffffffffffff1681565b6000819050919050565b6101d5816101c2565b82525050565b60006020820190506101f060008301846101cc565b92915050565b600080fd5b610204816101c2565b811461020f57600080fd5b50565b600081359050610221816101fb565b92915050565b60006020828403121561023d5761023c6101f6565b5b600061024b84828501610212565b91505092915050565b600073ffffffffffffffffffffffffffffffffffffffff82169050919050565b600061027f82610254565b9050919050565b61028f81610274565b82525050565b60006020820190506102aa6000830184610286565b92915050565b600082825260208201905092915050565b7f63616c6c6572206973206e6f74206f776e657200000000000000000000000000600082015250565b60006102f76013836102b0565b9150610302826102c1565b602082019050919050565b60006020820190508181036000830152610326816102ea565b905091905056fea2646970667358221220835892faad8b604c6162268aa00eb29772e7c57035bbe9d5e527c19cc7c90c6764736f6c63430008090033",
  "linkReferences": {},
  "deployedLinkReferences": {}
}