{
  "_format": "hh-sol-artifact-1",
  "contractName": "RandomNumbers",
  "sourceName": "contracts/road_to_web3/week_03/RandomNumbers.sol",
  "abi": [
    {
      "inputs": [],
      "name": "getRandomNumber",
      "outputs": [
        {
          "internalType": "uint256",
          "name": "",
          "type": "uint256"
        }
      ],
      "stateMutability": "view",
      "type": "function"
    }
  ],
  "bytecode": "0x608060405234801561001057600080fd5b50610231806100206000396000f3fe608060405234801561001057600080fd5b506004361061002b5760003560e01c8063dbdff2c114610030575b600080fd5b61003861004e565b60405161004591906100a8565b60405180910390f35b6000600a4244336040516020016100679392919061015e565b6040516020818303038152906040528051906020012060001c61008a91906101ca565b905090565b6000819050919050565b6100a28161008f565b82525050565b60006020820190506100bd6000830184610099565b92915050565b6000819050919050565b6100de6100d98261008f565b6100c3565b82525050565b600073ffffffffffffffffffffffffffffffffffffffff82169050919050565b600061010f826100e4565b9050919050565b60008160601b9050919050565b600061012e82610116565b9050919050565b600061014082610123565b9050919050565b61015861015382610104565b610135565b82525050565b600061016a82866100cd565b60208201915061017a82856100cd565b60208201915061018a8284610147565b601482019150819050949350505050565b7f4e487b7100000000000000000000000000000000000000000000000000000000600052601260045260246000fd5b60006101d58261008f565b91506101e08361008f565b9250826101f0576101ef61019b565b5b82820690509291505056fea264697066735822122080e50f129c4cc303d11cc93abceec4cb35b79cae1d5e19dc11901fa60b744f8364736f6c63430008090033",
  "linkReferences": {},
  "deployedLinkReferences": {}
}