{
  "_format": "hh-sol-artifact-1",
  "contractName": "MyContract",
  "sourceName": "contracts/getting_started_with_solidity/23_libraries/MyContract.sol",
  "abi": [
    {
      "inputs": [
        {
          "internalType": "uint256",
          "name": "a",
          "type": "uint256"
        },
        {
          "internalType": "uint256",
          "name": "b",
          "type": "uint256"
        }
      ],
      "name": "callLibrary",
      "outputs": [
        {
          "internalType": "uint256",
          "name": "",
          "type": "uint256"
        },
        {
          "internalType": "address",
          "name": "",
          "type": "address"
        }
      ],
      "stateMutability": "view",
      "type": "function"
    },
    {
      "inputs": [
        {
          "internalType": "uint256",
          "name": "a",
          "type": "uint256"
        },
        {
          "internalType": "uint256",
          "name": "b",
          "type": "uint256"
        }
      ],
      "name": "callLibrary2",
      "outputs": [
        {
          "internalType": "uint256",
          "name": "",
          "type": "uint256"
        },
        {
          "internalType": "address",
          "name": "",
          "type": "address"
        }
      ],
      "stateMutability": "view",
      "type": "function"
    }
  ],
  "bytecode": "0x6080604052306000806101000a81548173ffffffffffffffffffffffffffffffffffffffff021916908373ffffffffffffffffffffffffffffffffffffffff16021790555034801561005057600080fd5b506103db806100606000396000f3fe608060405234801561001057600080fd5b50600436106100365760003560e01c80632a5157881461003b5780633969726d1461006c575b600080fd5b610055600480360381019061005091906101aa565b61009d565b60405161006392919061023a565b60405180910390f35b610086600480360381019061008191906101aa565b6100be565b60405161009492919061023a565b60405180910390f35b6000806100b3838561015490919063ffffffff16565b915091509250929050565b60008073__$bb397b31c686e359812afb2c565ede6bb0$__63165c4a1685856040518363ffffffff1660e01b81526004016100fa929190610272565b604080518083038186803b15801561011157600080fd5b505af4158015610125573d6000803e3d6000fd5b505050506040513d601f19601f8201168201806040525081019061014991906102dc565b915091509250929050565b6000808284610163919061034b565b30915091509250929050565b600080fd5b6000819050919050565b61018781610174565b811461019257600080fd5b50565b6000813590506101a48161017e565b92915050565b600080604083850312156101c1576101c061016f565b5b60006101cf85828601610195565b92505060206101e085828601610195565b9150509250929050565b6101f381610174565b82525050565b600073ffffffffffffffffffffffffffffffffffffffff82169050919050565b6000610224826101f9565b9050919050565b61023481610219565b82525050565b600060408201905061024f60008301856101ea565b61025c602083018461022b565b9392505050565b61026c81610174565b82525050565b60006040820190506102876000830185610263565b6102946020830184610263565b9392505050565b6000815190506102aa8161017e565b92915050565b6102b981610219565b81146102c457600080fd5b50565b6000815190506102d6816102b0565b92915050565b600080604083850312156102f3576102f261016f565b5b60006103018582860161029b565b9250506020610312858286016102c7565b9150509250929050565b7f4e487b7100000000000000000000000000000000000000000000000000000000600052601160045260246000fd5b600061035682610174565b915061036183610174565b9250817fffffffffffffffffffffffffffffffffffffffffffffffffffffffffffffffff048311821515161561039a5761039961031c565b5b82820290509291505056fea26469706673582212205d7ddad5f1c3cab530b6513ad15314b35256dbd6643d013641acac7805ac3f3264736f6c63430008090033",
  "linkReferences": {
    "contracts/getting_started_with_solidity/23_libraries/MathLibrary.sol": {
      "MathLibrary": [
        {
          "length": 20,
          "start": 291
        }
      ]
    }
  },
  "deployedLinkReferences": {
    "contracts/getting_started_with_solidity/23_libraries/MathLibrary.sol": {
      "MathLibrary": [
        {
          "length": 20,
          "start": 195
        }
      ]
    }
  }
}