{
  "_format": "hh-sol-artifact-1",
  "contractName": "MyContract",
  "sourceName": "contracts/getting_started_with_solidity/10_error_handling/MyContract.sol",
  "abi": [
    {
      "inputs": [],
      "name": "balance",
      "outputs": [
        {
          "internalType": "uint256",
          "name": "",
          "type": "uint256"
        }
      ],
      "stateMutability": "view",
      "type": "function"
    },
    {
      "inputs": [
        {
          "internalType": "uint256",
          "name": "amount",
          "type": "uint256"
        }
      ],
      "name": "deposit",
      "outputs": [],
      "stateMutability": "nonpayable",
      "type": "function"
    }
  ],
  "bytecode": "0x608060405234801561001057600080fd5b506103b0806100206000396000f3fe608060405234801561001057600080fd5b50600436106100365760003560e01c8063b69ef8a81461003b578063b6b55f2514610059575b600080fd5b610043610075565b6040516100509190610164565b60405180910390f35b610073600480360381019061006e91906101b0565b61007b565b005b60005481565b600080549050600082600054610091919061020c565b9050818110156100d6576040517f08c379a00000000000000000000000000000000000000000000000000000000081526004016100cd906102bf565b60405180910390fd5b826000808282546100e7919061020c565b92505081905550826000541015610101576101006102df565b5b826000541015610146576040517f08c379a000000000000000000000000000000000000000000000000000000000815260040161013d9061035a565b60405180910390fd5b505050565b6000819050919050565b61015e8161014b565b82525050565b60006020820190506101796000830184610155565b92915050565b600080fd5b61018d8161014b565b811461019857600080fd5b50565b6000813590506101aa81610184565b92915050565b6000602082840312156101c6576101c561017f565b5b60006101d48482850161019b565b91505092915050565b7f4e487b7100000000000000000000000000000000000000000000000000000000600052601160045260246000fd5b60006102178261014b565b91506102228361014b565b9250827fffffffffffffffffffffffffffffffffffffffffffffffffffffffffffffffff03821115610257576102566101dd565b5b828201905092915050565b600082825260208201905092915050565b7f4f766572666c6f77000000000000000000000000000000000000000000000000600082015250565b60006102a9600883610262565b91506102b482610273565b602082019050919050565b600060208201905081810360008301526102d88161029c565b9050919050565b7f4e487b7100000000000000000000000000000000000000000000000000000000600052600160045260246000fd5b7f756e646572666c6f770000000000000000000000000000000000000000000000600082015250565b6000610344600983610262565b915061034f8261030e565b602082019050919050565b6000602082019050818103600083015261037381610337565b905091905056fea2646970667358221220944c3bd681e36aa38d75689cb5336fe1aab91fd9194ea220cb010679ccab411e64736f6c63430008090033",
  "linkReferences": {},
  "deployedLinkReferences": {}
}