{
  "_format": "hh-sol-artifact-1",
  "contractName": "MyContract",
  "sourceName": "contracts/getting_started_with_solidity/15_enum/MyContract.sol",
  "abi": [
    {
      "inputs": [],
      "name": "ship",
      "outputs": [],
      "stateMutability": "nonpayable",
      "type": "function"
    },
    {
      "inputs": [],
      "name": "status",
      "outputs": [
        {
          "internalType": "enum MyContract.Status",
          "name": "",
          "type": "uint8"
        }
      ],
      "stateMutability": "view",
      "type": "function"
    }
  ],
  "bytecode": "0x608060405234801561001057600080fd5b506101a6806100206000396000f3fe608060405234801561001057600080fd5b50600436106100365760003560e01c8063200d2ed21461003b578063b6bef7b314610059575b600080fd5b610043610063565b6040516100509190610155565b60405180910390f35b610061610074565b005b60008054906101000a900460ff1681565b60006004811115610088576100876100de565b5b60008054906101000a900460ff1660048111156100a8576100a76100de565b5b146100b257600080fd5b60016000806101000a81548160ff021916908360048111156100d7576100d66100de565b5b0217905550565b7f4e487b7100000000000000000000000000000000000000000000000000000000600052602160045260246000fd5b6005811061011e5761011d6100de565b5b50565b600081905061012f8261010d565b919050565b600061013f82610121565b9050919050565b61014f81610134565b82525050565b600060208201905061016a6000830184610146565b9291505056fea2646970667358221220a3a6957c6e8167f2d32609200db0b511f1e64cc4e04903a8c30b23d3bd83c58c64736f6c63430008090033",
  "linkReferences": {},
  "deployedLinkReferences": {}
}