{
  "_format": "hh-sol-artifact-1",
  "contractName": "ChainBattles",
  "sourceName": "contracts/road_to_web3/week_03/ChainBattles.sol",
  "abi": [
    {
      "inputs": [],
      "stateMutability": "nonpayable",
      "type": "constructor"
    },
    {
      "anonymous": false,
      "inputs": [
        {
          "indexed": true,
          "internalType": "address",
          "name": "owner",
          "type": "address"
        },
        {
          "indexed": true,
          "internalType": "address",
          "name": "approved",
          "type": "address"
        },
        {
          "indexed": true,
          "internalType": "uint256",
          "name": "tokenId",
          "type": "uint256"
        }
      ],
      "name": "Approval",
      "type": "event"
    },
    {
      "anonymous": false,
      "inputs": [
        {
          "indexed": true,
          "internalType": "address",
          "name": "owner",
          "type": "address"
        },
        {
          "indexed": true,
          "internalType": "address",
          "name": "operator",
          "type": "address"
        },
        {
          "indexed": false,
          "internalType": "bool",
          "name": "approved",
          "type": "bool"
        }
      ],
      "name": "ApprovalForAll",
      "type": "event"
    },
    {
      "anonymous": false,
      "inputs": [
        {
          "indexed": true,
          "internalType": "address",
          "name": "from",
          "type": "address"
        },
        {
          "indexed": true,
          "internalType": "address",
          "name": "to",
          "type": "address"
        },
        {
          "indexed": true,
          "internalType": "uint256",
          "name": "tokenId",
          "type": "uint256"
        }
      ],
      "name": "Transfer",
      "type": "event"
    },
    {
      "inputs": [
        {
          "internalType": "address",
          "name": "to",
          "type": "address"
        },
        {
          "internalType": "uint256",
          "name": "tokenId",
          "type": "uint256"
        }
      ],
      "name": "approve",
      "outputs": [],
      "stateMutability": "nonpayable",
      "type": "function"
    },
    {
      "inputs": [
        {
          "internalType": "address",
          "name": "owner",
          "type": "address"
        }
      ],
      "name": "balanceOf",
      "outputs": [
        {
          "internalType": "uint256",
          "name": "",
          "type": "uint256"
        }
      ],
      "stateMutability": "view",
      "type": "function"
    },
    {
      "inputs": [
        {
          "internalType": "uint256",
          "name": "tokenId",
          "type": "uint256"
        }
      ],
      "name": "generateCharacter",
      "outputs": [
        {
          "internalType": "string",
          "name": "",
          "type": "string"
        }
      ],
      "stateMutability": "view",
      "type": "function"
    },
    {
      "inputs": [
        {
          "internalType": "uint256",
          "name": "tokenId",
          "type": "uint256"
        }
      ],
      "name": "getApproved",
      "outputs": [
        {
          "internalType": "address",
          "name": "",
          "type": "address"
        }
      ],
      "stateMutability": "view",
      "type": "function"
    },
    {
      "inputs": [
        {
          "internalType": "uint256",
          "name": "tokenId",
          "type": "uint256"
        }
      ],
      "name": "getLevels",
      "outputs": [
        {
          "internalType": "string",
          "name": "",
          "type": "string"
        }
      ],
      "stateMutability": "view",
      "type": "function"
    },
    {
      "inputs": [
        {
          "internalType": "uint256",
          "name": "tokenId",
          "type": "uint256"
        }
      ],
      "name": "getTokenURI",
      "outputs": [
        {
          "internalType": "string",
          "name": "",
          "type": "string"
        }
      ],
      "stateMutability": "view",
      "type": "function"
    },
    {
      "inputs": [
        {
          "internalType": "address",
          "name": "owner",
          "type": "address"
        },
        {
          "internalType": "address",
          "name": "operator",
          "type": "address"
        }
      ],
      "name": "isApprovedForAll",
      "outputs": [
        {
          "internalType": "bool",
          "name": "",
          "type": "bool"
        }
      ],
      "stateMutability": "view",
      "type": "function"
    },
    {
      "inputs": [],
      "name": "mint",
      "outputs": [],
      "stateMutability": "nonpayable",
      "type": "function"
    },
    {
      "inputs": [],
      "name": "name",
      "outputs": [
        {
          "internalType": "string",
          "name": "",
          "type": "string"
        }
      ],
      "stateMutability": "view",
      "type": "function"
    },
    {
      "inputs": [
        {
          "internalType": "uint256",
          "name": "tokenId",
          "type": "uint256"
        }
      ],
      "name": "ownerOf",
      "outputs": [
        {
          "internalType": "address",
          "name": "",
          "type": "address"
        }
      ],
      "stateMutability": "view",
      "type": "function"
    },
    {
      "inputs": [
        {
          "internalType": "address",
          "name": "from",
          "type": "address"
        },
        {
          "internalType": "address",
          "name": "to",
          "type": "address"
        },
        {
          "internalType": "uint256",
          "name": "tokenId",
          "type": "uint256"
        }
      ],
      "name": "safeTransferFrom",
      "outputs": [],
      "stateMutability": "nonpayable",
      "type": "function"
    },
    {
      "inputs": [
        {
          "internalType": "address",
          "name": "from",
          "type": "address"
        },
        {
          "internalType": "address",
          "name": "to",
          "type": "address"
        },
        {
          "internalType": "uint256",
          "name": "tokenId",
          "type": "uint256"
        },
        {
          "internalType": "bytes",
          "name": "data",
          "type": "bytes"
        }
      ],
      "name": "safeTransferFrom",
      "outputs": [],
      "stateMutability": "nonpayable",
      "type": "function"
    },
    {
      "inputs": [
        {
          "internalType": "address",
          "name": "operator",
          "type": "address"
        },
        {
          "internalType": "bool",
          "name": "approved",
          "type": "bool"
        }
      ],
      "name": "setApprovalForAll",
      "outputs": [],
      "stateMutability": "nonpayable",
      "type": "function"
    },
    {
      "inputs": [
        {
          "internalType": "bytes4",
          "name": "interfaceId",
          "type": "bytes4"
        }
      ],
      "name": "supportsInterface",
      "outputs": [
        {
          "internalType": "bool",
          "name": "",
          "type": "bool"
        }
      ],
      "stateMutability": "view",
      "type": "function"
    },
    {
      "inputs": [],
      "name": "symbol",
      "outputs": [
        {
          "internalType": "string",
          "name": "",
          "type": "string"
        }
      ],
      "stateMutability": "view",
      "type": "function"
    },
    {
      "inputs": [
        {
          "internalType": "uint256",
          "name": "tokenId",
          "type": "uint256"
        }
      ],
      "name": "tokenURI",
      "outputs": [
        {
          "internalType": "string",
          "name": "",
          "type": "string"
        }
      ],
      "stateMutability": "view",
      "type": "function"
    },
    {
      "inputs": [
        {
          "internalType": "uint256",
          "name": "tokenId",
          "type": "uint256"
        }
      ],
      "name": "train",
      "outputs": [],
      "stateMutability": "nonpayable",
      "type": "function"
    },
    {
      "inputs": [
        {
          "internalType": "address",
          "name": "from",
          "type": "address"
        },
        {
          "internalType": "address",
          "name": "to",
          "type": "address"
        },
        {
          "internalType": "uint256",
          "name": "tokenId",
          "type": "uint256"
        }
      ],
      "name": "transferFrom",
      "outputs": [],
      "stateMutability": "nonpayable",
      "type": "function"
    }
  ],
  "bytecode": "0x60806040523480156200001157600080fd5b506040518060400160405280600d81526020017f436861696e20426174746c6573000000000000000000000000000000000000008152506040518060400160405280600581526020017f4342544c5300000000000000000000000000000000000000000000000000000081525081600090805190602001906200009692919062000124565b508060019080519060200190620000af92919062000124565b505050604051620000c090620001b5565b604051809103906000f080158015620000dd573d6000803e3d6000fd5b50600860006101000a81548173ffffffffffffffffffffffffffffffffffffffff021916908373ffffffffffffffffffffffffffffffffffffffff16021790555062000247565b828054620001329062000211565b90600052602060002090601f016020900481019282620001565760008555620001a2565b82601f106200017157805160ff1916838001178555620001a2565b82800160010185558215620001a2579182015b82811115620001a157825182559160200191906001019062000184565b5b509050620001b19190620001c3565b5090565b6102518062003c4a83390190565b5b80821115620001de576000816000905550600101620001c4565b5090565b7f4e487b7100000000000000000000000000000000000000000000000000000000600052602260045260246000fd5b600060028204905060018216806200022a57607f821691505b60208210811415620002415762000240620001e2565b5b50919050565b6139f380620002576000396000f3fe608060405234801561001057600080fd5b50600436106101165760003560e01c806342842e0e116100a2578063a22cb46511610071578063a22cb465146102f1578063b88d4fde1461030d578063c87b56dd14610329578063e985e9c514610359578063f43785f91461038957610116565b806342842e0e146102575780636352211e1461027357806370a08231146102a357806395d89b41146102d357610116565b80630daefed5116100e95780630daefed5146101b55780631249c58b146101e557806323b872dd146101ef578063368004ed1461020b5780633bb3a24d1461022757610116565b806301ffc9a71461011b57806306fdde031461014b578063081812fc14610169578063095ea7b314610199575b600080fd5b61013560048036038101906101309190611e8e565b6103b9565b6040516101429190611ed6565b60405180910390f35b61015361049b565b6040516101609190611f8a565b60405180910390f35b610183600480360381019061017e9190611fe2565b61052d565b6040516101909190612050565b60405180910390f35b6101b360048036038101906101ae9190612097565b610573565b005b6101cf60048036038101906101ca9190611fe2565b61068b565b6040516101dc9190611f8a565b60405180910390f35b6101ed61074a565b005b610209600480360381019061020491906120d7565b6107d3565b005b61022560048036038101906102209190611fe2565b610833565b005b610241600480360381019061023c9190611fe2565b610a14565b60405161024e9190611f8a565b60405180910390f35b610271600480360381019061026c91906120d7565b610a7c565b005b61028d60048036038101906102889190611fe2565b610a9c565b60405161029a9190612050565b60405180910390f35b6102bd60048036038101906102b8919061212a565b610b4e565b6040516102ca9190612166565b60405180910390f35b6102db610c06565b6040516102e89190611f8a565b60405180910390f35b61030b600480360381019061030691906121ad565b610c98565b005b61032760048036038101906103229190612322565b610cae565b005b610343600480360381019061033e9190611fe2565b610d10565b6040516103509190611f8a565b60405180910390f35b610373600480360381019061036e91906123a5565b610e23565b6040516103809190611ed6565b60405180910390f35b6103a3600480360381019061039e9190611fe2565b610eb7565b6040516103b09190611f8a565b60405180910390f35b60007f80ac58cd000000000000000000000000000000000000000000000000000000007bffffffffffffffffffffffffffffffffffffffffffffffffffffffff1916827bffffffffffffffffffffffffffffffffffffffffffffffffffffffff1916148061048457507f5b5e139f000000000000000000000000000000000000000000000000000000007bffffffffffffffffffffffffffffffffffffffffffffffffffffffff1916827bffffffffffffffffffffffffffffffffffffffffffffffffffffffff1916145b80610494575061049382610ee5565b5b9050919050565b6060600080546104aa90612414565b80601f01602080910402602001604051908101604052809291908181526020018280546104d690612414565b80156105235780601f106104f857610100808354040283529160200191610523565b820191906000526020600020905b81548152906001019060200180831161050657829003601f168201915b5050505050905090565b600061053882610f4f565b6004600083815260200190815260200160002060009054906101000a900473ffffffffffffffffffffffffffffffffffffffff169050919050565b600061057e82610a9c565b90508073ffffffffffffffffffffffffffffffffffffffff168373ffffffffffffffffffffffffffffffffffffffff1614156105ef576040517f08c379a00000000000000000000000000000000000000000000000000000000081526004016105e6906124b8565b60405180910390fd5b8073ffffffffffffffffffffffffffffffffffffffff1661060e610f9a565b73ffffffffffffffffffffffffffffffffffffffff16148061063d575061063c81610637610f9a565b610e23565b5b61067c576040517f08c379a00000000000000000000000000000000000000000000000000000000081526004016106739061254a565b60405180910390fd5b6106868383610fa2565b505050565b60606000600960008481526020019081526020016000206040518060600160405290816000820154815260200160018201548152602001600282015481525050905060006106dc826000015161105b565b6106e9836020015161105b565b6106f6846040015161105b565b60405160200161070893929190612b96565b6040516020818303038152906040529050610722816111bc565b6040516020016107329190612cc3565b60405160208183030381529060405292505050919050565b6107546007611320565b60006107606007611336565b905061076c3382611344565b604051806060016040528060008152602001600181526020016001815250600960008381526020019081526020016000206000820151816000015560208201518160010155604082015181600201559050506107d0816107cb83610a14565b611362565b50565b6107e46107de610f9a565b826113d6565b610823576040517f08c379a000000000000000000000000000000000000000000000000000000000815260040161081a90612d57565b60405180910390fd5b61082e83838361146b565b505050565b61083c816116d2565b61087b576040517f08c379a000000000000000000000000000000000000000000000000000000000815260040161087290612dc3565b60405180910390fd5b3373ffffffffffffffffffffffffffffffffffffffff1661089b82610a9c565b73ffffffffffffffffffffffffffffffffffffffff16146108f1576040517f08c379a00000000000000000000000000000000000000000000000000000000081526004016108e890612e55565b60405180910390fd5b60006009600083815260200190815260200160002090506000600860009054906101000a900473ffffffffffffffffffffffffffffffffffffffff1673ffffffffffffffffffffffffffffffffffffffff1663dbdff2c16040518163ffffffff1660e01b815260040160206040518083038186803b15801561097257600080fd5b505afa158015610986573d6000803e3d6000fd5b505050506040513d601f19601f820116820180604052508101906109aa9190612e8a565b9050808260000160008282546109c09190612ee6565b92505081905550808260010160008282546109db9190612ee6565b92505081905550808260020160008282546109f69190612ee6565b92505081905550610a0f83610a0a85610a14565b611362565b505050565b60606000610a218361105b565b610a2a8461068b565b604051602001610a3b929190613176565b6040516020818303038152906040529050610a55816111bc565b604051602001610a659190613233565b604051602081830303815290604052915050919050565b610a9783838360405180602001604052806000815250610cae565b505050565b6000806002600084815260200190815260200160002060009054906101000a900473ffffffffffffffffffffffffffffffffffffffff169050600073ffffffffffffffffffffffffffffffffffffffff168173ffffffffffffffffffffffffffffffffffffffff161415610b45576040517f08c379a0000000000000000000000000000000000000000000000000000000008152600401610b3c906132a1565b60405180910390fd5b80915050919050565b60008073ffffffffffffffffffffffffffffffffffffffff168273ffffffffffffffffffffffffffffffffffffffff161415610bbf576040517f08c379a0000000000000000000000000000000000000000000000000000000008152600401610bb690613333565b60405180910390fd5b600360008373ffffffffffffffffffffffffffffffffffffffff1673ffffffffffffffffffffffffffffffffffffffff168152602001908152602001600020549050919050565b606060018054610c1590612414565b80601f0160208091040260200160405190810160405280929190818152602001828054610c4190612414565b8015610c8e5780601f10610c6357610100808354040283529160200191610c8e565b820191906000526020600020905b815481529060010190602001808311610c7157829003601f168201915b5050505050905090565b610caa610ca3610f9a565b838361173e565b5050565b610cbf610cb9610f9a565b836113d6565b610cfe576040517f08c379a0000000000000000000000000000000000000000000000000000000008152600401610cf590612d57565b60405180910390fd5b610d0a848484846118ab565b50505050565b6060610d1b82610f4f565b6000600660008481526020019081526020016000208054610d3b90612414565b80601f0160208091040260200160405190810160405280929190818152602001828054610d6790612414565b8015610db45780601f10610d8957610100808354040283529160200191610db4565b820191906000526020600020905b815481529060010190602001808311610d9757829003601f168201915b505050505090506000610dc5611907565b9050600081511415610ddb578192505050610e1e565b600082511115610e10578082604051602001610df8929190613353565b60405160208183030381529060405292505050610e1e565b610e198461191e565b925050505b919050565b6000600560008473ffffffffffffffffffffffffffffffffffffffff1673ffffffffffffffffffffffffffffffffffffffff16815260200190815260200160002060008373ffffffffffffffffffffffffffffffffffffffff1673ffffffffffffffffffffffffffffffffffffffff16815260200190815260200160002060009054906101000a900460ff16905092915050565b6060600060096000848152602001908152602001600020600001549050610edd8161105b565b915050919050565b60007f01ffc9a7000000000000000000000000000000000000000000000000000000007bffffffffffffffffffffffffffffffffffffffffffffffffffffffff1916827bffffffffffffffffffffffffffffffffffffffffffffffffffffffff1916149050919050565b610f58816116d2565b610f97576040517f08c379a0000000000000000000000000000000000000000000000000000000008152600401610f8e906132a1565b60405180910390fd5b50565b600033905090565b816004600083815260200190815260200160002060006101000a81548173ffffffffffffffffffffffffffffffffffffffff021916908373ffffffffffffffffffffffffffffffffffffffff160217905550808273ffffffffffffffffffffffffffffffffffffffff1661101583610a9c565b73ffffffffffffffffffffffffffffffffffffffff167f8c5be1e5ebec7d5bd14f71427d1e84f3dd0314c0f7b2291e5b200ac8c7c3b92560405160405180910390a45050565b606060008214156110a3576040518060400160405280600181526020017f300000000000000000000000000000000000000000000000000000000000000081525090506111b7565b600082905060005b600082146110d55780806110be90613377565b915050600a826110ce91906133ef565b91506110ab565b60008167ffffffffffffffff8111156110f1576110f06121f7565b5b6040519080825280601f01601f1916602001820160405280156111235781602001600182028036833780820191505090505b5090505b600085146111b05760018261113c9190613420565b9150600a8561114b9190613454565b60306111579190612ee6565b60f81b81838151811061116d5761116c613485565b5b60200101907effffffffffffffffffffffffffffffffffffffffffffffffffffffffffffff1916908160001a905350600a856111a991906133ef565b9450611127565b8093505050505b919050565b60606000825114156111df5760405180602001604052806000815250905061131b565b600060405180606001604052806040815260200161397e604091399050600060036002855161120e9190612ee6565b61121891906133ef565b600461122491906134b4565b67ffffffffffffffff81111561123d5761123c6121f7565b5b6040519080825280601f01601f19166020018201604052801561126f5781602001600182028036833780820191505090505b509050600182016020820185865187015b808210156112db576003820191508151603f8160121c168501518453600184019350603f81600c1c168501518453600184019350603f8160061c168501518453600184019350603f8116850151845360018401935050611280565b50506003865106600181146112f7576002811461130a57611312565b603d6001830353603d6002830353611312565b603d60018303535b50505080925050505b919050565b6001816000016000828254019250508190555050565b600081600001549050919050565b61135e828260405180602001604052806000815250611986565b5050565b61136b826116d2565b6113aa576040517f08c379a00000000000000000000000000000000000000000000000000000000081526004016113a190613580565b60405180910390fd5b806006600084815260200190815260200160002090805190602001906113d1929190611d7f565b505050565b6000806113e283610a9c565b90508073ffffffffffffffffffffffffffffffffffffffff168473ffffffffffffffffffffffffffffffffffffffff16148061142457506114238185610e23565b5b8061146257508373ffffffffffffffffffffffffffffffffffffffff1661144a8461052d565b73ffffffffffffffffffffffffffffffffffffffff16145b91505092915050565b8273ffffffffffffffffffffffffffffffffffffffff1661148b82610a9c565b73ffffffffffffffffffffffffffffffffffffffff16146114e1576040517f08c379a00000000000000000000000000000000000000000000000000000000081526004016114d890613612565b60405180910390fd5b600073ffffffffffffffffffffffffffffffffffffffff168273ffffffffffffffffffffffffffffffffffffffff161415611551576040517f08c379a0000000000000000000000000000000000000000000000000000000008152600401611548906136a4565b60405180910390fd5b61155c8383836119e1565b611567600082610fa2565b6001600360008573ffffffffffffffffffffffffffffffffffffffff1673ffffffffffffffffffffffffffffffffffffffff16815260200190815260200160002060008282546115b79190613420565b925050819055506001600360008473ffffffffffffffffffffffffffffffffffffffff1673ffffffffffffffffffffffffffffffffffffffff168152602001908152602001600020600082825461160e9190612ee6565b92505081905550816002600083815260200190815260200160002060006101000a81548173ffffffffffffffffffffffffffffffffffffffff021916908373ffffffffffffffffffffffffffffffffffffffff160217905550808273ffffffffffffffffffffffffffffffffffffffff168473ffffffffffffffffffffffffffffffffffffffff167fddf252ad1be2c89b69c2b068fc378daa952ba7f163c4a11628f55a4df523b3ef60405160405180910390a46116cd8383836119e6565b505050565b60008073ffffffffffffffffffffffffffffffffffffffff166002600084815260200190815260200160002060009054906101000a900473ffffffffffffffffffffffffffffffffffffffff1673ffffffffffffffffffffffffffffffffffffffff1614159050919050565b8173ffffffffffffffffffffffffffffffffffffffff168373ffffffffffffffffffffffffffffffffffffffff1614156117ad576040517f08c379a00000000000000000000000000000000000000000000000000000000081526004016117a490613710565b60405180910390fd5b80600560008573ffffffffffffffffffffffffffffffffffffffff1673ffffffffffffffffffffffffffffffffffffffff16815260200190815260200160002060008473ffffffffffffffffffffffffffffffffffffffff1673ffffffffffffffffffffffffffffffffffffffff16815260200190815260200160002060006101000a81548160ff0219169083151502179055508173ffffffffffffffffffffffffffffffffffffffff168373ffffffffffffffffffffffffffffffffffffffff167f17307eab39ab6107e8899845ad3d59bd9653f200f220920489ca2b5937696c318360405161189e9190611ed6565b60405180910390a3505050565b6118b684848461146b565b6118c2848484846119eb565b611901576040517f08c379a00000000000000000000000000000000000000000000000000000000081526004016118f8906137a2565b60405180910390fd5b50505050565b606060405180602001604052806000815250905090565b606061192982610f4f565b6000611933611907565b90506000815111611953576040518060200160405280600081525061197e565b8061195d8461105b565b60405160200161196e929190613353565b6040516020818303038152906040525b915050919050565b6119908383611b82565b61199d60008484846119eb565b6119dc576040517f08c379a00000000000000000000000000000000000000000000000000000000081526004016119d3906137a2565b60405180910390fd5b505050565b505050565b505050565b6000611a0c8473ffffffffffffffffffffffffffffffffffffffff16611d5c565b15611b75578373ffffffffffffffffffffffffffffffffffffffff1663150b7a02611a35610f9a565b8786866040518563ffffffff1660e01b8152600401611a579493929190613817565b602060405180830381600087803b158015611a7157600080fd5b505af1925050508015611aa257506040513d601f19601f82011682018060405250810190611a9f9190613878565b60015b611b25573d8060008114611ad2576040519150601f19603f3d011682016040523d82523d6000602084013e611ad7565b606091505b50600081511415611b1d576040517f08c379a0000000000000000000000000000000000000000000000000000000008152600401611b14906137a2565b60405180910390fd5b805181602001fd5b63150b7a0260e01b7bffffffffffffffffffffffffffffffffffffffffffffffffffffffff1916817bffffffffffffffffffffffffffffffffffffffffffffffffffffffff191614915050611b7a565b600190505b949350505050565b600073ffffffffffffffffffffffffffffffffffffffff168273ffffffffffffffffffffffffffffffffffffffff161415611bf2576040517f08c379a0000000000000000000000000000000000000000000000000000000008152600401611be9906138f1565b60405180910390fd5b611bfb816116d2565b15611c3b576040517f08c379a0000000000000000000000000000000000000000000000000000000008152600401611c329061395d565b60405180910390fd5b611c47600083836119e1565b6001600360008473ffffffffffffffffffffffffffffffffffffffff1673ffffffffffffffffffffffffffffffffffffffff1681526020019081526020016000206000828254611c979190612ee6565b92505081905550816002600083815260200190815260200160002060006101000a81548173ffffffffffffffffffffffffffffffffffffffff021916908373ffffffffffffffffffffffffffffffffffffffff160217905550808273ffffffffffffffffffffffffffffffffffffffff16600073ffffffffffffffffffffffffffffffffffffffff167fddf252ad1be2c89b69c2b068fc378daa952ba7f163c4a11628f55a4df523b3ef60405160405180910390a4611d58600083836119e6565b5050565b6000808273ffffffffffffffffffffffffffffffffffffffff163b119050919050565b828054611d8b90612414565b90600052602060002090601f016020900481019282611dad5760008555611df4565b82601f10611dc657805160ff1916838001178555611df4565b82800160010185558215611df4579182015b82811115611df3578251825591602001919060010190611dd8565b5b509050611e019190611e05565b5090565b5b80821115611e1e576000816000905550600101611e06565b5090565b6000604051905090565b600080fd5b600080fd5b60007fffffffff0000000000000000000000000000000000000000000000000000000082169050919050565b611e6b81611e36565b8114611e7657600080fd5b50565b600081359050611e8881611e62565b92915050565b600060208284031215611ea457611ea3611e2c565b5b6000611eb284828501611e79565b91505092915050565b60008115159050919050565b611ed081611ebb565b82525050565b6000602082019050611eeb6000830184611ec7565b92915050565b600081519050919050565b600082825260208201905092915050565b60005b83811015611f2b578082015181840152602081019050611f10565b83811115611f3a576000848401525b50505050565b6000601f19601f8301169050919050565b6000611f5c82611ef1565b611f668185611efc565b9350611f76818560208601611f0d565b611f7f81611f40565b840191505092915050565b60006020820190508181036000830152611fa48184611f51565b905092915050565b6000819050919050565b611fbf81611fac565b8114611fca57600080fd5b50565b600081359050611fdc81611fb6565b92915050565b600060208284031215611ff857611ff7611e2c565b5b600061200684828501611fcd565b91505092915050565b600073ffffffffffffffffffffffffffffffffffffffff82169050919050565b600061203a8261200f565b9050919050565b61204a8161202f565b82525050565b60006020820190506120656000830184612041565b92915050565b6120748161202f565b811461207f57600080fd5b50565b6000813590506120918161206b565b92915050565b600080604083850312156120ae576120ad611e2c565b5b60006120bc85828601612082565b92505060206120cd85828601611fcd565b9150509250929050565b6000806000606084860312156120f0576120ef611e2c565b5b60006120fe86828701612082565b935050602061210f86828701612082565b925050604061212086828701611fcd565b9150509250925092565b6000602082840312156121405761213f611e2c565b5b600061214e84828501612082565b91505092915050565b61216081611fac565b82525050565b600060208201905061217b6000830184612157565b92915050565b61218a81611ebb565b811461219557600080fd5b50565b6000813590506121a781612181565b92915050565b600080604083850312156121c4576121c3611e2c565b5b60006121d285828601612082565b92505060206121e385828601612198565b9150509250929050565b600080fd5b600080fd5b7f4e487b7100000000000000000000000000000000000000000000000000000000600052604160045260246000fd5b61222f82611f40565b810181811067ffffffffffffffff8211171561224e5761224d6121f7565b5b80604052505050565b6000612261611e22565b905061226d8282612226565b919050565b600067ffffffffffffffff82111561228d5761228c6121f7565b5b61229682611f40565b9050602081019050919050565b82818337600083830152505050565b60006122c56122c084612272565b612257565b9050828152602081018484840111156122e1576122e06121f2565b5b6122ec8482856122a3565b509392505050565b600082601f830112612309576123086121ed565b5b81356123198482602086016122b2565b91505092915050565b6000806000806080858703121561233c5761233b611e2c565b5b600061234a87828801612082565b945050602061235b87828801612082565b935050604061236c87828801611fcd565b925050606085013567ffffffffffffffff81111561238d5761238c611e31565b5b612399878288016122f4565b91505092959194509250565b600080604083850312156123bc576123bb611e2c565b5b60006123ca85828601612082565b92505060206123db85828601612082565b9150509250929050565b7f4e487b7100000000000000000000000000000000000000000000000000000000600052602260045260246000fd5b6000600282049050600182168061242c57607f821691505b602082108114156124405761243f6123e5565b5b50919050565b7f4552433732313a20617070726f76616c20746f2063757272656e74206f776e6560008201527f7200000000000000000000000000000000000000000000000000000000000000602082015250565b60006124a2602183611efc565b91506124ad82612446565b604082019050919050565b600060208201905081810360008301526124d181612495565b9050919050565b7f4552433732313a20617070726f76652063616c6c6572206973206e6f7420746f60008201527f6b656e206f776e6572206e6f7220617070726f76656420666f7220616c6c0000602082015250565b6000612534603e83611efc565b915061253f826124d8565b604082019050919050565b6000602082019050818103600083015261256381612527565b9050919050565b600081905092915050565b7f3c73766720786d6c6e733d22687474703a2f2f7777772e77332e6f72672f323060008201527f30302f73766722207072657365727665417370656374526174696f3d22784d6960208201527f6e594d696e206d656574222076696577426f783d22302030203335302033353060408201527f223e000000000000000000000000000000000000000000000000000000000000606082015250565b600061261d60628361256a565b915061262882612575565b606282019050919050565b7f3c7374796c653e2e62617365207b2066696c6c3a2077686974653b20666f6e7460008201527f2d66616d696c793a2073657269663b20666f6e742d73697a653a20313470783b60208201527f207d3c2f7374796c653e00000000000000000000000000000000000000000000604082015250565b60006126b5604a8361256a565b91506126c082612633565b604a82019050919050565b7f3c726563742077696474683d223130302522206865696768743d22313030252260008201527f2066696c6c3d22626c61636b22202f3e00000000000000000000000000000000602082015250565b600061272760308361256a565b9150612732826126cb565b603082019050919050565b7f3c7465787420783d223530252220793d223430252220636c6173733d2262617360008201527f652220646f6d696e616e742d626173656c696e653d226d6964646c652220746560208201527f78742d616e63686f723d226d6964646c65223e00000000000000000000000000604082015250565b60006127bf60538361256a565b91506127ca8261273d565b605382019050919050565b7f57617272696f7200000000000000000000000000000000000000000000000000600082015250565b600061280b60078361256a565b9150612816826127d5565b600782019050919050565b7f3c2f746578743e00000000000000000000000000000000000000000000000000600082015250565b600061285760078361256a565b915061286282612821565b600782019050919050565b7f3c7465787420783d223530252220793d223530252220636c6173733d2262617360008201527f652220646f6d696e616e742d626173656c696e653d226d6964646c652220746560208201527f78742d616e63686f723d226d6964646c65223e00000000000000000000000000604082015250565b60006128ef60538361256a565b91506128fa8261286d565b605382019050919050565b7f4c6576656c733a20000000000000000000000000000000000000000000000000600082015250565b600061293b60088361256a565b915061294682612905565b600882019050919050565b600061295c82611ef1565b612966818561256a565b9350612976818560208601611f0d565b80840191505092915050565b7f3c7465787420783d223530252220793d223630252220636c6173733d2262617360008201527f652220646f6d696e616e742d626173656c696e653d226d6964646c652220746560208201527f78742d616e63686f723d226d6964646c65223e00000000000000000000000000604082015250565b6000612a0460538361256a565b9150612a0f82612982565b605382019050919050565b7f53707065643a2000000000000000000000000000000000000000000000000000600082015250565b6000612a5060078361256a565b9150612a5b82612a1a565b600782019050919050565b7f3c7465787420783d223530252220793d223730252220636c6173733d2262617360008201527f652220646f6d696e616e742d626173656c696e653d226d6964646c652220746560208201527f78742d616e63686f723d226d6964646c65223e00000000000000000000000000604082015250565b6000612ae860538361256a565b9150612af382612a66565b605382019050919050565b7f537472656774683a200000000000000000000000000000000000000000000000600082015250565b6000612b3460098361256a565b9150612b3f82612afe565b600982019050919050565b7f3c2f7376673e0000000000000000000000000000000000000000000000000000600082015250565b6000612b8060068361256a565b9150612b8b82612b4a565b600682019050919050565b6000612ba182612610565b9150612bac826126a8565b9150612bb78261271a565b9150612bc2826127b2565b9150612bcd826127fe565b9150612bd88261284a565b9150612be3826128e2565b9150612bee8261292e565b9150612bfa8286612951565b9150612c058261284a565b9150612c10826129f7565b9150612c1b82612a43565b9150612c278285612951565b9150612c328261284a565b9150612c3d82612adb565b9150612c4882612b27565b9150612c548284612951565b9150612c5f8261284a565b9150612c6a82612b73565b9150819050949350505050565b7f646174613a696d6167652f7376672b786d6c3b6261736536342c000000000000600082015250565b6000612cad601a8361256a565b9150612cb882612c77565b601a82019050919050565b6000612cce82612ca0565b9150612cda8284612951565b915081905092915050565b7f4552433732313a2063616c6c6572206973206e6f7420746f6b656e206f776e6560008201527f72206e6f7220617070726f766564000000000000000000000000000000000000602082015250565b6000612d41602e83611efc565b9150612d4c82612ce5565b604082019050919050565b60006020820190508181036000830152612d7081612d34565b9050919050565b7f506c656173652075736520616e206578697374696e6720746f6b656e00000000600082015250565b6000612dad601c83611efc565b9150612db882612d77565b602082019050919050565b60006020820190508181036000830152612ddc81612da0565b9050919050565b7f596f75206d757374206f776e207468697320746f6b656e20746f20747261696e60008201527f2069740000000000000000000000000000000000000000000000000000000000602082015250565b6000612e3f602383611efc565b9150612e4a82612de3565b604082019050919050565b60006020820190508181036000830152612e6e81612e32565b9050919050565b600081519050612e8481611fb6565b92915050565b600060208284031215612ea057612e9f611e2c565b5b6000612eae84828501612e75565b91505092915050565b7f4e487b7100000000000000000000000000000000000000000000000000000000600052601160045260246000fd5b6000612ef182611fac565b9150612efc83611fac565b9250827fffffffffffffffffffffffffffffffffffffffffffffffffffffffffffffffff03821115612f3157612f30612eb7565b5b828201905092915050565b7f7b00000000000000000000000000000000000000000000000000000000000000600082015250565b6000612f7260018361256a565b9150612f7d82612f3c565b600182019050919050565b7f226e616d65223a2022436861696e20426174746c657320230000000000000000600082015250565b6000612fbe60188361256a565b9150612fc982612f88565b601882019050919050565b7f222c000000000000000000000000000000000000000000000000000000000000600082015250565b600061300a60028361256a565b915061301582612fd4565b600282019050919050565b7f226465736372697074696f6e223a2022426174746c6573206f6e20636861696e60008201527f222c000000000000000000000000000000000000000000000000000000000000602082015250565b600061307c60228361256a565b915061308782613020565b602282019050919050565b7f22696d616765223a202200000000000000000000000000000000000000000000600082015250565b60006130c8600a8361256a565b91506130d382613092565b600a82019050919050565b7f2200000000000000000000000000000000000000000000000000000000000000600082015250565b600061311460018361256a565b915061311f826130de565b600182019050919050565b7f7d00000000000000000000000000000000000000000000000000000000000000600082015250565b600061316060018361256a565b915061316b8261312a565b600182019050919050565b600061318182612f65565b915061318c82612fb1565b91506131988285612951565b91506131a382612ffd565b91506131ae8261306f565b91506131b9826130bb565b91506131c58284612951565b91506131d082613107565b91506131db82613153565b91508190509392505050565b7f646174613a6170706c69636174696f6e2f6a736f6e3b6261736536342c000000600082015250565b600061321d601d8361256a565b9150613228826131e7565b601d82019050919050565b600061323e82613210565b915061324a8284612951565b915081905092915050565b7f4552433732313a20696e76616c696420746f6b656e2049440000000000000000600082015250565b600061328b601883611efc565b915061329682613255565b602082019050919050565b600060208201905081810360008301526132ba8161327e565b9050919050565b7f4552433732313a2061646472657373207a65726f206973206e6f74206120766160008201527f6c6964206f776e65720000000000000000000000000000000000000000000000602082015250565b600061331d602983611efc565b9150613328826132c1565b604082019050919050565b6000602082019050818103600083015261334c81613310565b9050919050565b600061335f8285612951565b915061336b8284612951565b91508190509392505050565b600061338282611fac565b91507fffffffffffffffffffffffffffffffffffffffffffffffffffffffffffffffff8214156133b5576133b4612eb7565b5b600182019050919050565b7f4e487b7100000000000000000000000000000000000000000000000000000000600052601260045260246000fd5b60006133fa82611fac565b915061340583611fac565b925082613415576134146133c0565b5b828204905092915050565b600061342b82611fac565b915061343683611fac565b92508282101561344957613448612eb7565b5b828203905092915050565b600061345f82611fac565b915061346a83611fac565b92508261347a576134796133c0565b5b828206905092915050565b7f4e487b7100000000000000000000000000000000000000000000000000000000600052603260045260246000fd5b60006134bf82611fac565b91506134ca83611fac565b9250817fffffffffffffffffffffffffffffffffffffffffffffffffffffffffffffffff048311821515161561350357613502612eb7565b5b828202905092915050565b7f45524337323155524953746f726167653a2055524920736574206f66206e6f6e60008201527f6578697374656e7420746f6b656e000000000000000000000000000000000000602082015250565b600061356a602e83611efc565b91506135758261350e565b604082019050919050565b600060208201905081810360008301526135998161355d565b9050919050565b7f4552433732313a207472616e736665722066726f6d20696e636f72726563742060008201527f6f776e6572000000000000000000000000000000000000000000000000000000602082015250565b60006135fc602583611efc565b9150613607826135a0565b604082019050919050565b6000602082019050818103600083015261362b816135ef565b9050919050565b7f4552433732313a207472616e7366657220746f20746865207a65726f2061646460008201527f7265737300000000000000000000000000000000000000000000000000000000602082015250565b600061368e602483611efc565b915061369982613632565b604082019050919050565b600060208201905081810360008301526136bd81613681565b9050919050565b7f4552433732313a20617070726f766520746f2063616c6c657200000000000000600082015250565b60006136fa601983611efc565b9150613705826136c4565b602082019050919050565b60006020820190508181036000830152613729816136ed565b9050919050565b7f4552433732313a207472616e7366657220746f206e6f6e20455243373231526560008201527f63656976657220696d706c656d656e7465720000000000000000000000000000602082015250565b600061378c603283611efc565b915061379782613730565b604082019050919050565b600060208201905081810360008301526137bb8161377f565b9050919050565b600081519050919050565b600082825260208201905092915050565b60006137e9826137c2565b6137f381856137cd565b9350613803818560208601611f0d565b61380c81611f40565b840191505092915050565b600060808201905061382c6000830187612041565b6138396020830186612041565b6138466040830185612157565b818103606083015261385881846137de565b905095945050505050565b60008151905061387281611e62565b92915050565b60006020828403121561388e5761388d611e2c565b5b600061389c84828501613863565b91505092915050565b7f4552433732313a206d696e7420746f20746865207a65726f2061646472657373600082015250565b60006138db602083611efc565b91506138e6826138a5565b602082019050919050565b6000602082019050818103600083015261390a816138ce565b9050919050565b7f4552433732313a20746f6b656e20616c7265616479206d696e74656400000000600082015250565b6000613947601c83611efc565b915061395282613911565b602082019050919050565b600060208201905081810360008301526139768161393a565b905091905056fe4142434445464748494a4b4c4d4e4f505152535455565758595a6162636465666768696a6b6c6d6e6f707172737475767778797a303132333435363738392b2fa26469706673582212201930e0360186abcdc9709e7da358baececf1154fd083f6b8dfe8e4028455fc5764736f6c63430008090033608060405234801561001057600080fd5b50610231806100206000396000f3fe608060405234801561001057600080fd5b506004361061002b5760003560e01c8063dbdff2c114610030575b600080fd5b61003861004e565b60405161004591906100a8565b60405180910390f35b6000600a4244336040516020016100679392919061015e565b6040516020818303038152906040528051906020012060001c61008a91906101ca565b905090565b6000819050919050565b6100a28161008f565b82525050565b60006020820190506100bd6000830184610099565b92915050565b6000819050919050565b6100de6100d98261008f565b6100c3565b82525050565b600073ffffffffffffffffffffffffffffffffffffffff82169050919050565b600061010f826100e4565b9050919050565b60008160601b9050919050565b600061012e82610116565b9050919050565b600061014082610123565b9050919050565b61015861015382610104565b610135565b82525050565b600061016a82866100cd565b60208201915061017a82856100cd565b60208201915061018a8284610147565b601482019150819050949350505050565b7f4e487b7100000000000000000000000000000000000000000000000000000000600052601260045260246000fd5b60006101d58261008f565b91506101e08361008f565b9250826101f0576101ef61019b565b5b82820690509291505056fea264697066735822122080e50f129c4cc303d11cc93abceec4cb35b79cae1d5e19dc11901fa60b744f8364736f6c63430008090033",
  "linkReferences": {},
  "deployedLinkReferences": {}
}