{
  "_format": "hh-sol-artifact-1",
  "contractName": "MyContract",
  "sourceName": "contracts/getting_started_with_solidity/12_for_loop/MyContract.sol",
  "abi": [
    {
      "inputs": [
        {
          "internalType": "uint256",
          "name": "n",
          "type": "uint256"
        }
      ],
      "name": "doLoop",
      "outputs": [],
      "stateMutability": "nonpayable",
      "type": "function"
    },
    {
      "inputs": [],
      "name": "loopCount",
      "outputs": [
        {
          "internalType": "uint256",
          "name": "",
          "type": "uint256"
        }
      ],
      "stateMutability": "view",
      "type": "function"
    }
  ],
  "bytecode": "0x608060405234801561001057600080fd5b5061024c806100206000396000f3fe608060405234801561001057600080fd5b50600436106100365760003560e01c8063a11477561461003b578063e91675b814610057575b600080fd5b610055600480360381019061005091906100f1565b610075565b005b61005f6100b0565b60405161006c919061012d565b60405180910390f35b60005b818110156100ac5760016000808282546100929190610177565b9250508190555080806100a4906101cd565b915050610078565b5050565b60005481565b600080fd5b6000819050919050565b6100ce816100bb565b81146100d957600080fd5b50565b6000813590506100eb816100c5565b92915050565b600060208284031215610107576101066100b6565b5b6000610115848285016100dc565b91505092915050565b610127816100bb565b82525050565b6000602082019050610142600083018461011e565b92915050565b7f4e487b7100000000000000000000000000000000000000000000000000000000600052601160045260246000fd5b6000610182826100bb565b915061018d836100bb565b9250827fffffffffffffffffffffffffffffffffffffffffffffffffffffffffffffffff038211156101c2576101c1610148565b5b828201905092915050565b60006101d8826100bb565b91507fffffffffffffffffffffffffffffffffffffffffffffffffffffffffffffffff82141561020b5761020a610148565b5b60018201905091905056fea2646970667358221220c91f411e3a665932110414356fbb1fd8d8e8839f4bae90c3637f33d09b6d6f4364736f6c63430008090033",
  "linkReferences": {},
  "deployedLinkReferences": {}
}