{
  "_format": "hh-sol-artifact-1",
  "contractName": "Bank",
  "sourceName": "contracts/getting_started_with_solidity/21_inheritance/MyContract.sol",
  "abi": [
    {
      "inputs": [
        {
          "internalType": "uint256",
          "name": "amount",
          "type": "uint256"
        }
      ],
      "stateMutability": "nonpayable",
      "type": "constructor"
    },
    {
      "inputs": [],
      "name": "balance",
      "outputs": [
        {
          "internalType": "uint256",
          "name": "",
          "type": "uint256"
        }
      ],
      "stateMutability": "view",
      "type": "function"
    },
    {
      "inputs": [
        {
          "internalType": "uint256",
          "name": "amount",
          "type": "uint256"
        }
      ],
      "name": "checkValue",
      "outputs": [
        {
          "internalType": "bool",
          "name": "",
          "type": "bool"
        }
      ],
      "stateMutability": "view",
      "type": "function"
    },
    {
      "inputs": [
        {
          "internalType": "uint256",
          "name": "amount",
          "type": "uint256"
        }
      ],
      "name": "deposit",
      "outputs": [],
      "stateMutability": "nonpayable",
      "type": "function"
    },
    {
      "inputs": [],
      "name": "loan",
      "outputs": [
        {
          "internalType": "bool",
          "name": "",
          "type": "bool"
        }
      ],
      "stateMutability": "view",
      "type": "function"
    },
    {
      "inputs": [
        {
          "internalType": "uint256",
          "name": "amount",
          "type": "uint256"
        }
      ],
      "name": "withdraw",
      "outputs": [],
      "stateMutability": "nonpayable",
      "type": "function"
    }
  ],
  "bytecode": "0x608060405234801561001057600080fd5b50604051610416380380610416833981810160405281019061003291906100bb565b8060008190555033600160006101000a81548173ffffffffffffffffffffffffffffffffffffffff021916908373ffffffffffffffffffffffffffffffffffffffff160217905550506100e8565b600080fd5b6000819050919050565b61009881610085565b81146100a357600080fd5b50565b6000815190506100b58161008f565b92915050565b6000602082840312156100d1576100d0610080565b5b60006100df848285016100a6565b91505092915050565b61031f806100f76000396000f3fe608060405234801561001057600080fd5b50600436106100575760003560e01c806318db62fb1461005c5780632e1a7d4d1461008c578063b69ef8a8146100a8578063b6b55f25146100c6578063d285b7b4146100e2575b600080fd5b610076600480360381019061007191906101a3565b610100565b60405161008391906101eb565b60405180910390f35b6100a660048036038101906100a191906101a3565b61010e565b005b6100b0610138565b6040516100bd9190610215565b60405180910390f35b6100e060048036038101906100db91906101a3565b610141565b005b6100ea61015c565b6040516100f791906101eb565b60405180910390f35b600080548210159050919050565b61011781610100565b15610135578060008082825461012d919061025f565b925050819055505b50565b60008054905090565b806000808282546101529190610293565b9250508190555050565b60008060005411905090565b600080fd5b6000819050919050565b6101808161016d565b811461018b57600080fd5b50565b60008135905061019d81610177565b92915050565b6000602082840312156101b9576101b8610168565b5b60006101c78482850161018e565b91505092915050565b60008115159050919050565b6101e5816101d0565b82525050565b600060208201905061020060008301846101dc565b92915050565b61020f8161016d565b82525050565b600060208201905061022a6000830184610206565b92915050565b7f4e487b7100000000000000000000000000000000000000000000000000000000600052601160045260246000fd5b600061026a8261016d565b91506102758361016d565b92508282101561028857610287610230565b5b828203905092915050565b600061029e8261016d565b91506102a98361016d565b9250827fffffffffffffffffffffffffffffffffffffffffffffffffffffffffffffffff038211156102de576102dd610230565b5b82820190509291505056fea2646970667358221220ec14959b1b30145acd243247b62229aadf085e22478af2008b37d5e92ce8748e64736f6c63430008090033",
  "linkReferences": {},
  "deployedLinkReferences": {}
}