{
  "_format": "hh-sol-artifact-1",
  "contractName": "MyContract",
  "sourceName": "contracts/getting_started_with_solidity/21_inheritance/MyContract.sol",
  "abi": [
    {
      "inputs": [],
      "name": "balance",
      "outputs": [
        {
          "internalType": "uint256",
          "name": "",
          "type": "uint256"
        }
      ],
      "stateMutability": "view",
      "type": "function"
    },
    {
      "inputs": [
        {
          "internalType": "uint256",
          "name": "amount",
          "type": "uint256"
        }
      ],
      "name": "checkValue",
      "outputs": [
        {
          "internalType": "bool",
          "name": "",
          "type": "bool"
        }
      ],
      "stateMutability": "view",
      "type": "function"
    },
    {
      "inputs": [
        {
          "internalType": "uint256",
          "name": "amount",
          "type": "uint256"
        }
      ],
      "name": "deposit",
      "outputs": [],
      "stateMutability": "nonpayable",
      "type": "function"
    },
    {
      "inputs": [],
      "name": "getAge",
      "outputs": [
        {
          "internalType": "uint256",
          "name": "",
          "type": "uint256"
        }
      ],
      "stateMutability": "view",
      "type": "function"
    },
    {
      "inputs": [],
      "name": "getName",
      "outputs": [
        {
          "internalType": "string",
          "name": "",
          "type": "string"
        }
      ],
      "stateMutability": "view",
      "type": "function"
    },
    {
      "inputs": [],
      "name": "loan",
      "outputs": [
        {
          "internalType": "bool",
          "name": "",
          "type": "bool"
        }
      ],
      "stateMutability": "view",
      "type": "function"
    },
    {
      "inputs": [
        {
          "internalType": "uint256",
          "name": "newAge",
          "type": "uint256"
        }
      ],
      "name": "setAge",
      "outputs": [],
      "stateMutability": "nonpayable",
      "type": "function"
    },
    {
      "inputs": [
        {
          "internalType": "string",
          "name": "newName",
          "type": "string"
        }
      ],
      "name": "setName",
      "outputs": [],
      "stateMutability": "nonpayable",
      "type": "function"
    },
    {
      "inputs": [
        {
          "internalType": "uint256",
          "name": "amount",
          "type": "uint256"
        }
      ],
      "name": "withdraw",
      "outputs": [],
      "stateMutability": "nonpayable",
      "type": "function"
    }
  ],
  "bytecode": "0x608060405234801561001057600080fd5b50600a8060008190555033600160006101000a81548173ffffffffffffffffffffffffffffffffffffffff021916908373ffffffffffffffffffffffffffffffffffffffff160217905550506107db8061006b6000396000f3fe608060405234801561001057600080fd5b50600436106100935760003560e01c8063b69ef8a811610066578063b69ef8a814610120578063b6b55f251461013e578063c47f00271461015a578063d285b7b414610176578063d5dcf1271461019457610093565b806317d7de7c1461009857806318db62fb146100b65780632e1a7d4d146100e6578063967e6e6514610102575b600080fd5b6100a06101b0565b6040516100ad9190610414565b60405180910390f35b6100d060048036038101906100cb9190610480565b610242565b6040516100dd91906104c8565b60405180910390f35b61010060048036038101906100fb9190610480565b610250565b005b61010a61027a565b60405161011791906104f2565b60405180910390f35b610128610284565b60405161013591906104f2565b60405180910390f35b61015860048036038101906101539190610480565b61028d565b005b610174600480360381019061016f9190610642565b6102a8565b005b61017e6102c2565b60405161018b91906104c8565b60405180910390f35b6101ae60048036038101906101a99190610480565b6102ce565b005b6060600280546101bf906106ba565b80601f01602080910402602001604051908101604052809291908181526020018280546101eb906106ba565b80156102385780601f1061020d57610100808354040283529160200191610238565b820191906000526020600020905b81548152906001019060200180831161021b57829003601f168201915b5050505050905090565b600080548210159050919050565b61025981610242565b15610277578060008082825461026f919061071b565b925050819055505b50565b6000600354905090565b60008054905090565b8060008082825461029e919061074f565b9250508190555050565b80600290805190602001906102be9291906102d8565b5050565b60008060005411905090565b8060038190555050565b8280546102e4906106ba565b90600052602060002090601f016020900481019282610306576000855561034d565b82601f1061031f57805160ff191683800117855561034d565b8280016001018555821561034d579182015b8281111561034c578251825591602001919060010190610331565b5b50905061035a919061035e565b5090565b5b8082111561037757600081600090555060010161035f565b5090565b600081519050919050565b600082825260208201905092915050565b60005b838110156103b557808201518184015260208101905061039a565b838111156103c4576000848401525b50505050565b6000601f19601f8301169050919050565b60006103e68261037b565b6103f08185610386565b9350610400818560208601610397565b610409816103ca565b840191505092915050565b6000602082019050818103600083015261042e81846103db565b905092915050565b6000604051905090565b600080fd5b600080fd5b6000819050919050565b61045d8161044a565b811461046857600080fd5b50565b60008135905061047a81610454565b92915050565b60006020828403121561049657610495610440565b5b60006104a48482850161046b565b91505092915050565b60008115159050919050565b6104c2816104ad565b82525050565b60006020820190506104dd60008301846104b9565b92915050565b6104ec8161044a565b82525050565b600060208201905061050760008301846104e3565b92915050565b600080fd5b600080fd5b7f4e487b7100000000000000000000000000000000000000000000000000000000600052604160045260246000fd5b61054f826103ca565b810181811067ffffffffffffffff8211171561056e5761056d610517565b5b80604052505050565b6000610581610436565b905061058d8282610546565b919050565b600067ffffffffffffffff8211156105ad576105ac610517565b5b6105b6826103ca565b9050602081019050919050565b82818337600083830152505050565b60006105e56105e084610592565b610577565b90508281526020810184848401111561060157610600610512565b5b61060c8482856105c3565b509392505050565b600082601f8301126106295761062861050d565b5b81356106398482602086016105d2565b91505092915050565b60006020828403121561065857610657610440565b5b600082013567ffffffffffffffff81111561067657610675610445565b5b61068284828501610614565b91505092915050565b7f4e487b7100000000000000000000000000000000000000000000000000000000600052602260045260246000fd5b600060028204905060018216806106d257607f821691505b602082108114156106e6576106e561068b565b5b50919050565b7f4e487b7100000000000000000000000000000000000000000000000000000000600052601160045260246000fd5b60006107268261044a565b91506107318361044a565b925082821015610744576107436106ec565b5b828203905092915050565b600061075a8261044a565b91506107658361044a565b9250827fffffffffffffffffffffffffffffffffffffffffffffffffffffffffffffffff0382111561079a576107996106ec565b5b82820190509291505056fea2646970667358221220adc440187e2e1f5588a84fbe36c57e9ef16c68746b53c51b2cef9a017272897f64736f6c63430008090033",
  "linkReferences": {},
  "deployedLinkReferences": {}
}