{
  "_format": "hh-sol-artifact-1",
  "contractName": "MyNFTToken",
  "sourceName": "contracts/road_to_web3/week_01/NFT_ERC721.sol",
  "abi": [
    {
      "inputs": [],
      "stateMutability": "nonpayable",
      "type": "constructor"
    },
    {
      "anonymous": false,
      "inputs": [
        {
          "indexed": true,
          "internalType": "address",
          "name": "owner",
          "type": "address"
        },
        {
          "indexed": true,
          "internalType": "address",
          "name": "approved",
          "type": "address"
        },
        {
          "indexed": true,
          "internalType": "uint256",
          "name": "tokenId",
          "type": "uint256"
        }
      ],
      "name": "Approval",
      "type": "event"
    },
    {
      "anonymous": false,
      "inputs": [
        {
          "indexed": true,
          "internalType": "address",
          "name": "owner",
          "type": "address"
        },
        {
          "indexed": true,
          "internalType": "address",
          "name": "operator",
          "type": "address"
        },
        {
          "indexed": false,
          "internalType": "bool",
          "name": "approved",
          "type": "bool"
        }
      ],
      "name": "ApprovalForAll",
      "type": "event"
    },
    {
      "anonymous": false,
      "inputs": [
        {
          "indexed": true,
          "internalType": "address",
          "name": "from",
          "type": "address"
        },
        {
          "indexed": true,
          "internalType": "address",
          "name": "to",
          "type": "address"
        },
        {
          "indexed": true,
          "internalType": "uint256",
          "name": "tokenId",
          "type": "uint256"
        }
      ],
      "name": "Transfer",
      "type": "event"
    },
    {
      "inputs": [
        {
          "internalType": "address",
          "name": "to",
          "type": "address"
        },
        {
          "internalType": "uint256",
          "name": "tokenId",
          "type": "uint256"
        }
      ],
      "name": "approve",
      "outputs": [],
      "stateMutability": "nonpayable",
      "type": "function"
    },
    {
      "inputs": [
        {
          "internalType": "address",
          "name": "owner",
          "type": "address"
        }
      ],
      "name": "balanceOf",
      "outputs": [
        {
          "internalType": "uint256",
          "name": "",
          "type": "uint256"
        }
      ],
      "stateMutability": "view",
      "type": "function"
    },
    {
      "inputs": [
        {
          "internalType": "uint256",
          "name": "tokenId",
          "type": "uint256"
        }
      ],
      "name": "getApproved",
      "outputs": [
        {
          "internalType": "address",
          "name": "",
          "type": "address"
        }
      ],
      "stateMutability": "view",
      "type": "function"
    },
    {
      "inputs": [
        {
          "internalType": "address",
          "name": "owner",
          "type": "address"
        },
        {
          "internalType": "address",
          "name": "operator",
          "type": "address"
        }
      ],
      "name": "isApprovedForAll",
      "outputs": [
        {
          "internalType": "bool",
          "name": "",
          "type": "bool"
        }
      ],
      "stateMutability": "view",
      "type": "function"
    },
    {
      "inputs": [],
      "name": "name",
      "outputs": [
        {
          "internalType": "string",
          "name": "",
          "type": "string"
        }
      ],
      "stateMutability": "view",
      "type": "function"
    },
    {
      "inputs": [
        {
          "internalType": "uint256",
          "name": "tokenId",
          "type": "uint256"
        }
      ],
      "name": "ownerOf",
      "outputs": [
        {
          "internalType": "address",
          "name": "",
          "type": "address"
        }
      ],
      "stateMutability": "view",
      "type": "function"
    },
    {
      "inputs": [
        {
          "internalType": "address",
          "name": "to",
          "type": "address"
        },
        {
          "internalType": "string",
          "name": "uri",
          "type": "string"
        }
      ],
      "name": "safeMint",
      "outputs": [],
      "stateMutability": "nonpayable",
      "type": "function"
    },
    {
      "inputs": [
        {
          "internalType": "address",
          "name": "from",
          "type": "address"
        },
        {
          "internalType": "address",
          "name": "to",
          "type": "address"
        },
        {
          "internalType": "uint256",
          "name": "tokenId",
          "type": "uint256"
        }
      ],
      "name": "safeTransferFrom",
      "outputs": [],
      "stateMutability": "nonpayable",
      "type": "function"
    },
    {
      "inputs": [
        {
          "internalType": "address",
          "name": "from",
          "type": "address"
        },
        {
          "internalType": "address",
          "name": "to",
          "type": "address"
        },
        {
          "internalType": "uint256",
          "name": "tokenId",
          "type": "uint256"
        },
        {
          "internalType": "bytes",
          "name": "data",
          "type": "bytes"
        }
      ],
      "name": "safeTransferFrom",
      "outputs": [],
      "stateMutability": "nonpayable",
      "type": "function"
    },
    {
      "inputs": [
        {
          "internalType": "address",
          "name": "operator",
          "type": "address"
        },
        {
          "internalType": "bool",
          "name": "approved",
          "type": "bool"
        }
      ],
      "name": "setApprovalForAll",
      "outputs": [],
      "stateMutability": "nonpayable",
      "type": "function"
    },
    {
      "inputs": [
        {
          "internalType": "bytes4",
          "name": "interfaceId",
          "type": "bytes4"
        }
      ],
      "name": "supportsInterface",
      "outputs": [
        {
          "internalType": "bool",
          "name": "",
          "type": "bool"
        }
      ],
      "stateMutability": "view",
      "type": "function"
    },
    {
      "inputs": [],
      "name": "symbol",
      "outputs": [
        {
          "internalType": "string",
          "name": "",
          "type": "string"
        }
      ],
      "stateMutability": "view",
      "type": "function"
    },
    {
      "inputs": [
        {
          "internalType": "uint256",
          "name": "index",
          "type": "uint256"
        }
      ],
      "name": "tokenByIndex",
      "outputs": [
        {
          "internalType": "uint256",
          "name": "",
          "type": "uint256"
        }
      ],
      "stateMutability": "view",
      "type": "function"
    },
    {
      "inputs": [
        {
          "internalType": "address",
          "name": "owner",
          "type": "address"
        },
        {
          "internalType": "uint256",
          "name": "index",
          "type": "uint256"
        }
      ],
      "name": "tokenOfOwnerByIndex",
      "outputs": [
        {
          "internalType": "uint256",
          "name": "",
          "type": "uint256"
        }
      ],
      "stateMutability": "view",
      "type": "function"
    },
    {
      "inputs": [
        {
          "internalType": "uint256",
          "name": "tokenId",
          "type": "uint256"
        }
      ],
      "name": "tokenURI",
      "outputs": [
        {
          "internalType": "string",
          "name": "",
          "type": "string"
        }
      ],
      "stateMutability": "view",
      "type": "function"
    },
    {
      "inputs": [],
      "name": "totalSupply",
      "outputs": [
        {
          "internalType": "uint256",
          "name": "",
          "type": "uint256"
        }
      ],
      "stateMutability": "view",
      "type": "function"
    },
    {
      "inputs": [
        {
          "internalType": "address",
          "name": "from",
          "type": "address"
        },
        {
          "internalType": "address",
          "name": "to",
          "type": "address"
        },
        {
          "internalType": "uint256",
          "name": "tokenId",
          "type": "uint256"
        }
      ],
      "name": "transferFrom",
      "outputs": [],
      "stateMutability": "nonpayable",
      "type": "function"
    }
  ],
  "bytecode": "0x60806040523480156200001157600080fd5b506040518060400160405280600a81526020017f4d794e4654546f6b656e000000000000000000000000000000000000000000008152506040518060400160405280600481526020017f4d4e465400000000000000000000000000000000000000000000000000000000815250816000908051906020019062000096929190620000b8565b508060019080519060200190620000af929190620000b8565b505050620001cd565b828054620000c69062000197565b90600052602060002090601f016020900481019282620000ea576000855562000136565b82601f106200010557805160ff191683800117855562000136565b8280016001018555821562000136579182015b828111156200013557825182559160200191906001019062000118565b5b50905062000145919062000149565b5090565b5b80821115620001645760008160009055506001016200014a565b5090565b7f4e487b7100000000000000000000000000000000000000000000000000000000600052602260045260246000fd5b60006002820490506001821680620001b057607f821691505b60208210811415620001c757620001c662000168565b5b50919050565b61322880620001dd6000396000f3fe608060405234801561001057600080fd5b506004361061010b5760003560e01c80634f6ccce7116100a2578063a22cb46511610071578063a22cb465146102de578063b88d4fde146102fa578063c87b56dd14610316578063d204c45e14610346578063e985e9c5146103625761010b565b80634f6ccce7146102305780636352211e1461026057806370a082311461029057806395d89b41146102c05761010b565b806318160ddd116100de57806318160ddd146101aa57806323b872dd146101c85780632f745c59146101e457806342842e0e146102145761010b565b806301ffc9a71461011057806306fdde0314610140578063081812fc1461015e578063095ea7b31461018e575b600080fd5b61012a60048036038101906101259190612039565b610392565b6040516101379190612081565b60405180910390f35b6101486103a4565b6040516101559190612135565b60405180910390f35b6101786004803603810190610173919061218d565b610436565b60405161018591906121fb565b60405180910390f35b6101a860048036038101906101a39190612242565b61047c565b005b6101b2610594565b6040516101bf9190612291565b60405180910390f35b6101e260048036038101906101dd91906122ac565b6105a1565b005b6101fe60048036038101906101f99190612242565b610601565b60405161020b9190612291565b60405180910390f35b61022e600480360381019061022991906122ac565b6106a6565b005b61024a6004803603810190610245919061218d565b6106c6565b6040516102579190612291565b60405180910390f35b61027a6004803603810190610275919061218d565b610737565b60405161028791906121fb565b60405180910390f35b6102aa60048036038101906102a591906122ff565b6107e9565b6040516102b79190612291565b60405180910390f35b6102c86108a1565b6040516102d59190612135565b60405180910390f35b6102f860048036038101906102f39190612358565b610933565b005b610314600480360381019061030f91906124cd565b610949565b005b610330600480360381019061032b919061218d565b6109ab565b60405161033d9190612135565b60405180910390f35b610360600480360381019061035b91906125f1565b6109bd565b005b61037c6004803603810190610377919061264d565b610ac7565b6040516103899190612081565b60405180910390f35b600061039d82610b5b565b9050919050565b6060600080546103b3906126bc565b80601f01602080910402602001604051908101604052809291908181526020018280546103df906126bc565b801561042c5780601f106104015761010080835404028352916020019161042c565b820191906000526020600020905b81548152906001019060200180831161040f57829003601f168201915b5050505050905090565b600061044182610bd5565b6004600083815260200190815260200160002060009054906101000a900473ffffffffffffffffffffffffffffffffffffffff169050919050565b600061048782610737565b90508073ffffffffffffffffffffffffffffffffffffffff168373ffffffffffffffffffffffffffffffffffffffff1614156104f8576040517f08c379a00000000000000000000000000000000000000000000000000000000081526004016104ef90612760565b60405180910390fd5b8073ffffffffffffffffffffffffffffffffffffffff16610517610c20565b73ffffffffffffffffffffffffffffffffffffffff161480610546575061054581610540610c20565b610ac7565b5b610585576040517f08c379a000000000000000000000000000000000000000000000000000000000815260040161057c906127f2565b60405180910390fd5b61058f8383610c28565b505050565b6000600880549050905090565b6105b26105ac610c20565b82610ce1565b6105f1576040517f08c379a00000000000000000000000000000000000000000000000000000000081526004016105e890612884565b60405180910390fd5b6105fc838383610d76565b505050565b600061060c836107e9565b821061064d576040517f08c379a000000000000000000000000000000000000000000000000000000000815260040161064490612916565b60405180910390fd5b600660008473ffffffffffffffffffffffffffffffffffffffff1673ffffffffffffffffffffffffffffffffffffffff168152602001908152602001600020600083815260200190815260200160002054905092915050565b6106c183838360405180602001604052806000815250610949565b505050565b60006106d0610594565b8210610711576040517f08c379a0000000000000000000000000000000000000000000000000000000008152600401610708906129a8565b60405180910390fd5b60088281548110610725576107246129c8565b5b90600052602060002001549050919050565b6000806002600084815260200190815260200160002060009054906101000a900473ffffffffffffffffffffffffffffffffffffffff169050600073ffffffffffffffffffffffffffffffffffffffff168173ffffffffffffffffffffffffffffffffffffffff1614156107e0576040517f08c379a00000000000000000000000000000000000000000000000000000000081526004016107d790612a43565b60405180910390fd5b80915050919050565b60008073ffffffffffffffffffffffffffffffffffffffff168273ffffffffffffffffffffffffffffffffffffffff16141561085a576040517f08c379a000000000000000000000000000000000000000000000000000000000815260040161085190612ad5565b60405180910390fd5b600360008373ffffffffffffffffffffffffffffffffffffffff1673ffffffffffffffffffffffffffffffffffffffff168152602001908152602001600020549050919050565b6060600180546108b0906126bc565b80601f01602080910402602001604051908101604052809291908181526020018280546108dc906126bc565b80156109295780601f106108fe57610100808354040283529160200191610929565b820191906000526020600020905b81548152906001019060200180831161090c57829003601f168201915b5050505050905090565b61094561093e610c20565b8383610fdd565b5050565b61095a610954610c20565b83610ce1565b610999576040517f08c379a000000000000000000000000000000000000000000000000000000000815260040161099090612884565b60405180910390fd5b6109a58484848461114a565b50505050565b60606109b6826111a6565b9050919050565b6005600c60008473ffffffffffffffffffffffffffffffffffffffff1673ffffffffffffffffffffffffffffffffffffffff1681526020019081526020016000205410610a3f576040517f08c379a0000000000000000000000000000000000000000000000000000000008152600401610a3690612b41565b60405180910390fd5b6000610a4b600b6112b9565b9050610a57600b6112c7565b610a6183826112dd565b610a6b81836112fb565b6001600c60008573ffffffffffffffffffffffffffffffffffffffff1673ffffffffffffffffffffffffffffffffffffffff1681526020019081526020016000206000828254610abb9190612b90565b92505081905550505050565b6000600560008473ffffffffffffffffffffffffffffffffffffffff1673ffffffffffffffffffffffffffffffffffffffff16815260200190815260200160002060008373ffffffffffffffffffffffffffffffffffffffff1673ffffffffffffffffffffffffffffffffffffffff16815260200190815260200160002060009054906101000a900460ff16905092915050565b60007f780e9d63000000000000000000000000000000000000000000000000000000007bffffffffffffffffffffffffffffffffffffffffffffffffffffffff1916827bffffffffffffffffffffffffffffffffffffffffffffffffffffffff19161480610bce5750610bcd8261136f565b5b9050919050565b610bde81611451565b610c1d576040517f08c379a0000000000000000000000000000000000000000000000000000000008152600401610c1490612a43565b60405180910390fd5b50565b600033905090565b816004600083815260200190815260200160002060006101000a81548173ffffffffffffffffffffffffffffffffffffffff021916908373ffffffffffffffffffffffffffffffffffffffff160217905550808273ffffffffffffffffffffffffffffffffffffffff16610c9b83610737565b73ffffffffffffffffffffffffffffffffffffffff167f8c5be1e5ebec7d5bd14f71427d1e84f3dd0314c0f7b2291e5b200ac8c7c3b92560405160405180910390a45050565b600080610ced83610737565b90508073ffffffffffffffffffffffffffffffffffffffff168473ffffffffffffffffffffffffffffffffffffffff161480610d2f5750610d2e8185610ac7565b5b80610d6d57508373ffffffffffffffffffffffffffffffffffffffff16610d5584610436565b73ffffffffffffffffffffffffffffffffffffffff16145b91505092915050565b8273ffffffffffffffffffffffffffffffffffffffff16610d9682610737565b73ffffffffffffffffffffffffffffffffffffffff1614610dec576040517f08c379a0000000000000000000000000000000000000000000000000000000008152600401610de390612c58565b60405180910390fd5b600073ffffffffffffffffffffffffffffffffffffffff168273ffffffffffffffffffffffffffffffffffffffff161415610e5c576040517f08c379a0000000000000000000000000000000000000000000000000000000008152600401610e5390612cea565b60405180910390fd5b610e678383836114bd565b610e72600082610c28565b6001600360008573ffffffffffffffffffffffffffffffffffffffff1673ffffffffffffffffffffffffffffffffffffffff1681526020019081526020016000206000828254610ec29190612d0a565b925050819055506001600360008473ffffffffffffffffffffffffffffffffffffffff1673ffffffffffffffffffffffffffffffffffffffff1681526020019081526020016000206000828254610f199190612b90565b92505081905550816002600083815260200190815260200160002060006101000a81548173ffffffffffffffffffffffffffffffffffffffff021916908373ffffffffffffffffffffffffffffffffffffffff160217905550808273ffffffffffffffffffffffffffffffffffffffff168473ffffffffffffffffffffffffffffffffffffffff167fddf252ad1be2c89b69c2b068fc378daa952ba7f163c4a11628f55a4df523b3ef60405160405180910390a4610fd88383836114cd565b505050565b8173ffffffffffffffffffffffffffffffffffffffff168373ffffffffffffffffffffffffffffffffffffffff16141561104c576040517f08c379a000000000000000000000000000000000000000000000000000000000815260040161104390612d8a565b60405180910390fd5b80600560008573ffffffffffffffffffffffffffffffffffffffff1673ffffffffffffffffffffffffffffffffffffffff16815260200190815260200160002060008473ffffffffffffffffffffffffffffffffffffffff1673ffffffffffffffffffffffffffffffffffffffff16815260200190815260200160002060006101000a81548160ff0219169083151502179055508173ffffffffffffffffffffffffffffffffffffffff168373ffffffffffffffffffffffffffffffffffffffff167f17307eab39ab6107e8899845ad3d59bd9653f200f220920489ca2b5937696c318360405161113d9190612081565b60405180910390a3505050565b611155848484610d76565b611161848484846114d2565b6111a0576040517f08c379a000000000000000000000000000000000000000000000000000000000815260040161119790612e1c565b60405180910390fd5b50505050565b60606111b182610bd5565b6000600a600084815260200190815260200160002080546111d1906126bc565b80601f01602080910402602001604051908101604052809291908181526020018280546111fd906126bc565b801561124a5780601f1061121f5761010080835404028352916020019161124a565b820191906000526020600020905b81548152906001019060200180831161122d57829003601f168201915b50505050509050600061125b611669565b90506000815114156112715781925050506112b4565b6000825111156112a657808260405160200161128e929190612e78565b604051602081830303815290604052925050506112b4565b6112af84611680565b925050505b919050565b600081600001549050919050565b6001816000016000828254019250508190555050565b6112f78282604051806020016040528060008152506116e8565b5050565b61130482611451565b611343576040517f08c379a000000000000000000000000000000000000000000000000000000000815260040161133a90612f0e565b60405180910390fd5b80600a6000848152602001908152602001600020908051906020019061136a929190611f2a565b505050565b60007f80ac58cd000000000000000000000000000000000000000000000000000000007bffffffffffffffffffffffffffffffffffffffffffffffffffffffff1916827bffffffffffffffffffffffffffffffffffffffffffffffffffffffff1916148061143a57507f5b5e139f000000000000000000000000000000000000000000000000000000007bffffffffffffffffffffffffffffffffffffffffffffffffffffffff1916827bffffffffffffffffffffffffffffffffffffffffffffffffffffffff1916145b8061144a575061144982611743565b5b9050919050565b60008073ffffffffffffffffffffffffffffffffffffffff166002600084815260200190815260200160002060009054906101000a900473ffffffffffffffffffffffffffffffffffffffff1673ffffffffffffffffffffffffffffffffffffffff1614159050919050565b6114c88383836117ad565b505050565b505050565b60006114f38473ffffffffffffffffffffffffffffffffffffffff166118c1565b1561165c578373ffffffffffffffffffffffffffffffffffffffff1663150b7a0261151c610c20565b8786866040518563ffffffff1660e01b815260040161153e9493929190612f83565b602060405180830381600087803b15801561155857600080fd5b505af192505050801561158957506040513d601f19601f820116820180604052508101906115869190612fe4565b60015b61160c573d80600081146115b9576040519150601f19603f3d011682016040523d82523d6000602084013e6115be565b606091505b50600081511415611604576040517f08c379a00000000000000000000000000000000000000000000000000000000081526004016115fb90612e1c565b60405180910390fd5b805181602001fd5b63150b7a0260e01b7bffffffffffffffffffffffffffffffffffffffffffffffffffffffff1916817bffffffffffffffffffffffffffffffffffffffffffffffffffffffff191614915050611661565b600190505b949350505050565b606060405180602001604052806000815250905090565b606061168b82610bd5565b6000611695611669565b905060008151116116b557604051806020016040528060008152506116e0565b806116bf846118e4565b6040516020016116d0929190612e78565b6040516020818303038152906040525b915050919050565b6116f28383611a45565b6116ff60008484846114d2565b61173e576040517f08c379a000000000000000000000000000000000000000000000000000000000815260040161173590612e1c565b60405180910390fd5b505050565b60007f01ffc9a7000000000000000000000000000000000000000000000000000000007bffffffffffffffffffffffffffffffffffffffffffffffffffffffff1916827bffffffffffffffffffffffffffffffffffffffffffffffffffffffff1916149050919050565b6117b8838383611c1f565b600073ffffffffffffffffffffffffffffffffffffffff168373ffffffffffffffffffffffffffffffffffffffff1614156117fb576117f681611c24565b61183a565b8173ffffffffffffffffffffffffffffffffffffffff168373ffffffffffffffffffffffffffffffffffffffff1614611839576118388382611c6d565b5b5b600073ffffffffffffffffffffffffffffffffffffffff168273ffffffffffffffffffffffffffffffffffffffff16141561187d5761187881611dda565b6118bc565b8273ffffffffffffffffffffffffffffffffffffffff168273ffffffffffffffffffffffffffffffffffffffff16146118bb576118ba8282611eab565b5b5b505050565b6000808273ffffffffffffffffffffffffffffffffffffffff163b119050919050565b6060600082141561192c576040518060400160405280600181526020017f30000000000000000000000000000000000000000000000000000000000000008152509050611a40565b600082905060005b6000821461195e57808061194790613011565b915050600a826119579190613089565b9150611934565b60008167ffffffffffffffff81111561197a576119796123a2565b5b6040519080825280601f01601f1916602001820160405280156119ac5781602001600182028036833780820191505090505b5090505b60008514611a39576001826119c59190612d0a565b9150600a856119d491906130ba565b60306119e09190612b90565b60f81b8183815181106119f6576119f56129c8565b5b60200101907effffffffffffffffffffffffffffffffffffffffffffffffffffffffffffff1916908160001a905350600a85611a329190613089565b94506119b0565b8093505050505b919050565b600073ffffffffffffffffffffffffffffffffffffffff168273ffffffffffffffffffffffffffffffffffffffff161415611ab5576040517f08c379a0000000000000000000000000000000000000000000000000000000008152600401611aac90613137565b60405180910390fd5b611abe81611451565b15611afe576040517f08c379a0000000000000000000000000000000000000000000000000000000008152600401611af5906131a3565b60405180910390fd5b611b0a600083836114bd565b6001600360008473ffffffffffffffffffffffffffffffffffffffff1673ffffffffffffffffffffffffffffffffffffffff1681526020019081526020016000206000828254611b5a9190612b90565b92505081905550816002600083815260200190815260200160002060006101000a81548173ffffffffffffffffffffffffffffffffffffffff021916908373ffffffffffffffffffffffffffffffffffffffff160217905550808273ffffffffffffffffffffffffffffffffffffffff16600073ffffffffffffffffffffffffffffffffffffffff167fddf252ad1be2c89b69c2b068fc378daa952ba7f163c4a11628f55a4df523b3ef60405160405180910390a4611c1b600083836114cd565b5050565b505050565b6008805490506009600083815260200190815260200160002081905550600881908060018154018082558091505060019003906000526020600020016000909190919091505550565b60006001611c7a846107e9565b611c849190612d0a565b9050600060076000848152602001908152602001600020549050818114611d69576000600660008673ffffffffffffffffffffffffffffffffffffffff1673ffffffffffffffffffffffffffffffffffffffff168152602001908152602001600020600084815260200190815260200160002054905080600660008773ffffffffffffffffffffffffffffffffffffffff1673ffffffffffffffffffffffffffffffffffffffff168152602001908152602001600020600084815260200190815260200160002081905550816007600083815260200190815260200160002081905550505b6007600084815260200190815260200160002060009055600660008573ffffffffffffffffffffffffffffffffffffffff1673ffffffffffffffffffffffffffffffffffffffff16815260200190815260200160002060008381526020019081526020016000206000905550505050565b60006001600880549050611dee9190612d0a565b9050600060096000848152602001908152602001600020549050600060088381548110611e1e57611e1d6129c8565b5b906000526020600020015490508060088381548110611e4057611e3f6129c8565b5b906000526020600020018190555081600960008381526020019081526020016000208190555060096000858152602001908152602001600020600090556008805480611e8f57611e8e6131c3565b5b6001900381819060005260206000200160009055905550505050565b6000611eb6836107e9565b905081600660008573ffffffffffffffffffffffffffffffffffffffff1673ffffffffffffffffffffffffffffffffffffffff168152602001908152602001600020600083815260200190815260200160002081905550806007600084815260200190815260200160002081905550505050565b828054611f36906126bc565b90600052602060002090601f016020900481019282611f585760008555611f9f565b82601f10611f7157805160ff1916838001178555611f9f565b82800160010185558215611f9f579182015b82811115611f9e578251825591602001919060010190611f83565b5b509050611fac9190611fb0565b5090565b5b80821115611fc9576000816000905550600101611fb1565b5090565b6000604051905090565b600080fd5b600080fd5b60007fffffffff0000000000000000000000000000000000000000000000000000000082169050919050565b61201681611fe1565b811461202157600080fd5b50565b6000813590506120338161200d565b92915050565b60006020828403121561204f5761204e611fd7565b5b600061205d84828501612024565b91505092915050565b60008115159050919050565b61207b81612066565b82525050565b60006020820190506120966000830184612072565b92915050565b600081519050919050565b600082825260208201905092915050565b60005b838110156120d65780820151818401526020810190506120bb565b838111156120e5576000848401525b50505050565b6000601f19601f8301169050919050565b60006121078261209c565b61211181856120a7565b93506121218185602086016120b8565b61212a816120eb565b840191505092915050565b6000602082019050818103600083015261214f81846120fc565b905092915050565b6000819050919050565b61216a81612157565b811461217557600080fd5b50565b60008135905061218781612161565b92915050565b6000602082840312156121a3576121a2611fd7565b5b60006121b184828501612178565b91505092915050565b600073ffffffffffffffffffffffffffffffffffffffff82169050919050565b60006121e5826121ba565b9050919050565b6121f5816121da565b82525050565b600060208201905061221060008301846121ec565b92915050565b61221f816121da565b811461222a57600080fd5b50565b60008135905061223c81612216565b92915050565b6000806040838503121561225957612258611fd7565b5b60006122678582860161222d565b925050602061227885828601612178565b9150509250929050565b61228b81612157565b82525050565b60006020820190506122a66000830184612282565b92915050565b6000806000606084860312156122c5576122c4611fd7565b5b60006122d38682870161222d565b93505060206122e48682870161222d565b92505060406122f586828701612178565b9150509250925092565b60006020828403121561231557612314611fd7565b5b60006123238482850161222d565b91505092915050565b61233581612066565b811461234057600080fd5b50565b6000813590506123528161232c565b92915050565b6000806040838503121561236f5761236e611fd7565b5b600061237d8582860161222d565b925050602061238e85828601612343565b9150509250929050565b600080fd5b600080fd5b7f4e487b7100000000000000000000000000000000000000000000000000000000600052604160045260246000fd5b6123da826120eb565b810181811067ffffffffffffffff821117156123f9576123f86123a2565b5b80604052505050565b600061240c611fcd565b905061241882826123d1565b919050565b600067ffffffffffffffff821115612438576124376123a2565b5b612441826120eb565b9050602081019050919050565b82818337600083830152505050565b600061247061246b8461241d565b612402565b90508281526020810184848401111561248c5761248b61239d565b5b61249784828561244e565b509392505050565b600082601f8301126124b4576124b3612398565b5b81356124c484826020860161245d565b91505092915050565b600080600080608085870312156124e7576124e6611fd7565b5b60006124f58782880161222d565b94505060206125068782880161222d565b935050604061251787828801612178565b925050606085013567ffffffffffffffff81111561253857612537611fdc565b5b6125448782880161249f565b91505092959194509250565b600067ffffffffffffffff82111561256b5761256a6123a2565b5b612574826120eb565b9050602081019050919050565b600061259461258f84612550565b612402565b9050828152602081018484840111156125b0576125af61239d565b5b6125bb84828561244e565b509392505050565b600082601f8301126125d8576125d7612398565b5b81356125e8848260208601612581565b91505092915050565b6000806040838503121561260857612607611fd7565b5b60006126168582860161222d565b925050602083013567ffffffffffffffff81111561263757612636611fdc565b5b612643858286016125c3565b9150509250929050565b6000806040838503121561266457612663611fd7565b5b60006126728582860161222d565b92505060206126838582860161222d565b9150509250929050565b7f4e487b7100000000000000000000000000000000000000000000000000000000600052602260045260246000fd5b600060028204905060018216806126d457607f821691505b602082108114156126e8576126e761268d565b5b50919050565b7f4552433732313a20617070726f76616c20746f2063757272656e74206f776e6560008201527f7200000000000000000000000000000000000000000000000000000000000000602082015250565b600061274a6021836120a7565b9150612755826126ee565b604082019050919050565b600060208201905081810360008301526127798161273d565b9050919050565b7f4552433732313a20617070726f76652063616c6c6572206973206e6f7420746f60008201527f6b656e206f776e6572206e6f7220617070726f76656420666f7220616c6c0000602082015250565b60006127dc603e836120a7565b91506127e782612780565b604082019050919050565b6000602082019050818103600083015261280b816127cf565b9050919050565b7f4552433732313a2063616c6c6572206973206e6f7420746f6b656e206f776e6560008201527f72206e6f7220617070726f766564000000000000000000000000000000000000602082015250565b600061286e602e836120a7565b915061287982612812565b604082019050919050565b6000602082019050818103600083015261289d81612861565b9050919050565b7f455243373231456e756d657261626c653a206f776e657220696e646578206f7560008201527f74206f6620626f756e6473000000000000000000000000000000000000000000602082015250565b6000612900602b836120a7565b915061290b826128a4565b604082019050919050565b6000602082019050818103600083015261292f816128f3565b9050919050565b7f455243373231456e756d657261626c653a20676c6f62616c20696e646578206f60008201527f7574206f6620626f756e64730000000000000000000000000000000000000000602082015250565b6000612992602c836120a7565b915061299d82612936565b604082019050919050565b600060208201905081810360008301526129c181612985565b9050919050565b7f4e487b7100000000000000000000000000000000000000000000000000000000600052603260045260246000fd5b7f4552433732313a20696e76616c696420746f6b656e2049440000000000000000600082015250565b6000612a2d6018836120a7565b9150612a38826129f7565b602082019050919050565b60006020820190508181036000830152612a5c81612a20565b9050919050565b7f4552433732313a2061646472657373207a65726f206973206e6f74206120766160008201527f6c6964206f776e65720000000000000000000000000000000000000000000000602082015250565b6000612abf6029836120a7565b9150612aca82612a63565b604082019050919050565b60006020820190508181036000830152612aee81612ab2565b9050919050565b7f416c6c6f77206f6e6c79206d61782035204e4654732070657220757365720000600082015250565b6000612b2b601e836120a7565b9150612b3682612af5565b602082019050919050565b60006020820190508181036000830152612b5a81612b1e565b9050919050565b7f4e487b7100000000000000000000000000000000000000000000000000000000600052601160045260246000fd5b6000612b9b82612157565b9150612ba683612157565b9250827fffffffffffffffffffffffffffffffffffffffffffffffffffffffffffffffff03821115612bdb57612bda612b61565b5b828201905092915050565b7f4552433732313a207472616e736665722066726f6d20696e636f72726563742060008201527f6f776e6572000000000000000000000000000000000000000000000000000000602082015250565b6000612c426025836120a7565b9150612c4d82612be6565b604082019050919050565b60006020820190508181036000830152612c7181612c35565b9050919050565b7f4552433732313a207472616e7366657220746f20746865207a65726f2061646460008201527f7265737300000000000000000000000000000000000000000000000000000000602082015250565b6000612cd46024836120a7565b9150612cdf82612c78565b604082019050919050565b60006020820190508181036000830152612d0381612cc7565b9050919050565b6000612d1582612157565b9150612d2083612157565b925082821015612d3357612d32612b61565b5b828203905092915050565b7f4552433732313a20617070726f766520746f2063616c6c657200000000000000600082015250565b6000612d746019836120a7565b9150612d7f82612d3e565b602082019050919050565b60006020820190508181036000830152612da381612d67565b9050919050565b7f4552433732313a207472616e7366657220746f206e6f6e20455243373231526560008201527f63656976657220696d706c656d656e7465720000000000000000000000000000602082015250565b6000612e066032836120a7565b9150612e1182612daa565b604082019050919050565b60006020820190508181036000830152612e3581612df9565b9050919050565b600081905092915050565b6000612e528261209c565b612e5c8185612e3c565b9350612e6c8185602086016120b8565b80840191505092915050565b6000612e848285612e47565b9150612e908284612e47565b91508190509392505050565b7f45524337323155524953746f726167653a2055524920736574206f66206e6f6e60008201527f6578697374656e7420746f6b656e000000000000000000000000000000000000602082015250565b6000612ef8602e836120a7565b9150612f0382612e9c565b604082019050919050565b60006020820190508181036000830152612f2781612eeb565b9050919050565b600081519050919050565b600082825260208201905092915050565b6000612f5582612f2e565b612f5f8185612f39565b9350612f6f8185602086016120b8565b612f78816120eb565b840191505092915050565b6000608082019050612f9860008301876121ec565b612fa560208301866121ec565b612fb26040830185612282565b8181036060830152612fc48184612f4a565b905095945050505050565b600081519050612fde8161200d565b92915050565b600060208284031215612ffa57612ff9611fd7565b5b600061300884828501612fcf565b91505092915050565b600061301c82612157565b91507fffffffffffffffffffffffffffffffffffffffffffffffffffffffffffffffff82141561304f5761304e612b61565b5b600182019050919050565b7f4e487b7100000000000000000000000000000000000000000000000000000000600052601260045260246000fd5b600061309482612157565b915061309f83612157565b9250826130af576130ae61305a565b5b828204905092915050565b60006130c582612157565b91506130d083612157565b9250826130e0576130df61305a565b5b828206905092915050565b7f4552433732313a206d696e7420746f20746865207a65726f2061646472657373600082015250565b60006131216020836120a7565b915061312c826130eb565b602082019050919050565b6000602082019050818103600083015261315081613114565b9050919050565b7f4552433732313a20746f6b656e20616c7265616479206d696e74656400000000600082015250565b600061318d601c836120a7565b915061319882613157565b602082019050919050565b600060208201905081810360008301526131bc81613180565b9050919050565b7f4e487b7100000000000000000000000000000000000000000000000000000000600052603160045260246000fdfea26469706673582212204552994a20bb9d403253ac4fe58c468da6479af60290b00f668ea584a70b18e564736f6c63430008090033",
  "linkReferences": {},
  "deployedLinkReferences": {}
}