{
  "_format": "hh-sol-artifact-1",
  "contractName": "BuyMeACoffee",
  "sourceName": "contracts/road_to_web3/week_02/BuyMeACoffee.sol",
  "abi": [
    {
      "inputs": [],
      "stateMutability": "nonpayable",
      "type": "constructor"
    },
    {
      "anonymous": false,
      "inputs": [
        {
          "indexed": true,
          "internalType": "address",
          "name": "from",
          "type": "address"
        },
        {
          "indexed": false,
          "internalType": "uint256",
          "name": "timestamp",
          "type": "uint256"
        },
        {
          "indexed": false,
          "internalType": "string",
          "name": "name",
          "type": "string"
        },
        {
          "indexed": false,
          "internalType": "string",
          "name": "message",
          "type": "string"
        }
      ],
      "name": "NewMemo",
      "type": "event"
    },
    {
      "inputs": [
        {
          "internalType": "string",
          "name": "_name",
          "type": "string"
        },
        {
          "internalType": "string",
          "name": "_message",
          "type": "string"
        }
      ],
      "name": "buyCoffee",
      "outputs": [],
      "stateMutability": "payable",
      "type": "function"
    },
    {
      "inputs": [
        {
          "internalType": "address",
          "name": "newOwner",
          "type": "address"
        }
      ],
      "name": "changeOwner",
      "outputs": [],
      "stateMutability": "nonpayable",
      "type": "function"
    },
    {
      "inputs": [],
      "name": "getMemos",
      "outputs": [
        {
          "components": [
            {
              "internalType": "address",
              "name": "from",
              "type": "address"
            },
            {
              "internalType": "uint256",
              "name": "timestamp",
              "type": "uint256"
            },
            {
              "internalType": "string",
              "name": "name",
              "type": "string"
            },
            {
              "internalType": "string",
              "name": "message",
              "type": "string"
            }
          ],
          "internalType": "struct BuyMeACoffee.Memo[]",
          "name": "",
          "type": "tuple[]"
        }
      ],
      "stateMutability": "view",
      "type": "function"
    },
    {
      "inputs": [],
      "name": "owner",
      "outputs": [
        {
          "internalType": "address payable",
          "name": "",
          "type": "address"
        }
      ],
      "stateMutability": "view",
      "type": "function"
    },
    {
      "inputs": [],
      "name": "withdrawTips",
      "outputs": [],
      "stateMutability": "nonpayable",
      "type": "function"
    }
  ],
  "bytecode": "0x608060405234801561001057600080fd5b50336000806101000a81548173ffffffffffffffffffffffffffffffffffffffff021916908373ffffffffffffffffffffffffffffffffffffffff160217905550610d08806100606000396000f3fe60806040526004361061004a5760003560e01c8063204206e11461004f5780633aaa74b21461006b578063865c5172146100825780638da5cb5b146100ad578063a6f9dae1146100d8575b600080fd5b610069600480360381019061006491906107be565b610101565b005b34801561007757600080fd5b50610080610289565b005b34801561008e57600080fd5b506100976102e9565b6040516100a49190610a44565b60405180910390f35b3480156100b957600080fd5b506100c26104cc565b6040516100cf9190610a87565b60405180910390f35b3480156100e457600080fd5b506100ff60048036038101906100fa9190610ace565b6104f0565b005b60003411610144576040517f08c379a000000000000000000000000000000000000000000000000000000000815260040161013b90610b58565b60405180910390fd5b600160405180608001604052803373ffffffffffffffffffffffffffffffffffffffff16815260200142815260200184815260200183815250908060018154018082558091505060019003906000526020600020906004020160009091909190915060008201518160000160006101000a81548173ffffffffffffffffffffffffffffffffffffffff021916908373ffffffffffffffffffffffffffffffffffffffff1602179055506020820151816001015560408201518160020190805190602001906102139291906105c1565b5060608201518160030190805190602001906102309291906105c1565b5050503373ffffffffffffffffffffffffffffffffffffffff167fc56140e05f516509ae28110e0f72e17558a7561630dad2647c3ae87d986e365c42848460405161027d93929190610bc0565b60405180910390a25050565b60008054906101000a900473ffffffffffffffffffffffffffffffffffffffff1673ffffffffffffffffffffffffffffffffffffffff166108fc479081150290604051600060405180830381858888f193505050506102e757600080fd5b565b60606001805480602002602001604051908101604052809291908181526020016000905b828210156104c357838290600052602060002090600402016040518060800160405290816000820160009054906101000a900473ffffffffffffffffffffffffffffffffffffffff1673ffffffffffffffffffffffffffffffffffffffff1673ffffffffffffffffffffffffffffffffffffffff168152602001600182015481526020016002820180546103a090610c34565b80601f01602080910402602001604051908101604052809291908181526020018280546103cc90610c34565b80156104195780601f106103ee57610100808354040283529160200191610419565b820191906000526020600020905b8154815290600101906020018083116103fc57829003601f168201915b5050505050815260200160038201805461043290610c34565b80601f016020809104026020016040519081016040528092919081815260200182805461045e90610c34565b80156104ab5780601f10610480576101008083540402835291602001916104ab565b820191906000526020600020905b81548152906001019060200180831161048e57829003601f168201915b5050505050815250508152602001906001019061030d565b50505050905090565b60008054906101000a900473ffffffffffffffffffffffffffffffffffffffff1681565b60008054906101000a900473ffffffffffffffffffffffffffffffffffffffff1673ffffffffffffffffffffffffffffffffffffffff163373ffffffffffffffffffffffffffffffffffffffff161461057e576040517f08c379a000000000000000000000000000000000000000000000000000000000815260040161057590610cb2565b60405180910390fd5b806000806101000a81548173ffffffffffffffffffffffffffffffffffffffff021916908373ffffffffffffffffffffffffffffffffffffffff16021790555050565b8280546105cd90610c34565b90600052602060002090601f0160209004810192826105ef5760008555610636565b82601f1061060857805160ff1916838001178555610636565b82800160010185558215610636579182015b8281111561063557825182559160200191906001019061061a565b5b5090506106439190610647565b5090565b5b80821115610660576000816000905550600101610648565b5090565b6000604051905090565b600080fd5b600080fd5b600080fd5b600080fd5b6000601f19601f8301169050919050565b7f4e487b7100000000000000000000000000000000000000000000000000000000600052604160045260246000fd5b6106cb82610682565b810181811067ffffffffffffffff821117156106ea576106e9610693565b5b80604052505050565b60006106fd610664565b905061070982826106c2565b919050565b600067ffffffffffffffff82111561072957610728610693565b5b61073282610682565b9050602081019050919050565b82818337600083830152505050565b600061076161075c8461070e565b6106f3565b90508281526020810184848401111561077d5761077c61067d565b5b61078884828561073f565b509392505050565b600082601f8301126107a5576107a4610678565b5b81356107b584826020860161074e565b91505092915050565b600080604083850312156107d5576107d461066e565b5b600083013567ffffffffffffffff8111156107f3576107f2610673565b5b6107ff85828601610790565b925050602083013567ffffffffffffffff8111156108205761081f610673565b5b61082c85828601610790565b9150509250929050565b600081519050919050565b600082825260208201905092915050565b6000819050602082019050919050565b600073ffffffffffffffffffffffffffffffffffffffff82169050919050565b600061088d82610862565b9050919050565b61089d81610882565b82525050565b6000819050919050565b6108b6816108a3565b82525050565b600081519050919050565b600082825260208201905092915050565b60005b838110156108f65780820151818401526020810190506108db565b83811115610905576000848401525b50505050565b6000610916826108bc565b61092081856108c7565b93506109308185602086016108d8565b61093981610682565b840191505092915050565b600060808301600083015161095c6000860182610894565b50602083015161096f60208601826108ad565b5060408301518482036040860152610987828261090b565b915050606083015184820360608601526109a1828261090b565b9150508091505092915050565b60006109ba8383610944565b905092915050565b6000602082019050919050565b60006109da82610836565b6109e48185610841565b9350836020820285016109f685610852565b8060005b85811015610a325784840389528151610a1385826109ae565b9450610a1e836109c2565b925060208a019950506001810190506109fa565b50829750879550505050505092915050565b60006020820190508181036000830152610a5e81846109cf565b905092915050565b6000610a7182610862565b9050919050565b610a8181610a66565b82525050565b6000602082019050610a9c6000830184610a78565b92915050565b610aab81610882565b8114610ab657600080fd5b50565b600081359050610ac881610aa2565b92915050565b600060208284031215610ae457610ae361066e565b5b6000610af284828501610ab9565b91505092915050565b600082825260208201905092915050565b7f63616e6e6f742062757920636f6666656520666f722066726565210000000000600082015250565b6000610b42601b83610afb565b9150610b4d82610b0c565b602082019050919050565b60006020820190508181036000830152610b7181610b35565b9050919050565b610b81816108a3565b82525050565b6000610b92826108bc565b610b9c8185610afb565b9350610bac8185602086016108d8565b610bb581610682565b840191505092915050565b6000606082019050610bd56000830186610b78565b8181036020830152610be78185610b87565b90508181036040830152610bfb8184610b87565b9050949350505050565b7f4e487b7100000000000000000000000000000000000000000000000000000000600052602260045260246000fd5b60006002820490506001821680610c4c57607f821691505b60208210811415610c6057610c5f610c05565b5b50919050565b7f4e6f7420746865206f776e657200000000000000000000000000000000000000600082015250565b6000610c9c600d83610afb565b9150610ca782610c66565b602082019050919050565b60006020820190508181036000830152610ccb81610c8f565b905091905056fea2646970667358221220f945dfbd1f52befcd118e30959eb7f6d3b1e8d861058d1ac51bf718c8f0e87d764736f6c63430008090033",
  "linkReferences": {},
  "deployedLinkReferences": {}
}