{
  "_format": "hh-sol-artifact-1",
  "contractName": "SimpleSwap",
  "sourceName": "contracts/sample_apps/12_uniswap_simple_swap/SimpleSwap.sol",
  "abi": [
    {
      "inputs": [
        {
          "internalType": "contract ISwapRouter",
          "name": "_swapRouter",
          "type": "address"
        }
      ],
      "stateMutability": "nonpayable",
      "type": "constructor"
    },
    {
      "inputs": [],
      "name": "DAI",
      "outputs": [
        {
          "internalType": "address",
          "name": "",
          "type": "address"
        }
      ],
      "stateMutability": "view",
      "type": "function"
    },
    {
      "inputs": [],
      "name": "WETH9",
      "outputs": [
        {
          "internalType": "address",
          "name": "",
          "type": "address"
        }
      ],
      "stateMutability": "view",
      "type": "function"
    },
    {
      "inputs": [],
      "name": "feeTier",
      "outputs": [
        {
          "internalType": "uint24",
          "name": "",
          "type": "uint24"
        }
      ],
      "stateMutability": "view",
      "type": "function"
    },
    {
      "inputs": [],
      "name": "swapRouter",
      "outputs": [
        {
          "internalType": "contract ISwapRouter",
          "name": "",
          "type": "address"
        }
      ],
      "stateMutability": "view",
      "type": "function"
    },
    {
      "inputs": [
        {
          "internalType": "uint256",
          "name": "amountIn",
          "type": "uint256"
        }
      ],
      "name": "swapWETHForDAI",
      "outputs": [
        {
          "internalType": "uint256",
          "name": "amountOut",
          "type": "uint256"
        }
      ],
      "stateMutability": "nonpayable",
      "type": "function"
    }
  ],
  "bytecode": "0x60a060405234801561001057600080fd5b50604051610c6f380380610c6f833981810160405281019061003291906100e1565b8073ffffffffffffffffffffffffffffffffffffffff1660808173ffffffffffffffffffffffffffffffffffffffff16815250505061010e565b600080fd5b600073ffffffffffffffffffffffffffffffffffffffff82169050919050565b600061009c82610071565b9050919050565b60006100ae82610091565b9050919050565b6100be816100a3565b81146100c957600080fd5b50565b6000815190506100db816100b5565b92915050565b6000602082840312156100f7576100f661006c565b5b6000610105848285016100cc565b91505092915050565b608051610b38610137600039600081816101400152818161022e01526102ff0152610b386000f3fe608060405234801561001057600080fd5b50600436106100575760003560e01c80632ed5016f1461005c5780634aa4a4fc1461008c57806372f5d98a146100aa578063c31c9c07146100c8578063e0bab4c4146100e6575b600080fd5b61007660048036038101906100719190610621565b610104565b604051610083919061065d565b60405180910390f35b6100946102df565b6040516100a191906106b9565b60405180910390f35b6100b26102f7565b6040516100bf91906106f2565b60405180910390f35b6100d06102fd565b6040516100dd919061076c565b60405180910390f35b6100ee610321565b6040516100fb91906106b9565b60405180910390f35b600061012673c02aaa39b223fe8d0a0e5c4f27ead9083c756cc2333085610339565b61016573c02aaa39b223fe8d0a0e5c4f27ead9083c756cc27f000000000000000000000000000000000000000000000000000000000000000084610491565b600060405180610100016040528073c02aaa39b223fe8d0a0e5c4f27ead9083c756cc273ffffffffffffffffffffffffffffffffffffffff168152602001736b175474e89094c44da98b954eedeac495271d0f73ffffffffffffffffffffffffffffffffffffffff168152602001610bb862ffffff1681526020013373ffffffffffffffffffffffffffffffffffffffff16815260200142815260200184815260200160008152602001600073ffffffffffffffffffffffffffffffffffffffff1681525090507f000000000000000000000000000000000000000000000000000000000000000073ffffffffffffffffffffffffffffffffffffffff1663414bf389826040518263ffffffff1660e01b81526004016102859190610865565b602060405180830381600087803b15801561029f57600080fd5b505af11580156102b3573d6000803e3d6000fd5b505050506040513d601f19601f820116820180604052508101906102d79190610896565b915050919050565b73c02aaa39b223fe8d0a0e5c4f27ead9083c756cc281565b610bb881565b7f000000000000000000000000000000000000000000000000000000000000000081565b736b175474e89094c44da98b954eedeac495271d0f81565b6000808573ffffffffffffffffffffffffffffffffffffffff166323b872dd60e01b868686604051602401610370939291906108c3565b604051602081830303815290604052907bffffffffffffffffffffffffffffffffffffffffffffffffffffffff19166020820180517bffffffffffffffffffffffffffffffffffffffffffffffffffffffff83818316178352505050506040516103da9190610974565b6000604051808303816000865af19150503d8060008114610417576040519150601f19603f3d011682016040523d82523d6000602084013e61041c565b606091505b509150915081801561044a575060008151148061044957508080602001905181019061044891906109c3565b5b5b610489576040517f08c379a000000000000000000000000000000000000000000000000000000000815260040161048090610a4d565b60405180910390fd5b505050505050565b6000808473ffffffffffffffffffffffffffffffffffffffff1663095ea7b360e01b85856040516024016104c6929190610a6d565b604051602081830303815290604052907bffffffffffffffffffffffffffffffffffffffffffffffffffffffff19166020820180517bffffffffffffffffffffffffffffffffffffffffffffffffffffffff83818316178352505050506040516105309190610974565b6000604051808303816000865af19150503d806000811461056d576040519150601f19603f3d011682016040523d82523d6000602084013e610572565b606091505b50915091508180156105a0575060008151148061059f57508080602001905181019061059e91906109c3565b5b5b6105df576040517f08c379a00000000000000000000000000000000000000000000000000000000081526004016105d690610ae2565b60405180910390fd5b5050505050565b600080fd5b6000819050919050565b6105fe816105eb565b811461060957600080fd5b50565b60008135905061061b816105f5565b92915050565b600060208284031215610637576106366105e6565b5b60006106458482850161060c565b91505092915050565b610657816105eb565b82525050565b6000602082019050610672600083018461064e565b92915050565b600073ffffffffffffffffffffffffffffffffffffffff82169050919050565b60006106a382610678565b9050919050565b6106b381610698565b82525050565b60006020820190506106ce60008301846106aa565b92915050565b600062ffffff82169050919050565b6106ec816106d4565b82525050565b600060208201905061070760008301846106e3565b92915050565b6000819050919050565b600061073261072d61072884610678565b61070d565b610678565b9050919050565b600061074482610717565b9050919050565b600061075682610739565b9050919050565b6107668161074b565b82525050565b6000602082019050610781600083018461075d565b92915050565b61079081610698565b82525050565b61079f816106d4565b82525050565b6107ae816105eb565b82525050565b6107bd81610678565b82525050565b610100820160008201516107da6000850182610787565b5060208201516107ed6020850182610787565b5060408201516108006040850182610796565b5060608201516108136060850182610787565b50608082015161082660808501826107a5565b5060a082015161083960a08501826107a5565b5060c082015161084c60c08501826107a5565b5060e082015161085f60e08501826107b4565b50505050565b60006101008201905061087b60008301846107c3565b92915050565b600081519050610890816105f5565b92915050565b6000602082840312156108ac576108ab6105e6565b5b60006108ba84828501610881565b91505092915050565b60006060820190506108d860008301866106aa565b6108e560208301856106aa565b6108f2604083018461064e565b949350505050565b600081519050919050565b600081905092915050565b60005b8381101561092e578082015181840152602081019050610913565b8381111561093d576000848401525b50505050565b600061094e826108fa565b6109588185610905565b9350610968818560208601610910565b80840191505092915050565b60006109808284610943565b915081905092915050565b60008115159050919050565b6109a08161098b565b81146109ab57600080fd5b50565b6000815190506109bd81610997565b92915050565b6000602082840312156109d9576109d86105e6565b5b60006109e7848285016109ae565b91505092915050565b600082825260208201905092915050565b7f5354460000000000000000000000000000000000000000000000000000000000600082015250565b6000610a376003836109f0565b9150610a4282610a01565b602082019050919050565b60006020820190508181036000830152610a6681610a2a565b9050919050565b6000604082019050610a8260008301856106aa565b610a8f602083018461064e565b9392505050565b7f5341000000000000000000000000000000000000000000000000000000000000600082015250565b6000610acc6002836109f0565b9150610ad782610a96565b602082019050919050565b60006020820190508181036000830152610afb81610abf565b905091905056fea2646970667358221220d9524cd77fcfa0a92124feba991b2ef09f39c6734d3cc440ec8fe5ccdd97376a64736f6c63430008090033",
  "linkReferences": {},
  "deployedLinkReferences": {}
}