{
  "_format": "hh-sol-artifact-1",
  "contractName": "MathLibrary",
  "sourceName": "contracts/getting_started_with_solidity/23_libraries/MathLibrary.sol",
  "abi": [
    {
      "inputs": [
        {
          "internalType": "uint256",
          "name": "a",
          "type": "uint256"
        },
        {
          "internalType": "uint256",
          "name": "b",
          "type": "uint256"
        }
      ],
      "name": "multiply",
      "outputs": [
        {
          "internalType": "uint256",
          "name": "",
          "type": "uint256"
        },
        {
          "internalType": "address",
          "name": "",
          "type": "address"
        }
      ],
      "stateMutability": "view",
      "type": "function"
    }
  ],
  "bytecode": "0x610239610053600b82828239805160001a607314610046577f4e487b7100000000000000000000000000000000000000000000000000000000600052600060045260246000fd5b30600052607381538281f3fe73000000000000000000000000000000000000000030146080604052600436106100355760003560e01c8063165c4a161461003a575b600080fd5b610054600480360381019061004f91906100c1565b61006b565b604051610062929190610151565b60405180910390f35b600080828461007a91906101a9565b30915091509250929050565b600080fd5b6000819050919050565b61009e8161008b565b81146100a957600080fd5b50565b6000813590506100bb81610095565b92915050565b600080604083850312156100d8576100d7610086565b5b60006100e6858286016100ac565b92505060206100f7858286016100ac565b9150509250929050565b61010a8161008b565b82525050565b600073ffffffffffffffffffffffffffffffffffffffff82169050919050565b600061013b82610110565b9050919050565b61014b81610130565b82525050565b60006040820190506101666000830185610101565b6101736020830184610142565b9392505050565b7f4e487b7100000000000000000000000000000000000000000000000000000000600052601160045260246000fd5b60006101b48261008b565b91506101bf8361008b565b9250817fffffffffffffffffffffffffffffffffffffffffffffffffffffffffffffffff04831182151516156101f8576101f761017a565b5b82820290509291505056fea2646970667358221220fffdae44ed05843edb8cd462e10ed03486d921c9175095990748e8671e63aa8764736f6c63430008090033",
  "linkReferences": {},
  "deployedLinkReferences": {}
}