{
  "_format": "hh-sol-artifact-1",
  "contractName": "BullnBear",
  "sourceName": "contracts/road_to_web3/week_05/BullnBear.sol",
  "abi": [
    {
      "inputs": [
        {
          "internalType": "uint256",
          "name": "updateInterval",
          "type": "uint256"
        },
        {
          "internalType": "uint64",
          "name": "subscriptionId",
          "type": "uint64"
        },
        {
          "internalType": "bytes32",
          "name": "keyhash",
          "type": "bytes32"
        },
        {
          "internalType": "address",
          "name": "vrfCoordinator",
          "type": "address"
        },
        {
          "internalType": "address",
          "name": "priceFeed",
          "type": "address"
        }
      ],
      "stateMutability": "nonpayable",
      "type": "constructor"
    },
    {
      "inputs": [
        {
          "internalType": "address",
          "name": "have",
          "type": "address"
        },
        {
          "internalType": "address",
          "name": "want",
          "type": "address"
        }
      ],
      "name": "OnlyCoordinatorCanFulfill",
      "type": "error"
    },
    {
      "anonymous": false,
      "inputs": [
        {
          "indexed": true,
          "internalType": "address",
          "name": "owner",
          "type": "address"
        },
        {
          "indexed": true,
          "internalType": "address",
          "name": "approved",
          "type": "address"
        },
        {
          "indexed": true,
          "internalType": "uint256",
          "name": "tokenId",
          "type": "uint256"
        }
      ],
      "name": "Approval",
      "type": "event"
    },
    {
      "anonymous": false,
      "inputs": [
        {
          "indexed": true,
          "internalType": "address",
          "name": "owner",
          "type": "address"
        },
        {
          "indexed": true,
          "internalType": "address",
          "name": "operator",
          "type": "address"
        },
        {
          "indexed": false,
          "internalType": "bool",
          "name": "approved",
          "type": "bool"
        }
      ],
      "name": "ApprovalForAll",
      "type": "event"
    },
    {
      "anonymous": false,
      "inputs": [
        {
          "indexed": true,
          "internalType": "address",
          "name": "previousOwner",
          "type": "address"
        },
        {
          "indexed": true,
          "internalType": "address",
          "name": "newOwner",
          "type": "address"
        }
      ],
      "name": "OwnershipTransferred",
      "type": "event"
    },
    {
      "anonymous": false,
      "inputs": [
        {
          "indexed": false,
          "internalType": "string",
          "name": "marketTrend",
          "type": "string"
        }
      ],
      "name": "TokensUpdatd",
      "type": "event"
    },
    {
      "anonymous": false,
      "inputs": [
        {
          "indexed": true,
          "internalType": "address",
          "name": "from",
          "type": "address"
        },
        {
          "indexed": true,
          "internalType": "address",
          "name": "to",
          "type": "address"
        },
        {
          "indexed": true,
          "internalType": "uint256",
          "name": "tokenId",
          "type": "uint256"
        }
      ],
      "name": "Transfer",
      "type": "event"
    },
    {
      "inputs": [],
      "name": "COORDINATOR",
      "outputs": [
        {
          "internalType": "contract VRFCoordinatorV2Interface",
          "name": "",
          "type": "address"
        }
      ],
      "stateMutability": "view",
      "type": "function"
    },
    {
      "inputs": [
        {
          "internalType": "address",
          "name": "to",
          "type": "address"
        },
        {
          "internalType": "uint256",
          "name": "tokenId",
          "type": "uint256"
        }
      ],
      "name": "approve",
      "outputs": [],
      "stateMutability": "nonpayable",
      "type": "function"
    },
    {
      "inputs": [
        {
          "internalType": "address",
          "name": "owner",
          "type": "address"
        }
      ],
      "name": "balanceOf",
      "outputs": [
        {
          "internalType": "uint256",
          "name": "",
          "type": "uint256"
        }
      ],
      "stateMutability": "view",
      "type": "function"
    },
    {
      "inputs": [],
      "name": "callbackGasLimit",
      "outputs": [
        {
          "internalType": "uint32",
          "name": "",
          "type": "uint32"
        }
      ],
      "stateMutability": "view",
      "type": "function"
    },
    {
      "inputs": [
        {
          "internalType": "bytes",
          "name": "",
          "type": "bytes"
        }
      ],
      "name": "checkUpkeep",
      "outputs": [
        {
          "internalType": "bool",
          "name": "",
          "type": "bool"
        },
        {
          "internalType": "bytes",
          "name": "",
          "type": "bytes"
        }
      ],
      "stateMutability": "view",
      "type": "function"
    },
    {
      "inputs": [],
      "name": "currentMarketTrend",
      "outputs": [
        {
          "internalType": "enum BullnBear.MarketTrend",
          "name": "",
          "type": "uint8"
        }
      ],
      "stateMutability": "view",
      "type": "function"
    },
    {
      "inputs": [],
      "name": "currentPrice",
      "outputs": [
        {
          "internalType": "int256",
          "name": "",
          "type": "int256"
        }
      ],
      "stateMutability": "view",
      "type": "function"
    },
    {
      "inputs": [
        {
          "internalType": "uint256",
          "name": "tokenId",
          "type": "uint256"
        }
      ],
      "name": "getApproved",
      "outputs": [
        {
          "internalType": "address",
          "name": "",
          "type": "address"
        }
      ],
      "stateMutability": "view",
      "type": "function"
    },
    {
      "inputs": [],
      "name": "getLatestPrice",
      "outputs": [
        {
          "internalType": "int256",
          "name": "price",
          "type": "int256"
        }
      ],
      "stateMutability": "view",
      "type": "function"
    },
    {
      "inputs": [],
      "name": "interval",
      "outputs": [
        {
          "internalType": "uint256",
          "name": "",
          "type": "uint256"
        }
      ],
      "stateMutability": "view",
      "type": "function"
    },
    {
      "inputs": [
        {
          "internalType": "address",
          "name": "owner",
          "type": "address"
        },
        {
          "internalType": "address",
          "name": "operator",
          "type": "address"
        }
      ],
      "name": "isApprovedForAll",
      "outputs": [
        {
          "internalType": "bool",
          "name": "",
          "type": "bool"
        }
      ],
      "stateMutability": "view",
      "type": "function"
    },
    {
      "inputs": [],
      "name": "lastTimeStamp",
      "outputs": [
        {
          "internalType": "uint256",
          "name": "",
          "type": "uint256"
        }
      ],
      "stateMutability": "view",
      "type": "function"
    },
    {
      "inputs": [],
      "name": "minConfirmations",
      "outputs": [
        {
          "internalType": "uint8",
          "name": "",
          "type": "uint8"
        }
      ],
      "stateMutability": "view",
      "type": "function"
    },
    {
      "inputs": [],
      "name": "name",
      "outputs": [
        {
          "internalType": "string",
          "name": "",
          "type": "string"
        }
      ],
      "stateMutability": "view",
      "type": "function"
    },
    {
      "inputs": [],
      "name": "numOfRandomWords",
      "outputs": [
        {
          "internalType": "uint8",
          "name": "",
          "type": "uint8"
        }
      ],
      "stateMutability": "view",
      "type": "function"
    },
    {
      "inputs": [],
      "name": "owner",
      "outputs": [
        {
          "internalType": "address",
          "name": "",
          "type": "address"
        }
      ],
      "stateMutability": "view",
      "type": "function"
    },
    {
      "inputs": [
        {
          "internalType": "uint256",
          "name": "tokenId",
          "type": "uint256"
        }
      ],
      "name": "ownerOf",
      "outputs": [
        {
          "internalType": "address",
          "name": "",
          "type": "address"
        }
      ],
      "stateMutability": "view",
      "type": "function"
    },
    {
      "inputs": [
        {
          "internalType": "bytes",
          "name": "",
          "type": "bytes"
        }
      ],
      "name": "performUpkeep",
      "outputs": [],
      "stateMutability": "nonpayable",
      "type": "function"
    },
    {
      "inputs": [
        {
          "internalType": "uint256",
          "name": "requestId",
          "type": "uint256"
        },
        {
          "internalType": "uint256[]",
          "name": "randomWords",
          "type": "uint256[]"
        }
      ],
      "name": "rawFulfillRandomWords",
      "outputs": [],
      "stateMutability": "nonpayable",
      "type": "function"
    },
    {
      "inputs": [],
      "name": "renounceOwnership",
      "outputs": [],
      "stateMutability": "nonpayable",
      "type": "function"
    },
    {
      "inputs": [
        {
          "internalType": "address",
          "name": "to",
          "type": "address"
        }
      ],
      "name": "safeMint",
      "outputs": [],
      "stateMutability": "nonpayable",
      "type": "function"
    },
    {
      "inputs": [
        {
          "internalType": "address",
          "name": "from",
          "type": "address"
        },
        {
          "internalType": "address",
          "name": "to",
          "type": "address"
        },
        {
          "internalType": "uint256",
          "name": "tokenId",
          "type": "uint256"
        }
      ],
      "name": "safeTransferFrom",
      "outputs": [],
      "stateMutability": "nonpayable",
      "type": "function"
    },
    {
      "inputs": [
        {
          "internalType": "address",
          "name": "from",
          "type": "address"
        },
        {
          "internalType": "address",
          "name": "to",
          "type": "address"
        },
        {
          "internalType": "uint256",
          "name": "tokenId",
          "type": "uint256"
        },
        {
          "internalType": "bytes",
          "name": "data",
          "type": "bytes"
        }
      ],
      "name": "safeTransferFrom",
      "outputs": [],
      "stateMutability": "nonpayable",
      "type": "function"
    },
    {
      "inputs": [
        {
          "internalType": "address",
          "name": "operator",
          "type": "address"
        },
        {
          "internalType": "bool",
          "name": "approved",
          "type": "bool"
        }
      ],
      "name": "setApprovalForAll",
      "outputs": [],
      "stateMutability": "nonpayable",
      "type": "function"
    },
    {
      "inputs": [
        {
          "internalType": "bytes4",
          "name": "interfaceId",
          "type": "bytes4"
        }
      ],
      "name": "supportsInterface",
      "outputs": [
        {
          "internalType": "bool",
          "name": "",
          "type": "bool"
        }
      ],
      "stateMutability": "view",
      "type": "function"
    },
    {
      "inputs": [],
      "name": "symbol",
      "outputs": [
        {
          "internalType": "string",
          "name": "",
          "type": "string"
        }
      ],
      "stateMutability": "view",
      "type": "function"
    },
    {
      "inputs": [
        {
          "internalType": "uint256",
          "name": "index",
          "type": "uint256"
        }
      ],
      "name": "tokenByIndex",
      "outputs": [
        {
          "internalType": "uint256",
          "name": "",
          "type": "uint256"
        }
      ],
      "stateMutability": "view",
      "type": "function"
    },
    {
      "inputs": [
        {
          "internalType": "address",
          "name": "owner",
          "type": "address"
        },
        {
          "internalType": "uint256",
          "name": "index",
          "type": "uint256"
        }
      ],
      "name": "tokenOfOwnerByIndex",
      "outputs": [
        {
          "internalType": "uint256",
          "name": "",
          "type": "uint256"
        }
      ],
      "stateMutability": "view",
      "type": "function"
    },
    {
      "inputs": [
        {
          "internalType": "uint256",
          "name": "tokenId",
          "type": "uint256"
        }
      ],
      "name": "tokenURI",
      "outputs": [
        {
          "internalType": "string",
          "name": "",
          "type": "string"
        }
      ],
      "stateMutability": "view",
      "type": "function"
    },
    {
      "inputs": [],
      "name": "totalSupply",
      "outputs": [
        {
          "internalType": "uint256",
          "name": "",
          "type": "uint256"
        }
      ],
      "stateMutability": "view",
      "type": "function"
    },
    {
      "inputs": [
        {
          "internalType": "address",
          "name": "from",
          "type": "address"
        },
        {
          "internalType": "address",
          "name": "to",
          "type": "address"
        },
        {
          "internalType": "uint256",
          "name": "tokenId",
          "type": "uint256"
        }
      ],
      "name": "transferFrom",
      "outputs": [],
      "stateMutability": "nonpayable",
      "type": "function"
    },
    {
      "inputs": [
        {
          "internalType": "address",
          "name": "newOwner",
          "type": "address"
        }
      ],
      "name": "transferOwnership",
      "outputs": [],
      "stateMutability": "nonpayable",
      "type": "function"
    },
    {
      "inputs": [],
      "name": "vrfKeyhash",
      "outputs": [
        {
          "internalType": "bytes32",
          "name": "",
          "type": "bytes32"
        }
      ],
      "stateMutability": "view",
      "type": "function"
    },
    {
      "inputs": [
        {
          "internalType": "uint256",
          "name": "",
          "type": "uint256"
        }
      ],
      "name": "vrfRandomWords",
      "outputs": [
        {
          "internalType": "uint256",
          "name": "",
          "type": "uint256"
        }
      ],
      "stateMutability": "view",
      "type": "function"
    },
    {
      "inputs": [],
      "name": "vrfRequestId",
      "outputs": [
        {
          "internalType": "uint256",
          "name": "",
          "type": "uint256"
        }
      ],
      "stateMutability": "view",
      "type": "function"
    },
    {
      "inputs": [],
      "name": "vrfSubscriptionId",
      "outputs": [
        {
          "internalType": "uint64",
          "name": "",
          "type": "uint64"
        }
      ],
      "stateMutability": "view",
      "type": "function"
    }
  ],
  "bytecode": "0x6101006040526000601360006101000a81548160ff021916908360018111156200002e576200002d62000621565b5b021790555060405180606001604052806040518060800160405280605c815260200162004f27605c913981526020016040518060800160405280605c81526020016200503d605c913981526020016040518060800160405280605d815260200162004eca605d91398152506014906003620000ab9291906200049c565b5060405180606001604052806040518060800160405280605d815260200162004fe0605d913981526020016040518060800160405280605d815260200162005099605d913981526020016040518060800160405280605d815260200162004f83605d91398152506015906003620001249291906200049c565b503480156200013257600080fd5b50604051620050f6380380620050f6833981810160405281019062000158919062000775565b816040518060400160405280600981526020017f42756c6c6e4265617200000000000000000000000000000000000000000000008152506040518060400160405280600581526020017f424e42544b0000000000000000000000000000000000000000000000000000008152508160009080519060200190620001dd92919062000503565b508060019080519060200190620001f692919062000503565b505050620002196200020d6200031660201b60201c565b6200031e60201b60201c565b8073ffffffffffffffffffffffffffffffffffffffff1660808173ffffffffffffffffffffffffffffffffffffffff16815250505084601081905550426011819055508367ffffffffffffffff1660c08167ffffffffffffffff16815250508260e081815250508173ffffffffffffffffffffffffffffffffffffffff1660a08173ffffffffffffffffffffffffffffffffffffffff168152505080600d60006101000a81548173ffffffffffffffffffffffffffffffffffffffff021916908373ffffffffffffffffffffffffffffffffffffffff16021790555062000305620003e460201b60201c565b60128190555050505050506200096c565b600033905090565b6000600b60009054906101000a900473ffffffffffffffffffffffffffffffffffffffff16905081600b60006101000a81548173ffffffffffffffffffffffffffffffffffffffff021916908373ffffffffffffffffffffffffffffffffffffffff1602179055508173ffffffffffffffffffffffffffffffffffffffff168173ffffffffffffffffffffffffffffffffffffffff167f8be0079c531659141344cd1fd0a4f28419497f9722a3daafe3b4186f6b6457e060405160405180910390a35050565b6000600d60009054906101000a900473ffffffffffffffffffffffffffffffffffffffff1673ffffffffffffffffffffffffffffffffffffffff1663feaf968c6040518163ffffffff1660e01b815260040160a06040518083038186803b1580156200044f57600080fd5b505afa15801562000464573d6000803e3d6000fd5b505050506040513d601f19601f820116820180604052508101906200048a91906200087f565b90919293509091509050508091505090565b828054828255906000526020600020908101928215620004f0579160200282015b82811115620004ef578251829080519060200190620004de92919062000503565b5091602001919060010190620004bd565b5b509050620004ff919062000594565b5090565b828054620005119062000936565b90600052602060002090601f01602090048101928262000535576000855562000581565b82601f106200055057805160ff191683800117855562000581565b8280016001018555821562000581579182015b828111156200058057825182559160200191906001019062000563565b5b509050620005909190620005bc565b5090565b5b80821115620005b85760008181620005ae9190620005db565b5060010162000595565b5090565b5b80821115620005d7576000816000905550600101620005bd565b5090565b508054620005e99062000936565b6000825580601f10620005fd57506200061e565b601f0160209004906000526020600020908101906200061d9190620005bc565b5b50565b7f4e487b7100000000000000000000000000000000000000000000000000000000600052602160045260246000fd5b600080fd5b6000819050919050565b6200066a8162000655565b81146200067657600080fd5b50565b6000815190506200068a816200065f565b92915050565b600067ffffffffffffffff82169050919050565b620006af8162000690565b8114620006bb57600080fd5b50565b600081519050620006cf81620006a4565b92915050565b6000819050919050565b620006ea81620006d5565b8114620006f657600080fd5b50565b6000815190506200070a81620006df565b92915050565b600073ffffffffffffffffffffffffffffffffffffffff82169050919050565b60006200073d8262000710565b9050919050565b6200074f8162000730565b81146200075b57600080fd5b50565b6000815190506200076f8162000744565b92915050565b600080600080600060a0868803121562000794576200079362000650565b5b6000620007a48882890162000679565b9550506020620007b788828901620006be565b9450506040620007ca88828901620006f9565b9350506060620007dd888289016200075e565b9250506080620007f0888289016200075e565b9150509295509295909350565b600069ffffffffffffffffffff82169050919050565b6200081e81620007fd565b81146200082a57600080fd5b50565b6000815190506200083e8162000813565b92915050565b6000819050919050565b620008598162000844565b81146200086557600080fd5b50565b60008151905062000879816200084e565b92915050565b600080600080600060a086880312156200089e576200089d62000650565b5b6000620008ae888289016200082d565b9550506020620008c18882890162000868565b9450506040620008d48882890162000679565b9350506060620008e78882890162000679565b9250506080620008fa888289016200082d565b9150509295509295909350565b7f4e487b7100000000000000000000000000000000000000000000000000000000600052602260045260246000fd5b600060028204905060018216806200094f57607f821691505b6020821081141562000966576200096562000907565b5b50919050565b60805160a05160c05160e051614508620009c2600039600081816106e90152611a4a0152600081816111cf0152611a6b015260008181610aee0152611a0e015260008181610922015261097601526145086000f3fe608060405234801561001057600080fd5b506004361061021b5760003560e01c80636b85cf4a11610125578063a22cb465116100ad578063e7c4393e1161007c578063e7c4393e14610641578063e985e9c51461065f578063ed647d211461068f578063f0e8b3ae146106ad578063f2fde38b146106cb5761021b565b8063a22cb465146105a9578063b88d4fde146105c5578063c87b56dd146105e1578063e4c2a473146106115761021b565b80638da5cb5b116100f45780638da5cb5b146105135780638e15f47314610531578063947a36fb1461054f57806395d89b411461056d5780639d1b464a1461058b5761021b565b80636b85cf4a1461048a5780636e04ff0d146104a857806370a08231146104d9578063715018a6146105095761021b565b806324f74697116101a857806340d097c31161017757806340d097c3146103d657806342842e0e146103f25780634585e33b1461040e5780634f6ccce71461042a5780636352211e1461045a5761021b565b806324f746971461034c5780632f745c591461036a5780633b2bcbf11461039a5780633f3b3b27146103b85761021b565b8063095ea7b3116101ef578063095ea7b3146102bc57806318160ddd146102d857806318a7ea5f146102f65780631fe543e31461031457806323b872dd146103305761021b565b8062d9416a1461022057806301ffc9a71461023e57806306fdde031461026e578063081812fc1461028c575b600080fd5b6102286106e7565b6040516102359190612c8f565b60405180910390f35b61025860048036038101906102539190612d16565b61070b565b6040516102659190612d5e565b60405180910390f35b61027661071d565b6040516102839190612e12565b60405180910390f35b6102a660048036038101906102a19190612e6a565b6107af565b6040516102b39190612ed8565b60405180910390f35b6102d660048036038101906102d19190612f1f565b6107f5565b005b6102e061090d565b6040516102ed9190612f6e565b60405180910390f35b6102fe61091a565b60405161030b9190612f6e565b60405180910390f35b61032e600480360381019061032991906130d1565b610920565b005b61034a6004803603810190610345919061312d565b6109e0565b005b610354610a40565b604051610361919061319f565b60405180910390f35b610384600480360381019061037f9190612f1f565b610a47565b6040516103919190612f6e565b60405180910390f35b6103a2610aec565b6040516103af9190613219565b60405180910390f35b6103c0610b10565b6040516103cd9190612f6e565b60405180910390f35b6103f060048036038101906103eb9190613234565b610b16565b005b61040c6004803603810190610407919061312d565b610bfb565b005b610428600480360381019061042391906132bc565b610c1b565b005b610444600480360381019061043f9190612e6a565b610ca7565b6040516104519190612f6e565b60405180910390f35b610474600480360381019061046f9190612e6a565b610d18565b6040516104819190612ed8565b60405180910390f35b610492610dca565b60405161049f9190613325565b60405180910390f35b6104c260048036038101906104bd91906132bc565b610dcf565b6040516104d0929190613395565b60405180910390f35b6104f360048036038101906104ee9190613234565b610e3e565b6040516105009190612f6e565b60405180910390f35b610511610ef6565b005b61051b610f0a565b6040516105289190612ed8565b60405180910390f35b610539610f34565b60405161054691906133de565b60405180910390f35b610557610fe8565b6040516105649190612f6e565b60405180910390f35b610575610fee565b6040516105829190612e12565b60405180910390f35b610593611080565b6040516105a091906133de565b60405180910390f35b6105c360048036038101906105be9190613425565b611086565b005b6105df60048036038101906105da919061351a565b61109c565b005b6105fb60048036038101906105f69190612e6a565b6110fe565b6040516106089190612e12565b60405180910390f35b61062b60048036038101906106269190612e6a565b611110565b6040516106389190612f6e565b60405180910390f35b610649611134565b6040516106569190613325565b60405180910390f35b6106796004803603810190610674919061359d565b611139565b6040516106869190612d5e565b60405180910390f35b6106976111cd565b6040516106a49190613600565b60405180910390f35b6106b56111f1565b6040516106c29190613692565b60405180910390f35b6106e560048036038101906106e09190613234565b611204565b005b7f000000000000000000000000000000000000000000000000000000000000000081565b600061071682611288565b9050919050565b60606000805461072c906136dc565b80601f0160208091040260200160405190810160405280929190818152602001828054610758906136dc565b80156107a55780601f1061077a576101008083540402835291602001916107a5565b820191906000526020600020905b81548152906001019060200180831161078857829003601f168201915b5050505050905090565b60006107ba82611302565b6004600083815260200190815260200160002060009054906101000a900473ffffffffffffffffffffffffffffffffffffffff169050919050565b600061080082610d18565b90508073ffffffffffffffffffffffffffffffffffffffff168373ffffffffffffffffffffffffffffffffffffffff161415610871576040517f08c379a000000000000000000000000000000000000000000000000000000000815260040161086890613780565b60405180910390fd5b8073ffffffffffffffffffffffffffffffffffffffff1661089061134d565b73ffffffffffffffffffffffffffffffffffffffff1614806108bf57506108be816108b961134d565b611139565b5b6108fe576040517f08c379a00000000000000000000000000000000000000000000000000000000081526004016108f590613812565b60405180910390fd5b6109088383611355565b505050565b6000600880549050905090565b600f5481565b7f000000000000000000000000000000000000000000000000000000000000000073ffffffffffffffffffffffffffffffffffffffff163373ffffffffffffffffffffffffffffffffffffffff16146109d257337f00000000000000000000000000000000000000000000000000000000000000006040517f1cf993f40000000000000000000000000000000000000000000000000000000081526004016109c9929190613832565b60405180910390fd5b6109dc828261140e565b5050565b6109f16109eb61134d565b826115dc565b610a30576040517f08c379a0000000000000000000000000000000000000000000000000000000008152600401610a27906138cd565b60405180910390fd5b610a3b838383611671565b505050565b6207a12081565b6000610a5283610e3e565b8210610a93576040517f08c379a0000000000000000000000000000000000000000000000000000000008152600401610a8a9061395f565b60405180910390fd5b600660008473ffffffffffffffffffffffffffffffffffffffff1673ffffffffffffffffffffffffffffffffffffffff168152602001908152602001600020600083815260200190815260200160002054905092915050565b7f000000000000000000000000000000000000000000000000000000000000000081565b60115481565b610b1e6118d8565b6000610b2a600c611956565b9050610b36600c611964565b610b40828261197a565b60006014600081548110610b5757610b5661397f565b5b906000526020600020018054610b6c906136dc565b80601f0160208091040260200160405190810160405280929190818152602001828054610b98906136dc565b8015610be55780601f10610bba57610100808354040283529160200191610be5565b820191906000526020600020905b815481529060010190602001808311610bc857829003601f168201915b50505050509050610bf68282611998565b505050565b610c168383836040518060200160405280600081525061109c565b505050565b60105460115442610c2c91906139dd565b1115610ca257426011819055506000610c43610f34565b9050601254811415610c555750610ca3565b6012548113610c65576001610c68565b60005b601360006101000a81548160ff02191690836001811115610c8c57610c8b61361b565b5b021790555080601281905550610ca0611a0c565b505b5b5050565b6000610cb161090d565b8210610cf2576040517f08c379a0000000000000000000000000000000000000000000000000000000008152600401610ce990613a83565b60405180910390fd5b60088281548110610d0657610d0561397f565b5b90600052602060002001549050919050565b6000806002600084815260200190815260200160002060009054906101000a900473ffffffffffffffffffffffffffffffffffffffff169050600073ffffffffffffffffffffffffffffffffffffffff168173ffffffffffffffffffffffffffffffffffffffff161415610dc1576040517f08c379a0000000000000000000000000000000000000000000000000000000008152600401610db890613aef565b60405180910390fd5b80915050919050565b600181565b6000606060105460115442610de491906139dd565b11600067ffffffffffffffff811115610e0057610dff612f8e565b5b6040519080825280601f01601f191660200182016040528015610e325781602001600182028036833780820191505090505b50915091509250929050565b60008073ffffffffffffffffffffffffffffffffffffffff168273ffffffffffffffffffffffffffffffffffffffff161415610eaf576040517f08c379a0000000000000000000000000000000000000000000000000000000008152600401610ea690613b81565b60405180910390fd5b600360008373ffffffffffffffffffffffffffffffffffffffff1673ffffffffffffffffffffffffffffffffffffffff168152602001908152602001600020549050919050565b610efe6118d8565b610f086000611b0c565b565b6000600b60009054906101000a900473ffffffffffffffffffffffffffffffffffffffff16905090565b6000600d60009054906101000a900473ffffffffffffffffffffffffffffffffffffffff1673ffffffffffffffffffffffffffffffffffffffff1663feaf968c6040518163ffffffff1660e01b815260040160a06040518083038186803b158015610f9e57600080fd5b505afa158015610fb2573d6000803e3d6000fd5b505050506040513d601f19601f82011682018060405250810190610fd69190613c24565b90919293509091509050508091505090565b60105481565b606060018054610ffd906136dc565b80601f0160208091040260200160405190810160405280929190818152602001828054611029906136dc565b80156110765780601f1061104b57610100808354040283529160200191611076565b820191906000526020600020905b81548152906001019060200180831161105957829003601f168201915b5050505050905090565b60125481565b61109861109161134d565b8383611bd2565b5050565b6110ad6110a761134d565b836115dc565b6110ec576040517f08c379a00000000000000000000000000000000000000000000000000000000081526004016110e3906138cd565b60405180910390fd5b6110f884848484611d3f565b50505050565b606061110982611d9b565b9050919050565b600e818154811061112057600080fd5b906000526020600020016000915090505481565b600381565b6000600560008473ffffffffffffffffffffffffffffffffffffffff1673ffffffffffffffffffffffffffffffffffffffff16815260200190815260200160002060008373ffffffffffffffffffffffffffffffffffffffff1673ffffffffffffffffffffffffffffffffffffffff16815260200190815260200160002060009054906101000a900460ff16905092915050565b7f000000000000000000000000000000000000000000000000000000000000000081565b601360009054906101000a900460ff1681565b61120c6118d8565b600073ffffffffffffffffffffffffffffffffffffffff168173ffffffffffffffffffffffffffffffffffffffff16141561127c576040517f08c379a000000000000000000000000000000000000000000000000000000000815260040161127390613d11565b60405180910390fd5b61128581611b0c565b50565b60007f780e9d63000000000000000000000000000000000000000000000000000000007bffffffffffffffffffffffffffffffffffffffffffffffffffffffff1916827bffffffffffffffffffffffffffffffffffffffffffffffffffffffff191614806112fb57506112fa82611eae565b5b9050919050565b61130b81611f90565b61134a576040517f08c379a000000000000000000000000000000000000000000000000000000000815260040161134190613aef565b60405180910390fd5b50565b600033905090565b816004600083815260200190815260200160002060006101000a81548173ffffffffffffffffffffffffffffffffffffffff021916908373ffffffffffffffffffffffffffffffffffffffff160217905550808273ffffffffffffffffffffffffffffffffffffffff166113c883610d18565b73ffffffffffffffffffffffffffffffffffffffff167f8c5be1e5ebec7d5bd14f71427d1e84f3dd0314c0f7b2291e5b200ac8c7c3b92560405160405180910390a45050565b81600f5414611452576040517f08c379a000000000000000000000000000000000000000000000000000000000815260040161144990613d7d565b60405180910390fd5b80600e9080519060200190611468929190612b86565b50600080600181111561147e5761147d61361b565b5b601360009054906101000a900460ff1660018111156114a05761149f61361b565b5b146114ac5760156114af565b60145b805480602002602001604051908101604052809291908181526020016000905b8282101561157b5783829060005260206000200180546114ee906136dc565b80601f016020809104026020016040519081016040528092919081815260200182805461151a906136dc565b80156115675780601f1061153c57610100808354040283529160200191611567565b820191906000526020600020905b81548152906001019060200180831161154a57829003601f168201915b5050505050815260200190600101906114cf565b50505050905060008151836000815181106115995761159861397f565b5b60200260200101516115ab9190613dcc565b905060008282815181106115c2576115c161397f565b5b602002602001015190506115d581611ffc565b5050505050565b6000806115e883610d18565b90508073ffffffffffffffffffffffffffffffffffffffff168473ffffffffffffffffffffffffffffffffffffffff16148061162a57506116298185611139565b5b8061166857508373ffffffffffffffffffffffffffffffffffffffff16611650846107af565b73ffffffffffffffffffffffffffffffffffffffff16145b91505092915050565b8273ffffffffffffffffffffffffffffffffffffffff1661169182610d18565b73ffffffffffffffffffffffffffffffffffffffff16146116e7576040517f08c379a00000000000000000000000000000000000000000000000000000000081526004016116de90613e6f565b60405180910390fd5b600073ffffffffffffffffffffffffffffffffffffffff168273ffffffffffffffffffffffffffffffffffffffff161415611757576040517f08c379a000000000000000000000000000000000000000000000000000000000815260040161174e90613f01565b60405180910390fd5b611762838383612119565b61176d600082611355565b6001600360008573ffffffffffffffffffffffffffffffffffffffff1673ffffffffffffffffffffffffffffffffffffffff16815260200190815260200160002060008282546117bd91906139dd565b925050819055506001600360008473ffffffffffffffffffffffffffffffffffffffff1673ffffffffffffffffffffffffffffffffffffffff16815260200190815260200160002060008282546118149190613f21565b92505081905550816002600083815260200190815260200160002060006101000a81548173ffffffffffffffffffffffffffffffffffffffff021916908373ffffffffffffffffffffffffffffffffffffffff160217905550808273ffffffffffffffffffffffffffffffffffffffff168473ffffffffffffffffffffffffffffffffffffffff167fddf252ad1be2c89b69c2b068fc378daa952ba7f163c4a11628f55a4df523b3ef60405160405180910390a46118d3838383612129565b505050565b6118e061134d565b73ffffffffffffffffffffffffffffffffffffffff166118fe610f0a565b73ffffffffffffffffffffffffffffffffffffffff1614611954576040517f08c379a000000000000000000000000000000000000000000000000000000000815260040161194b90613fc3565b60405180910390fd5b565b600081600001549050919050565b6001816000016000828254019250508190555050565b61199482826040518060200160405280600081525061212e565b5050565b6119a182611f90565b6119e0576040517f08c379a00000000000000000000000000000000000000000000000000000000081526004016119d790614055565b60405180910390fd5b80600a60008481526020019081526020016000209080519060200190611a07929190612bd3565b505050565b7f000000000000000000000000000000000000000000000000000000000000000073ffffffffffffffffffffffffffffffffffffffff16635d3b1d307f00000000000000000000000000000000000000000000000000000000000000007f000000000000000000000000000000000000000000000000000000000000000060036207a12060016040518663ffffffff1660e01b8152600401611ab29594939291906140e5565b602060405180830381600087803b158015611acc57600080fd5b505af1158015611ae0573d6000803e3d6000fd5b505050506040513d601f19601f82011682018060405250810190611b049190614138565b600f81905550565b6000600b60009054906101000a900473ffffffffffffffffffffffffffffffffffffffff16905081600b60006101000a81548173ffffffffffffffffffffffffffffffffffffffff021916908373ffffffffffffffffffffffffffffffffffffffff1602179055508173ffffffffffffffffffffffffffffffffffffffff168173ffffffffffffffffffffffffffffffffffffffff167f8be0079c531659141344cd1fd0a4f28419497f9722a3daafe3b4186f6b6457e060405160405180910390a35050565b8173ffffffffffffffffffffffffffffffffffffffff168373ffffffffffffffffffffffffffffffffffffffff161415611c41576040517f08c379a0000000000000000000000000000000000000000000000000000000008152600401611c38906141b1565b60405180910390fd5b80600560008573ffffffffffffffffffffffffffffffffffffffff1673ffffffffffffffffffffffffffffffffffffffff16815260200190815260200160002060008473ffffffffffffffffffffffffffffffffffffffff1673ffffffffffffffffffffffffffffffffffffffff16815260200190815260200160002060006101000a81548160ff0219169083151502179055508173ffffffffffffffffffffffffffffffffffffffff168373ffffffffffffffffffffffffffffffffffffffff167f17307eab39ab6107e8899845ad3d59bd9653f200f220920489ca2b5937696c3183604051611d329190612d5e565b60405180910390a3505050565b611d4a848484611671565b611d5684848484612189565b611d95576040517f08c379a0000000000000000000000000000000000000000000000000000000008152600401611d8c90614243565b60405180910390fd5b50505050565b6060611da682611302565b6000600a60008481526020019081526020016000208054611dc6906136dc565b80601f0160208091040260200160405190810160405280929190818152602001828054611df2906136dc565b8015611e3f5780601f10611e1457610100808354040283529160200191611e3f565b820191906000526020600020905b815481529060010190602001808311611e2257829003601f168201915b505050505090506000611e50612320565b9050600081511415611e66578192505050611ea9565b600082511115611e9b578082604051602001611e8392919061429f565b60405160208183030381529060405292505050611ea9565b611ea484612337565b925050505b919050565b60007f80ac58cd000000000000000000000000000000000000000000000000000000007bffffffffffffffffffffffffffffffffffffffffffffffffffffffff1916827bffffffffffffffffffffffffffffffffffffffffffffffffffffffff19161480611f7957507f5b5e139f000000000000000000000000000000000000000000000000000000007bffffffffffffffffffffffffffffffffffffffffffffffffffffffff1916827bffffffffffffffffffffffffffffffffffffffffffffffffffffffff1916145b80611f895750611f888261239f565b5b9050919050565b60008073ffffffffffffffffffffffffffffffffffffffff166002600084815260200190815260200160002060009054906101000a900473ffffffffffffffffffffffffffffffffffffffff1673ffffffffffffffffffffffffffffffffffffffff1614159050919050565b60005b612009600c611956565b81101561202d5761201a8183611998565b8080612025906142c3565b915050611fff565b5060008060018111156120435761204261361b565b5b601360009054906101000a900460ff1660018111156120655761206461361b565b5b146120a5576040518060400160405280600781526020017f62656172697368000000000000000000000000000000000000000000000000008152506120dc565b6040518060400160405280600781526020017f62756c6c697368000000000000000000000000000000000000000000000000008152505b90507fe8493f115fa76cb4e0482c1e712bec28fc2ef9232e41a755d3817cce20ce75538160405161210d9190612e12565b60405180910390a15050565b612124838383612409565b505050565b505050565b612138838361251d565b6121456000848484612189565b612184576040517f08c379a000000000000000000000000000000000000000000000000000000000815260040161217b90614243565b60405180910390fd5b505050565b60006121aa8473ffffffffffffffffffffffffffffffffffffffff166126f7565b15612313578373ffffffffffffffffffffffffffffffffffffffff1663150b7a026121d361134d565b8786866040518563ffffffff1660e01b81526004016121f5949392919061430c565b602060405180830381600087803b15801561220f57600080fd5b505af192505050801561224057506040513d601f19601f8201168201806040525081019061223d919061436d565b60015b6122c3573d8060008114612270576040519150601f19603f3d011682016040523d82523d6000602084013e612275565b606091505b506000815114156122bb576040517f08c379a00000000000000000000000000000000000000000000000000000000081526004016122b290614243565b60405180910390fd5b805181602001fd5b63150b7a0260e01b7bffffffffffffffffffffffffffffffffffffffffffffffffffffffff1916817bffffffffffffffffffffffffffffffffffffffffffffffffffffffff191614915050612318565b600190505b949350505050565b606060405180602001604052806000815250905090565b606061234282611302565b600061234c612320565b9050600081511161236c5760405180602001604052806000815250612397565b806123768461271a565b60405160200161238792919061429f565b6040516020818303038152906040525b915050919050565b60007f01ffc9a7000000000000000000000000000000000000000000000000000000007bffffffffffffffffffffffffffffffffffffffffffffffffffffffff1916827bffffffffffffffffffffffffffffffffffffffffffffffffffffffff1916149050919050565b61241483838361287b565b600073ffffffffffffffffffffffffffffffffffffffff168373ffffffffffffffffffffffffffffffffffffffff1614156124575761245281612880565b612496565b8173ffffffffffffffffffffffffffffffffffffffff168373ffffffffffffffffffffffffffffffffffffffff16146124955761249483826128c9565b5b5b600073ffffffffffffffffffffffffffffffffffffffff168273ffffffffffffffffffffffffffffffffffffffff1614156124d9576124d481612a36565b612518565b8273ffffffffffffffffffffffffffffffffffffffff168273ffffffffffffffffffffffffffffffffffffffff1614612517576125168282612b07565b5b5b505050565b600073ffffffffffffffffffffffffffffffffffffffff168273ffffffffffffffffffffffffffffffffffffffff16141561258d576040517f08c379a0000000000000000000000000000000000000000000000000000000008152600401612584906143e6565b60405180910390fd5b61259681611f90565b156125d6576040517f08c379a00000000000000000000000000000000000000000000000000000000081526004016125cd90614452565b60405180910390fd5b6125e260008383612119565b6001600360008473ffffffffffffffffffffffffffffffffffffffff1673ffffffffffffffffffffffffffffffffffffffff16815260200190815260200160002060008282546126329190613f21565b92505081905550816002600083815260200190815260200160002060006101000a81548173ffffffffffffffffffffffffffffffffffffffff021916908373ffffffffffffffffffffffffffffffffffffffff160217905550808273ffffffffffffffffffffffffffffffffffffffff16600073ffffffffffffffffffffffffffffffffffffffff167fddf252ad1be2c89b69c2b068fc378daa952ba7f163c4a11628f55a4df523b3ef60405160405180910390a46126f360008383612129565b5050565b6000808273ffffffffffffffffffffffffffffffffffffffff163b119050919050565b60606000821415612762576040518060400160405280600181526020017f30000000000000000000000000000000000000000000000000000000000000008152509050612876565b600082905060005b6000821461279457808061277d906142c3565b915050600a8261278d9190614472565b915061276a565b60008167ffffffffffffffff8111156127b0576127af612f8e565b5b6040519080825280601f01601f1916602001820160405280156127e25781602001600182028036833780820191505090505b5090505b6000851461286f576001826127fb91906139dd565b9150600a8561280a9190613dcc565b60306128169190613f21565b60f81b81838151811061282c5761282b61397f565b5b60200101907effffffffffffffffffffffffffffffffffffffffffffffffffffffffffffff1916908160001a905350600a856128689190614472565b94506127e6565b8093505050505b919050565b505050565b6008805490506009600083815260200190815260200160002081905550600881908060018154018082558091505060019003906000526020600020016000909190919091505550565b600060016128d684610e3e565b6128e091906139dd565b90506000600760008481526020019081526020016000205490508181146129c5576000600660008673ffffffffffffffffffffffffffffffffffffffff1673ffffffffffffffffffffffffffffffffffffffff168152602001908152602001600020600084815260200190815260200160002054905080600660008773ffffffffffffffffffffffffffffffffffffffff1673ffffffffffffffffffffffffffffffffffffffff168152602001908152602001600020600084815260200190815260200160002081905550816007600083815260200190815260200160002081905550505b6007600084815260200190815260200160002060009055600660008573ffffffffffffffffffffffffffffffffffffffff1673ffffffffffffffffffffffffffffffffffffffff16815260200190815260200160002060008381526020019081526020016000206000905550505050565b60006001600880549050612a4a91906139dd565b9050600060096000848152602001908152602001600020549050600060088381548110612a7a57612a7961397f565b5b906000526020600020015490508060088381548110612a9c57612a9b61397f565b5b906000526020600020018190555081600960008381526020019081526020016000208190555060096000858152602001908152602001600020600090556008805480612aeb57612aea6144a3565b5b6001900381819060005260206000200160009055905550505050565b6000612b1283610e3e565b905081600660008573ffffffffffffffffffffffffffffffffffffffff1673ffffffffffffffffffffffffffffffffffffffff168152602001908152602001600020600083815260200190815260200160002081905550806007600084815260200190815260200160002081905550505050565b828054828255906000526020600020908101928215612bc2579160200282015b82811115612bc1578251825591602001919060010190612ba6565b5b509050612bcf9190612c59565b5090565b828054612bdf906136dc565b90600052602060002090601f016020900481019282612c015760008555612c48565b82601f10612c1a57805160ff1916838001178555612c48565b82800160010185558215612c48579182015b82811115612c47578251825591602001919060010190612c2c565b5b509050612c559190612c59565b5090565b5b80821115612c72576000816000905550600101612c5a565b5090565b6000819050919050565b612c8981612c76565b82525050565b6000602082019050612ca46000830184612c80565b92915050565b6000604051905090565b600080fd5b600080fd5b60007fffffffff0000000000000000000000000000000000000000000000000000000082169050919050565b612cf381612cbe565b8114612cfe57600080fd5b50565b600081359050612d1081612cea565b92915050565b600060208284031215612d2c57612d2b612cb4565b5b6000612d3a84828501612d01565b91505092915050565b60008115159050919050565b612d5881612d43565b82525050565b6000602082019050612d736000830184612d4f565b92915050565b600081519050919050565b600082825260208201905092915050565b60005b83811015612db3578082015181840152602081019050612d98565b83811115612dc2576000848401525b50505050565b6000601f19601f8301169050919050565b6000612de482612d79565b612dee8185612d84565b9350612dfe818560208601612d95565b612e0781612dc8565b840191505092915050565b60006020820190508181036000830152612e2c8184612dd9565b905092915050565b6000819050919050565b612e4781612e34565b8114612e5257600080fd5b50565b600081359050612e6481612e3e565b92915050565b600060208284031215612e8057612e7f612cb4565b5b6000612e8e84828501612e55565b91505092915050565b600073ffffffffffffffffffffffffffffffffffffffff82169050919050565b6000612ec282612e97565b9050919050565b612ed281612eb7565b82525050565b6000602082019050612eed6000830184612ec9565b92915050565b612efc81612eb7565b8114612f0757600080fd5b50565b600081359050612f1981612ef3565b92915050565b60008060408385031215612f3657612f35612cb4565b5b6000612f4485828601612f0a565b9250506020612f5585828601612e55565b9150509250929050565b612f6881612e34565b82525050565b6000602082019050612f836000830184612f5f565b92915050565b600080fd5b7f4e487b7100000000000000000000000000000000000000000000000000000000600052604160045260246000fd5b612fc682612dc8565b810181811067ffffffffffffffff82111715612fe557612fe4612f8e565b5b80604052505050565b6000612ff8612caa565b90506130048282612fbd565b919050565b600067ffffffffffffffff82111561302457613023612f8e565b5b602082029050602081019050919050565b600080fd5b600061304d61304884613009565b612fee565b905080838252602082019050602084028301858111156130705761306f613035565b5b835b8181101561309957806130858882612e55565b845260208401935050602081019050613072565b5050509392505050565b600082601f8301126130b8576130b7612f89565b5b81356130c884826020860161303a565b91505092915050565b600080604083850312156130e8576130e7612cb4565b5b60006130f685828601612e55565b925050602083013567ffffffffffffffff81111561311757613116612cb9565b5b613123858286016130a3565b9150509250929050565b60008060006060848603121561314657613145612cb4565b5b600061315486828701612f0a565b935050602061316586828701612f0a565b925050604061317686828701612e55565b9150509250925092565b600063ffffffff82169050919050565b61319981613180565b82525050565b60006020820190506131b46000830184613190565b92915050565b6000819050919050565b60006131df6131da6131d584612e97565b6131ba565b612e97565b9050919050565b60006131f1826131c4565b9050919050565b6000613203826131e6565b9050919050565b613213816131f8565b82525050565b600060208201905061322e600083018461320a565b92915050565b60006020828403121561324a57613249612cb4565b5b600061325884828501612f0a565b91505092915050565b600080fd5b60008083601f84011261327c5761327b612f89565b5b8235905067ffffffffffffffff81111561329957613298613261565b5b6020830191508360018202830111156132b5576132b4613035565b5b9250929050565b600080602083850312156132d3576132d2612cb4565b5b600083013567ffffffffffffffff8111156132f1576132f0612cb9565b5b6132fd85828601613266565b92509250509250929050565b600060ff82169050919050565b61331f81613309565b82525050565b600060208201905061333a6000830184613316565b92915050565b600081519050919050565b600082825260208201905092915050565b600061336782613340565b613371818561334b565b9350613381818560208601612d95565b61338a81612dc8565b840191505092915050565b60006040820190506133aa6000830185612d4f565b81810360208301526133bc818461335c565b90509392505050565b6000819050919050565b6133d8816133c5565b82525050565b60006020820190506133f360008301846133cf565b92915050565b61340281612d43565b811461340d57600080fd5b50565b60008135905061341f816133f9565b92915050565b6000806040838503121561343c5761343b612cb4565b5b600061344a85828601612f0a565b925050602061345b85828601613410565b9150509250929050565b600080fd5b600067ffffffffffffffff82111561348557613484612f8e565b5b61348e82612dc8565b9050602081019050919050565b82818337600083830152505050565b60006134bd6134b88461346a565b612fee565b9050828152602081018484840111156134d9576134d8613465565b5b6134e484828561349b565b509392505050565b600082601f83011261350157613500612f89565b5b81356135118482602086016134aa565b91505092915050565b6000806000806080858703121561353457613533612cb4565b5b600061354287828801612f0a565b945050602061355387828801612f0a565b935050604061356487828801612e55565b925050606085013567ffffffffffffffff81111561358557613584612cb9565b5b613591878288016134ec565b91505092959194509250565b600080604083850312156135b4576135b3612cb4565b5b60006135c285828601612f0a565b92505060206135d385828601612f0a565b9150509250929050565b600067ffffffffffffffff82169050919050565b6135fa816135dd565b82525050565b600060208201905061361560008301846135f1565b92915050565b7f4e487b7100000000000000000000000000000000000000000000000000000000600052602160045260246000fd5b6002811061365b5761365a61361b565b5b50565b600081905061366c8261364a565b919050565b600061367c8261365e565b9050919050565b61368c81613671565b82525050565b60006020820190506136a76000830184613683565b92915050565b7f4e487b7100000000000000000000000000000000000000000000000000000000600052602260045260246000fd5b600060028204905060018216806136f457607f821691505b60208210811415613708576137076136ad565b5b50919050565b7f4552433732313a20617070726f76616c20746f2063757272656e74206f776e6560008201527f7200000000000000000000000000000000000000000000000000000000000000602082015250565b600061376a602183612d84565b91506137758261370e565b604082019050919050565b600060208201905081810360008301526137998161375d565b9050919050565b7f4552433732313a20617070726f76652063616c6c6572206973206e6f7420746f60008201527f6b656e206f776e6572206e6f7220617070726f76656420666f7220616c6c0000602082015250565b60006137fc603e83612d84565b9150613807826137a0565b604082019050919050565b6000602082019050818103600083015261382b816137ef565b9050919050565b60006040820190506138476000830185612ec9565b6138546020830184612ec9565b9392505050565b7f4552433732313a2063616c6c6572206973206e6f7420746f6b656e206f776e6560008201527f72206e6f7220617070726f766564000000000000000000000000000000000000602082015250565b60006138b7602e83612d84565b91506138c28261385b565b604082019050919050565b600060208201905081810360008301526138e6816138aa565b9050919050565b7f455243373231456e756d657261626c653a206f776e657220696e646578206f7560008201527f74206f6620626f756e6473000000000000000000000000000000000000000000602082015250565b6000613949602b83612d84565b9150613954826138ed565b604082019050919050565b600060208201905081810360008301526139788161393c565b9050919050565b7f4e487b7100000000000000000000000000000000000000000000000000000000600052603260045260246000fd5b7f4e487b7100000000000000000000000000000000000000000000000000000000600052601160045260246000fd5b60006139e882612e34565b91506139f383612e34565b925082821015613a0657613a056139ae565b5b828203905092915050565b7f455243373231456e756d657261626c653a20676c6f62616c20696e646578206f60008201527f7574206f6620626f756e64730000000000000000000000000000000000000000602082015250565b6000613a6d602c83612d84565b9150613a7882613a11565b604082019050919050565b60006020820190508181036000830152613a9c81613a60565b9050919050565b7f4552433732313a20696e76616c696420746f6b656e2049440000000000000000600082015250565b6000613ad9601883612d84565b9150613ae482613aa3565b602082019050919050565b60006020820190508181036000830152613b0881613acc565b9050919050565b7f4552433732313a2061646472657373207a65726f206973206e6f74206120766160008201527f6c6964206f776e65720000000000000000000000000000000000000000000000602082015250565b6000613b6b602983612d84565b9150613b7682613b0f565b604082019050919050565b60006020820190508181036000830152613b9a81613b5e565b9050919050565b600069ffffffffffffffffffff82169050919050565b613bc081613ba1565b8114613bcb57600080fd5b50565b600081519050613bdd81613bb7565b92915050565b613bec816133c5565b8114613bf757600080fd5b50565b600081519050613c0981613be3565b92915050565b600081519050613c1e81612e3e565b92915050565b600080600080600060a08688031215613c4057613c3f612cb4565b5b6000613c4e88828901613bce565b9550506020613c5f88828901613bfa565b9450506040613c7088828901613c0f565b9350506060613c8188828901613c0f565b9250506080613c9288828901613bce565b9150509295509295909350565b7f4f776e61626c653a206e6577206f776e657220697320746865207a65726f206160008201527f6464726573730000000000000000000000000000000000000000000000000000602082015250565b6000613cfb602683612d84565b9150613d0682613c9f565b604082019050919050565b60006020820190508181036000830152613d2a81613cee565b9050919050565b7f72657175657374206e6f7420666f756e64000000000000000000000000000000600082015250565b6000613d67601183612d84565b9150613d7282613d31565b602082019050919050565b60006020820190508181036000830152613d9681613d5a565b9050919050565b7f4e487b7100000000000000000000000000000000000000000000000000000000600052601260045260246000fd5b6000613dd782612e34565b9150613de283612e34565b925082613df257613df1613d9d565b5b828206905092915050565b7f4552433732313a207472616e736665722066726f6d20696e636f72726563742060008201527f6f776e6572000000000000000000000000000000000000000000000000000000602082015250565b6000613e59602583612d84565b9150613e6482613dfd565b604082019050919050565b60006020820190508181036000830152613e8881613e4c565b9050919050565b7f4552433732313a207472616e7366657220746f20746865207a65726f2061646460008201527f7265737300000000000000000000000000000000000000000000000000000000602082015250565b6000613eeb602483612d84565b9150613ef682613e8f565b604082019050919050565b60006020820190508181036000830152613f1a81613ede565b9050919050565b6000613f2c82612e34565b9150613f3783612e34565b9250827fffffffffffffffffffffffffffffffffffffffffffffffffffffffffffffffff03821115613f6c57613f6b6139ae565b5b828201905092915050565b7f4f776e61626c653a2063616c6c6572206973206e6f7420746865206f776e6572600082015250565b6000613fad602083612d84565b9150613fb882613f77565b602082019050919050565b60006020820190508181036000830152613fdc81613fa0565b9050919050565b7f45524337323155524953746f726167653a2055524920736574206f66206e6f6e60008201527f6578697374656e7420746f6b656e000000000000000000000000000000000000602082015250565b600061403f602e83612d84565b915061404a82613fe3565b604082019050919050565b6000602082019050818103600083015261406e81614032565b9050919050565b600061ffff82169050919050565b600061409e61409961409484613309565b6131ba565b614075565b9050919050565b6140ae81614083565b82525050565b60006140cf6140ca6140c584613309565b6131ba565b613180565b9050919050565b6140df816140b4565b82525050565b600060a0820190506140fa6000830188612c80565b61410760208301876135f1565b61411460408301866140a5565b6141216060830185613190565b61412e60808301846140d6565b9695505050505050565b60006020828403121561414e5761414d612cb4565b5b600061415c84828501613c0f565b91505092915050565b7f4552433732313a20617070726f766520746f2063616c6c657200000000000000600082015250565b600061419b601983612d84565b91506141a682614165565b602082019050919050565b600060208201905081810360008301526141ca8161418e565b9050919050565b7f4552433732313a207472616e7366657220746f206e6f6e20455243373231526560008201527f63656976657220696d706c656d656e7465720000000000000000000000000000602082015250565b600061422d603283612d84565b9150614238826141d1565b604082019050919050565b6000602082019050818103600083015261425c81614220565b9050919050565b600081905092915050565b600061427982612d79565b6142838185614263565b9350614293818560208601612d95565b80840191505092915050565b60006142ab828561426e565b91506142b7828461426e565b91508190509392505050565b60006142ce82612e34565b91507fffffffffffffffffffffffffffffffffffffffffffffffffffffffffffffffff821415614301576143006139ae565b5b600182019050919050565b60006080820190506143216000830187612ec9565b61432e6020830186612ec9565b61433b6040830185612f5f565b818103606083015261434d818461335c565b905095945050505050565b60008151905061436781612cea565b92915050565b60006020828403121561438357614382612cb4565b5b600061439184828501614358565b91505092915050565b7f4552433732313a206d696e7420746f20746865207a65726f2061646472657373600082015250565b60006143d0602083612d84565b91506143db8261439a565b602082019050919050565b600060208201905081810360008301526143ff816143c3565b9050919050565b7f4552433732313a20746f6b656e20616c7265616479206d696e74656400000000600082015250565b600061443c601c83612d84565b915061444782614406565b602082019050919050565b6000602082019050818103600083015261446b8161442f565b9050919050565b600061447d82612e34565b915061448883612e34565b92508261449857614497613d9d565b5b828204905092915050565b7f4e487b7100000000000000000000000000000000000000000000000000000000600052603160045260246000fdfea26469706673582212203f208ad406d057d2378c50c8d1b36af925a7c25b6e2e3dab01e8a07d01b343f364736f6c6343000809003368747470733a2f2f697066732e696f2f697066732f516d646355526d4e316b4545744b676e626b564a4a3868726d73535748705a764c6b5267734b4b6f6957765739673f66696c656e616d653d73696d706c655f62756c6c2e6a736f6e68747470733a2f2f697066732e696f2f697066732f516d5258796669336f4e5a43756244786956467265336b4c5a3858654774367051736e4151525a37616b68534e733f66696c656e616d653d67616d65725f62756c6c2e6a736f6e68747470733a2f2f697066732e696f2f697066732f516d624b68425856576d777259735450465966726f52324e374e41656b414d78485556673243576b73376939716a3f66696c656e616d653d73696d706c655f626561722e6a736f6e68747470733a2f2f697066732e696f2f697066732f516d6478394878374643445a474578796a4c52367659636e75745552384b68425a426e5a6641504869556f6d6d4e3f66696c656e616d653d6265616e69655f626561722e6a736f6e68747470733a2f2f697066732e696f2f697066732f516d524a5646654d7274595332435556554d3263484a70425635615832787572706e73665a784c545451626944333f66696c656e616d653d70617274795f62756c6c2e6a736f6e68747470733a2f2f697066732e696f2f697066732f516d54564c79545375694b4755456d6238384267584733714e4338596770485a6946626a4872584b4833514845753f66696c656e616d653d636f6f6c696f5f626561722e6a736f6e",
  "linkReferences": {},
  "deployedLinkReferences": {}
}