{
  "_format": "hh-sol-artifact-1",
  "contractName": "MyContract",
  "sourceName": "contracts/getting_started_with_solidity/02_constructors/MyContract.sol",
  "abi": [
    {
      "inputs": [
        {
          "internalType": "uint256",
          "name": "_x",
          "type": "uint256"
        },
        {
          "internalType": "uint256",
          "name": "_y",
          "type": "uint256"
        }
      ],
      "stateMutability": "nonpayable",
      "type": "constructor"
    },
    {
      "inputs": [],
      "name": "createdAt",
      "outputs": [
        {
          "internalType": "uint256",
          "name": "",
          "type": "uint256"
        }
      ],
      "stateMutability": "view",
      "type": "function"
    },
    {
      "inputs": [],
      "name": "owner",
      "outputs": [
        {
          "internalType": "address",
          "name": "",
          "type": "address"
        }
      ],
      "stateMutability": "view",
      "type": "function"
    },
    {
      "inputs": [],
      "name": "x",
      "outputs": [
        {
          "internalType": "uint256",
          "name": "",
          "type": "uint256"
        }
      ],
      "stateMutability": "view",
      "type": "function"
    },
    {
      "inputs": [],
      "name": "y",
      "outputs": [
        {
          "internalType": "uint256",
          "name": "",
          "type": "uint256"
        }
      ],
      "stateMutability": "view",
      "type": "function"
    }
  ],
  "bytecode": "0x608060405234801561001057600080fd5b506040516102e03803806102e0833981810160405281019061003291906100ca565b816000819055508060018190555033600260006101000a81548173ffffffffffffffffffffffffffffffffffffffff021916908373ffffffffffffffffffffffffffffffffffffffff16021790555042600381905550505061010a565b600080fd5b6000819050919050565b6100a781610094565b81146100b257600080fd5b50565b6000815190506100c48161009e565b92915050565b600080604083850312156100e1576100e061008f565b5b60006100ef858286016100b5565b9250506020610100858286016100b5565b9150509250929050565b6101c7806101196000396000f3fe608060405234801561001057600080fd5b506004361061004c5760003560e01c80630c55699c146100515780638da5cb5b1461006f578063a56dfe4a1461008d578063cf09e0d0146100ab575b600080fd5b6100596100c9565b604051610066919061011a565b60405180910390f35b6100776100cf565b6040516100849190610176565b60405180910390f35b6100956100f5565b6040516100a2919061011a565b60405180910390f35b6100b36100fb565b6040516100c0919061011a565b60405180910390f35b60005481565b600260009054906101000a900473ffffffffffffffffffffffffffffffffffffffff1681565b60015481565b60035481565b6000819050919050565b61011481610101565b82525050565b600060208201905061012f600083018461010b565b92915050565b600073ffffffffffffffffffffffffffffffffffffffff82169050919050565b600061016082610135565b9050919050565b61017081610155565b82525050565b600060208201905061018b6000830184610167565b9291505056fea2646970667358221220f28bb7f344cc62f1d028db800897fd1ab0d69d9a10d6f2222e36daa9150434ee64736f6c63430008090033",
  "linkReferences": {},
  "deployedLinkReferences": {}
}