{
  "_format": "hh-sol-artifact-1",
  "contractName": "FlashBorrower",
  "sourceName": "contracts/sample_apps/11_flash_loan/FlashBorrower.sol",
  "abi": [
    {
      "inputs": [
        {
          "internalType": "contract IERC3156FlashLender",
          "name": "lender_",
          "type": "address"
        }
      ],
      "stateMutability": "nonpayable",
      "type": "constructor"
    },
    {
      "inputs": [
        {
          "internalType": "address",
          "name": "token",
          "type": "address"
        },
        {
          "internalType": "uint256",
          "name": "amount",
          "type": "uint256"
        }
      ],
      "name": "flashBorrow",
      "outputs": [],
      "stateMutability": "nonpayable",
      "type": "function"
    },
    {
      "inputs": [
        {
          "internalType": "address",
          "name": "initiator",
          "type": "address"
        },
        {
          "internalType": "address",
          "name": "token",
          "type": "address"
        },
        {
          "internalType": "uint256",
          "name": "amount",
          "type": "uint256"
        },
        {
          "internalType": "uint256",
          "name": "fee",
          "type": "uint256"
        },
        {
          "internalType": "bytes",
          "name": "data",
          "type": "bytes"
        }
      ],
      "name": "onFlashLoan",
      "outputs": [
        {
          "internalType": "bytes32",
          "name": "",
          "type": "bytes32"
        }
      ],
      "stateMutability": "nonpayable",
      "type": "function"
    }
  ],
  "bytecode": "0x608060405234801561001057600080fd5b50604051610d6b380380610d6b833981810160405281019061003291906100ed565b806000806101000a81548173ffffffffffffffffffffffffffffffffffffffff021916908373ffffffffffffffffffffffffffffffffffffffff1602179055505061011a565b600080fd5b600073ffffffffffffffffffffffffffffffffffffffff82169050919050565b60006100a88261007d565b9050919050565b60006100ba8261009d565b9050919050565b6100ca816100af565b81146100d557600080fd5b50565b6000815190506100e7816100c1565b92915050565b60006020828403121561010357610102610078565b5b6000610111848285016100d8565b91505092915050565b610c42806101296000396000f3fe608060405234801561001057600080fd5b50600436106100365760003560e01c806323e30c8b1461003b578063b53e48851461006b575b600080fd5b6100556004803603810190610050919061062b565b610087565b60405161006291906106de565b60405180910390f35b610085600480360381019061008091906106f9565b610222565b005b60008060009054906101000a900473ffffffffffffffffffffffffffffffffffffffff1673ffffffffffffffffffffffffffffffffffffffff163373ffffffffffffffffffffffffffffffffffffffff1614610118576040517f08c379a000000000000000000000000000000000000000000000000000000000815260040161010f90610796565b60405180910390fd5b3073ffffffffffffffffffffffffffffffffffffffff168773ffffffffffffffffffffffffffffffffffffffff1614610186576040517f08c379a000000000000000000000000000000000000000000000000000000000815260040161017d90610828565b60405180910390fd5b60008383810190610197919061086d565b9050600060018111156101ad576101ac61089a565b5b8160018111156101c0576101bf61089a565b5b14156101cb576101f4565b6001808111156101de576101dd61089a565b5b8160018111156101f1576101f061089a565b5b50505b7f439148f0bbc682ca079e46d6e2c2f0c1e3b820f1a291b069d8882abf8cf18dd99150509695505050505050565b6000806040516020016102359190610911565b604051602081830303815290604052905060008373ffffffffffffffffffffffffffffffffffffffff1663dd62ed3e3060008054906101000a900473ffffffffffffffffffffffffffffffffffffffff166040518363ffffffff1660e01b81526004016102a392919061093b565b60206040518083038186803b1580156102bb57600080fd5b505afa1580156102cf573d6000803e3d6000fd5b505050506040513d601f19601f820116820180604052508101906102f39190610979565b905060008060009054906101000a900473ffffffffffffffffffffffffffffffffffffffff1673ffffffffffffffffffffffffffffffffffffffff1663d9d98ce486866040518363ffffffff1660e01b81526004016103539291906109b5565b60206040518083038186803b15801561036b57600080fd5b505afa15801561037f573d6000803e3d6000fd5b505050506040513d601f19601f820116820180604052508101906103a39190610979565b9050600081856103b39190610a0d565b90508573ffffffffffffffffffffffffffffffffffffffff1663095ea7b360008054906101000a900473ffffffffffffffffffffffffffffffffffffffff1683866103fe9190610a0d565b6040518363ffffffff1660e01b815260040161041b9291906109b5565b602060405180830381600087803b15801561043557600080fd5b505af1158015610449573d6000803e3d6000fd5b505050506040513d601f19601f8201168201806040525081019061046d9190610a9b565b5060008054906101000a900473ffffffffffffffffffffffffffffffffffffffff1673ffffffffffffffffffffffffffffffffffffffff16635cffe9de308888886040518563ffffffff1660e01b81526004016104cd9493929190610bc0565b602060405180830381600087803b1580156104e757600080fd5b505af11580156104fb573d6000803e3d6000fd5b505050506040513d601f19601f8201168201806040525081019061051f9190610a9b565b50505050505050565b600080fd5b600080fd5b600073ffffffffffffffffffffffffffffffffffffffff82169050919050565b600061055d82610532565b9050919050565b61056d81610552565b811461057857600080fd5b50565b60008135905061058a81610564565b92915050565b6000819050919050565b6105a381610590565b81146105ae57600080fd5b50565b6000813590506105c08161059a565b92915050565b600080fd5b600080fd5b600080fd5b60008083601f8401126105eb576105ea6105c6565b5b8235905067ffffffffffffffff811115610608576106076105cb565b5b602083019150836001820283011115610624576106236105d0565b5b9250929050565b60008060008060008060a0878903121561064857610647610528565b5b600061065689828a0161057b565b965050602061066789828a0161057b565b955050604061067889828a016105b1565b945050606061068989828a016105b1565b935050608087013567ffffffffffffffff8111156106aa576106a961052d565b5b6106b689828a016105d5565b92509250509295509295509295565b6000819050919050565b6106d8816106c5565b82525050565b60006020820190506106f360008301846106cf565b92915050565b600080604083850312156107105761070f610528565b5b600061071e8582860161057b565b925050602061072f858286016105b1565b9150509250929050565b600082825260208201905092915050565b7f466c617368426f72726f7765723a20556e74727573746564206c656e64657200600082015250565b6000610780601f83610739565b915061078b8261074a565b602082019050919050565b600060208201905081810360008301526107af81610773565b9050919050565b7f466c617368426f72726f7765723a20556e74727573746564206c6f616e20696e60008201527f69746961746f7200000000000000000000000000000000000000000000000000602082015250565b6000610812602783610739565b915061081d826107b6565b604082019050919050565b6000602082019050818103600083015261084181610805565b9050919050565b6002811061085557600080fd5b50565b60008135905061086781610848565b92915050565b60006020828403121561088357610882610528565b5b600061089184828501610858565b91505092915050565b7f4e487b7100000000000000000000000000000000000000000000000000000000600052602160045260246000fd5b600281106108da576108d961089a565b5b50565b60008190506108eb826108c9565b919050565b60006108fb826108dd565b9050919050565b61090b816108f0565b82525050565b60006020820190506109266000830184610902565b92915050565b61093581610552565b82525050565b6000604082019050610950600083018561092c565b61095d602083018461092c565b9392505050565b6000815190506109738161059a565b92915050565b60006020828403121561098f5761098e610528565b5b600061099d84828501610964565b91505092915050565b6109af81610590565b82525050565b60006040820190506109ca600083018561092c565b6109d760208301846109a6565b9392505050565b7f4e487b7100000000000000000000000000000000000000000000000000000000600052601160045260246000fd5b6000610a1882610590565b9150610a2383610590565b9250827fffffffffffffffffffffffffffffffffffffffffffffffffffffffffffffffff03821115610a5857610a576109de565b5b828201905092915050565b60008115159050919050565b610a7881610a63565b8114610a8357600080fd5b50565b600081519050610a9581610a6f565b92915050565b600060208284031215610ab157610ab0610528565b5b6000610abf84828501610a86565b91505092915050565b6000819050919050565b6000610aed610ae8610ae384610532565b610ac8565b610532565b9050919050565b6000610aff82610ad2565b9050919050565b6000610b1182610af4565b9050919050565b610b2181610b06565b82525050565b600081519050919050565b600082825260208201905092915050565b60005b83811015610b61578082015181840152602081019050610b46565b83811115610b70576000848401525b50505050565b6000601f19601f8301169050919050565b6000610b9282610b27565b610b9c8185610b32565b9350610bac818560208601610b43565b610bb581610b76565b840191505092915050565b6000608082019050610bd56000830187610b18565b610be2602083018661092c565b610bef60408301856109a6565b8181036060830152610c018184610b87565b90509594505050505056fea2646970667358221220609932517d706dbe61222d0cfdea70f333e2449a3c2c9768c7d75ca968c152bc64736f6c63430008090033",
  "linkReferences": {},
  "deployedLinkReferences": {}
}