{
  "_format": "hh-sol-artifact-1",
  "contractName": "MyContract",
  "sourceName": "contracts/getting_started_with_solidity/14_mapping/01_MyContract.sol",
  "abi": [
    {
      "inputs": [
        {
          "internalType": "address",
          "name": "_addr",
          "type": "address"
        }
      ],
      "name": "get",
      "outputs": [
        {
          "internalType": "bool",
          "name": "",
          "type": "bool"
        }
      ],
      "stateMutability": "view",
      "type": "function"
    },
    {
      "inputs": [
        {
          "internalType": "address",
          "name": "",
          "type": "address"
        }
      ],
      "name": "myMap",
      "outputs": [
        {
          "internalType": "bool",
          "name": "",
          "type": "bool"
        }
      ],
      "stateMutability": "view",
      "type": "function"
    },
    {
      "inputs": [
        {
          "internalType": "address",
          "name": "_addr",
          "type": "address"
        }
      ],
      "name": "remove",
      "outputs": [],
      "stateMutability": "nonpayable",
      "type": "function"
    },
    {
      "inputs": [
        {
          "internalType": "address",
          "name": "_addr",
          "type": "address"
        },
        {
          "internalType": "bool",
          "name": "i",
          "type": "bool"
        }
      ],
      "name": "set",
      "outputs": [],
      "stateMutability": "nonpayable",
      "type": "function"
    }
  ],
  "bytecode": "0x608060405234801561001057600080fd5b50610371806100206000396000f3fe608060405234801561001057600080fd5b506004361061004c5760003560e01c806327cbd5291461005157806329092d0e1461008157806335e3b25a1461009d578063c2bc2efc146100b9575b600080fd5b61006b6004803603810190610066919061026c565b6100e9565b60405161007891906102b4565b60405180910390f35b61009b6004803603810190610096919061026c565b610109565b005b6100b760048036038101906100b291906102fb565b61015a565b005b6100d360048036038101906100ce919061026c565b6101b4565b6040516100e091906102b4565b60405180910390f35b60006020528060005260406000206000915054906101000a900460ff1681565b6000808273ffffffffffffffffffffffffffffffffffffffff1673ffffffffffffffffffffffffffffffffffffffff16815260200190815260200160002060006101000a81549060ff021916905550565b806000808473ffffffffffffffffffffffffffffffffffffffff1673ffffffffffffffffffffffffffffffffffffffff16815260200190815260200160002060006101000a81548160ff0219169083151502179055505050565b60008060008373ffffffffffffffffffffffffffffffffffffffff1673ffffffffffffffffffffffffffffffffffffffff16815260200190815260200160002060009054906101000a900460ff169050919050565b600080fd5b600073ffffffffffffffffffffffffffffffffffffffff82169050919050565b60006102398261020e565b9050919050565b6102498161022e565b811461025457600080fd5b50565b60008135905061026681610240565b92915050565b60006020828403121561028257610281610209565b5b600061029084828501610257565b91505092915050565b60008115159050919050565b6102ae81610299565b82525050565b60006020820190506102c960008301846102a5565b92915050565b6102d881610299565b81146102e357600080fd5b50565b6000813590506102f5816102cf565b92915050565b6000806040838503121561031257610311610209565b5b600061032085828601610257565b9250506020610331858286016102e6565b915050925092905056fea2646970667358221220f868c0710191eb87e1707152509e7aba2ae9c860b51899f399676ffa9c0baddc64736f6c63430008090033",
  "linkReferences": {},
  "deployedLinkReferences": {}
}