{
  "_format": "hh-sol-artifact-1",
  "contractName": "MyContract",
  "sourceName": "contracts/getting_started_with_solidity/01_data_types/01_MyContract.sol",
  "abi": [
    {
      "inputs": [],
      "name": "getValue",
      "outputs": [
        {
          "internalType": "uint256",
          "name": "",
          "type": "uint256"
        }
      ],
      "stateMutability": "pure",
      "type": "function"
    },
    {
      "inputs": [],
      "name": "myAddress",
      "outputs": [
        {
          "internalType": "address",
          "name": "",
          "type": "address"
        }
      ],
      "stateMutability": "view",
      "type": "function"
    },
    {
      "inputs": [],
      "name": "myBytes32",
      "outputs": [
        {
          "internalType": "bytes32",
          "name": "",
          "type": "bytes32"
        }
      ],
      "stateMutability": "view",
      "type": "function"
    },
    {
      "inputs": [],
      "name": "myInt",
      "outputs": [
        {
          "internalType": "int256",
          "name": "",
          "type": "int256"
        }
      ],
      "stateMutability": "view",
      "type": "function"
    },
    {
      "inputs": [],
      "name": "myString",
      "outputs": [
        {
          "internalType": "string",
          "name": "",
          "type": "string"
        }
      ],
      "stateMutability": "view",
      "type": "function"
    },
    {
      "inputs": [],
      "name": "myUint",
      "outputs": [
        {
          "internalType": "uint256",
          "name": "",
          "type": "uint256"
        }
      ],
      "stateMutability": "view",
      "type": "function"
    },
    {
      "inputs": [],
      "name": "myUint256",
      "outputs": [
        {
          "internalType": "uint256",
          "name": "",
          "type": "uint256"
        }
      ],
      "stateMutability": "view",
      "type": "function"
    },
    {
      "inputs": [],
      "name": "myUint8",
      "outputs": [
        {
          "internalType": "uint8",
          "name": "",
          "type": "uint8"
        }
      ],
      "stateMutability": "view",
      "type": "function"
    }
  ],
  "bytecode": "0x60806040526040518060400160405280600581526020017f68656c6c6f0000000000000000000000000000000000000000000000000000008152506000908051906020019061004f929190610106565b507f68656c6c6f0000000000000000000000000000000000000000000000000000006001556001600255600260035560036004556004600560006101000a81548160ff021916908360ff160217905550731f9840a85d5af5bf1d1762f925bdaddc4201f984600560016101000a81548173ffffffffffffffffffffffffffffffffffffffff021916908373ffffffffffffffffffffffffffffffffffffffff16021790555034801561010057600080fd5b5061020a565b828054610112906101d8565b90600052602060002090601f016020900481019282610134576000855561017b565b82601f1061014d57805160ff191683800117855561017b565b8280016001018555821561017b579182015b8281111561017a57825182559160200191906001019061015f565b5b509050610188919061018c565b5090565b5b808211156101a557600081600090555060010161018d565b5090565b7f4e487b7100000000000000000000000000000000000000000000000000000000600052602260045260246000fd5b600060028204905060018216806101f057607f821691505b60208210811415610204576102036101a9565b5b50919050565b6104eb806102196000396000f3fe608060405234801561001057600080fd5b50600436106100885760003560e01c8063492bfa181161005b578063492bfa18146101055780634b3e7e0c14610123578063a7dbce1c14610141578063e2a4b2af1461015f57610088565b806306540f7e1461008d57806320965255146100ab57806326b85ee1146100c95780632cb777a6146100e7575b600080fd5b61009561017d565b6040516100a29190610283565b60405180910390f35b6100b3610183565b6040516100c09190610283565b60405180910390f35b6100d1610191565b6040516100de91906102df565b60405180910390f35b6100ef6101b7565b6040516100fc9190610313565b60405180910390f35b61010d6101bd565b60405161011a91906103c7565b60405180910390f35b61012b61024b565b6040516101389190610402565b60405180910390f35b610149610251565b6040516101569190610283565b60405180910390f35b610167610257565b6040516101749190610439565b60405180910390f35b60035481565b600080600690508091505090565b600560019054906101000a900473ffffffffffffffffffffffffffffffffffffffff1681565b60025481565b600080546101ca90610483565b80601f01602080910402602001604051908101604052809291908181526020018280546101f690610483565b80156102435780601f1061021857610100808354040283529160200191610243565b820191906000526020600020905b81548152906001019060200180831161022657829003601f168201915b505050505081565b60015481565b60045481565b600560009054906101000a900460ff1681565b6000819050919050565b61027d8161026a565b82525050565b60006020820190506102986000830184610274565b92915050565b600073ffffffffffffffffffffffffffffffffffffffff82169050919050565b60006102c98261029e565b9050919050565b6102d9816102be565b82525050565b60006020820190506102f460008301846102d0565b92915050565b6000819050919050565b61030d816102fa565b82525050565b60006020820190506103286000830184610304565b92915050565b600081519050919050565b600082825260208201905092915050565b60005b8381101561036857808201518184015260208101905061034d565b83811115610377576000848401525b50505050565b6000601f19601f8301169050919050565b60006103998261032e565b6103a38185610339565b93506103b381856020860161034a565b6103bc8161037d565b840191505092915050565b600060208201905081810360008301526103e1818461038e565b905092915050565b6000819050919050565b6103fc816103e9565b82525050565b600060208201905061041760008301846103f3565b92915050565b600060ff82169050919050565b6104338161041d565b82525050565b600060208201905061044e600083018461042a565b92915050565b7f4e487b7100000000000000000000000000000000000000000000000000000000600052602260045260246000fd5b6000600282049050600182168061049b57607f821691505b602082108114156104af576104ae610454565b5b5091905056fea26469706673582212205c53dace5ff9550347ac022ab112b59896fbf0e62799d0f7de5a61a6c4385d7e64736f6c63430008090033",
  "linkReferences": {},
  "deployedLinkReferences": {}
}