{
  "_format": "hh-sol-artifact-1",
  "contractName": "FlashLender",
  "sourceName": "contracts/sample_apps/11_flash_loan/FlashLender.sol",
  "abi": [
    {
      "inputs": [
        {
          "internalType": "address[]",
          "name": "supportedTokens_",
          "type": "address[]"
        },
        {
          "internalType": "uint256",
          "name": "fee_",
          "type": "uint256"
        }
      ],
      "stateMutability": "nonpayable",
      "type": "constructor"
    },
    {
      "inputs": [],
      "name": "CALLBACK_SUCCESS",
      "outputs": [
        {
          "internalType": "bytes32",
          "name": "",
          "type": "bytes32"
        }
      ],
      "stateMutability": "view",
      "type": "function"
    },
    {
      "inputs": [],
      "name": "fee",
      "outputs": [
        {
          "internalType": "uint256",
          "name": "",
          "type": "uint256"
        }
      ],
      "stateMutability": "view",
      "type": "function"
    },
    {
      "inputs": [
        {
          "internalType": "address",
          "name": "token",
          "type": "address"
        },
        {
          "internalType": "uint256",
          "name": "amount",
          "type": "uint256"
        }
      ],
      "name": "flashFee",
      "outputs": [
        {
          "internalType": "uint256",
          "name": "",
          "type": "uint256"
        }
      ],
      "stateMutability": "view",
      "type": "function"
    },
    {
      "inputs": [
        {
          "internalType": "contract IERC3156FlashBorrower",
          "name": "receiver",
          "type": "address"
        },
        {
          "internalType": "address",
          "name": "token",
          "type": "address"
        },
        {
          "internalType": "uint256",
          "name": "amount",
          "type": "uint256"
        },
        {
          "internalType": "bytes",
          "name": "data",
          "type": "bytes"
        }
      ],
      "name": "flashLoan",
      "outputs": [
        {
          "internalType": "bool",
          "name": "",
          "type": "bool"
        }
      ],
      "stateMutability": "nonpayable",
      "type": "function"
    },
    {
      "inputs": [
        {
          "internalType": "address",
          "name": "token",
          "type": "address"
        }
      ],
      "name": "maxFlashFloan",
      "outputs": [
        {
          "internalType": "uint256",
          "name": "",
          "type": "uint256"
        }
      ],
      "stateMutability": "view",
      "type": "function"
    },
    {
      "inputs": [
        {
          "internalType": "address",
          "name": "",
          "type": "address"
        }
      ],
      "name": "supportedTokens",
      "outputs": [
        {
          "internalType": "bool",
          "name": "",
          "type": "bool"
        }
      ],
      "stateMutability": "view",
      "type": "function"
    }
  ],
  "bytecode": "0x60806040523480156200001157600080fd5b506040516200132638038062001326833981810160405281019062000037919062000307565b60005b8251811015620000ce5760016000808584815181106200005f576200005e6200036d565b5b602002602001015173ffffffffffffffffffffffffffffffffffffffff1673ffffffffffffffffffffffffffffffffffffffff16815260200190815260200160002060006101000a81548160ff0219169083151502179055508080620000c590620003cb565b9150506200003a565b5080600181905550505062000419565b6000604051905090565b600080fd5b600080fd5b600080fd5b6000601f19601f8301169050919050565b7f4e487b7100000000000000000000000000000000000000000000000000000000600052604160045260246000fd5b6200014282620000f7565b810181811067ffffffffffffffff8211171562000164576200016362000108565b5b80604052505050565b600062000179620000de565b905062000187828262000137565b919050565b600067ffffffffffffffff821115620001aa57620001a962000108565b5b602082029050602081019050919050565b600080fd5b600073ffffffffffffffffffffffffffffffffffffffff82169050919050565b6000620001ed82620001c0565b9050919050565b620001ff81620001e0565b81146200020b57600080fd5b50565b6000815190506200021f81620001f4565b92915050565b60006200023c62000236846200018c565b6200016d565b90508083825260208201905060208402830185811115620002625762000261620001bb565b5b835b818110156200028f57806200027a88826200020e565b84526020840193505060208101905062000264565b5050509392505050565b600082601f830112620002b157620002b0620000f2565b5b8151620002c384826020860162000225565b91505092915050565b6000819050919050565b620002e181620002cc565b8114620002ed57600080fd5b50565b6000815190506200030181620002d6565b92915050565b60008060408385031215620003215762000320620000e8565b5b600083015167ffffffffffffffff811115620003425762000341620000ed565b5b620003508582860162000299565b92505060206200036385828601620002f0565b9150509250929050565b7f4e487b7100000000000000000000000000000000000000000000000000000000600052603260045260246000fd5b7f4e487b7100000000000000000000000000000000000000000000000000000000600052601160045260246000fd5b6000620003d882620002cc565b91507fffffffffffffffffffffffffffffffffffffffffffffffffffffffffffffffff8214156200040e576200040d6200039c565b5b600182019050919050565b610efd80620004296000396000f3fe608060405234801561001057600080fd5b50600436106100625760003560e01c80635cffe9de1461006757806368c4ac26146100975780638237e538146100c75780639e3fa57f146100e5578063d9d98ce414610115578063ddca3f4314610145575b600080fd5b610081600480360381019061007c91906107e0565b610163565b60405161008e9190610883565b60405180910390f35b6100b160048036038101906100ac919061089e565b6104a7565b6040516100be9190610883565b60405180910390f35b6100cf6104c7565b6040516100dc91906108e4565b60405180910390f35b6100ff60048036038101906100fa919061089e565b6104eb565b60405161010c919061090e565b60405180910390f35b61012f600480360381019061012a9190610929565b6105d5565b60405161013c919061090e565b60405180910390f35b61014d610674565b60405161015a919061090e565b60405180910390f35b60008060008673ffffffffffffffffffffffffffffffffffffffff1673ffffffffffffffffffffffffffffffffffffffff16815260200190815260200160002060009054906101000a900460ff166101f0576040517f08c379a00000000000000000000000000000000000000000000000000000000081526004016101e7906109ec565b60405180910390fd5b60006101fc868661067a565b90508573ffffffffffffffffffffffffffffffffffffffff1663a9059cbb88876040518363ffffffff1660e01b8152600401610239929190610a1b565b602060405180830381600087803b15801561025357600080fd5b505af1158015610267573d6000803e3d6000fd5b505050506040513d601f19601f8201168201806040525081019061028b9190610a70565b6102ca576040517f08c379a00000000000000000000000000000000000000000000000000000000081526004016102c190610ae9565b60405180910390fd5b7f439148f0bbc682ca079e46d6e2c2f0c1e3b820f1a291b069d8882abf8cf18dd98773ffffffffffffffffffffffffffffffffffffffff166323e30c8b338989868a8a6040518763ffffffff1660e01b815260040161032e96959493929190610b67565b602060405180830381600087803b15801561034857600080fd5b505af115801561035c573d6000803e3d6000fd5b505050506040513d601f19601f820116820180604052508101906103809190610bef565b146103c0576040517f08c379a00000000000000000000000000000000000000000000000000000000081526004016103b790610c68565b60405180910390fd5b8573ffffffffffffffffffffffffffffffffffffffff166323b872dd883084896103ea9190610cb7565b6040518463ffffffff1660e01b815260040161040893929190610d0d565b602060405180830381600087803b15801561042257600080fd5b505af1158015610436573d6000803e3d6000fd5b505050506040513d601f19601f8201168201806040525081019061045a9190610a70565b610499576040517f08c379a000000000000000000000000000000000000000000000000000000000815260040161049090610d90565b60405180910390fd5b600191505095945050505050565b60006020528060005260406000206000915054906101000a900460ff1681565b7f439148f0bbc682ca079e46d6e2c2f0c1e3b820f1a291b069d8882abf8cf18dd981565b60008060008373ffffffffffffffffffffffffffffffffffffffff1673ffffffffffffffffffffffffffffffffffffffff16815260200190815260200160002060009054906101000a900460ff166105445760006105ce565b8173ffffffffffffffffffffffffffffffffffffffff166370a08231306040518263ffffffff1660e01b815260040161057d9190610db0565b60206040518083038186803b15801561059557600080fd5b505afa1580156105a9573d6000803e3d6000fd5b505050506040513d601f19601f820116820180604052508101906105cd9190610de0565b5b9050919050565b60008060008473ffffffffffffffffffffffffffffffffffffffff1673ffffffffffffffffffffffffffffffffffffffff16815260200190815260200160002060009054906101000a900460ff16610662576040517f08c379a0000000000000000000000000000000000000000000000000000000008152600401610659906109ec565b60405180910390fd5b61066c838361067a565b905092915050565b60015481565b60006127106001548361068d9190610e0d565b6106979190610e96565b905092915050565b600080fd5b600080fd5b600073ffffffffffffffffffffffffffffffffffffffff82169050919050565b60006106d4826106a9565b9050919050565b60006106e6826106c9565b9050919050565b6106f6816106db565b811461070157600080fd5b50565b600081359050610713816106ed565b92915050565b610722816106c9565b811461072d57600080fd5b50565b60008135905061073f81610719565b92915050565b6000819050919050565b61075881610745565b811461076357600080fd5b50565b6000813590506107758161074f565b92915050565b600080fd5b600080fd5b600080fd5b60008083601f8401126107a05761079f61077b565b5b8235905067ffffffffffffffff8111156107bd576107bc610780565b5b6020830191508360018202830111156107d9576107d8610785565b5b9250929050565b6000806000806000608086880312156107fc576107fb61069f565b5b600061080a88828901610704565b955050602061081b88828901610730565b945050604061082c88828901610766565b935050606086013567ffffffffffffffff81111561084d5761084c6106a4565b5b6108598882890161078a565b92509250509295509295909350565b60008115159050919050565b61087d81610868565b82525050565b60006020820190506108986000830184610874565b92915050565b6000602082840312156108b4576108b361069f565b5b60006108c284828501610730565b91505092915050565b6000819050919050565b6108de816108cb565b82525050565b60006020820190506108f960008301846108d5565b92915050565b61090881610745565b82525050565b600060208201905061092360008301846108ff565b92915050565b600080604083850312156109405761093f61069f565b5b600061094e85828601610730565b925050602061095f85828601610766565b9150509250929050565b600082825260208201905092915050565b7f466c6173684c656e6465723a20556e737570706f727465642063757272656e6360008201527f7900000000000000000000000000000000000000000000000000000000000000602082015250565b60006109d6602183610969565b91506109e18261097a565b604082019050919050565b60006020820190508181036000830152610a05816109c9565b9050919050565b610a15816106c9565b82525050565b6000604082019050610a306000830185610a0c565b610a3d60208301846108ff565b9392505050565b610a4d81610868565b8114610a5857600080fd5b50565b600081519050610a6a81610a44565b92915050565b600060208284031215610a8657610a8561069f565b5b6000610a9484828501610a5b565b91505092915050565b7f466c6173684c656e6465723a205472616e73666572206661696c656400000000600082015250565b6000610ad3601c83610969565b9150610ade82610a9d565b602082019050919050565b60006020820190508181036000830152610b0281610ac6565b9050919050565b600082825260208201905092915050565b82818337600083830152505050565b6000601f19601f8301169050919050565b6000610b468385610b09565b9350610b53838584610b1a565b610b5c83610b29565b840190509392505050565b600060a082019050610b7c6000830189610a0c565b610b896020830188610a0c565b610b9660408301876108ff565b610ba360608301866108ff565b8181036080830152610bb6818486610b3a565b9050979650505050505050565b610bcc816108cb565b8114610bd757600080fd5b50565b600081519050610be981610bc3565b92915050565b600060208284031215610c0557610c0461069f565b5b6000610c1384828501610bda565b91505092915050565b7f466c6173684c656e6465723a2043616c6c6261636b206661696c656400000000600082015250565b6000610c52601c83610969565b9150610c5d82610c1c565b602082019050919050565b60006020820190508181036000830152610c8181610c45565b9050919050565b7f4e487b7100000000000000000000000000000000000000000000000000000000600052601160045260246000fd5b6000610cc282610745565b9150610ccd83610745565b9250827fffffffffffffffffffffffffffffffffffffffffffffffffffffffffffffffff03821115610d0257610d01610c88565b5b828201905092915050565b6000606082019050610d226000830186610a0c565b610d2f6020830185610a0c565b610d3c60408301846108ff565b949350505050565b7f466c6173684c656e6465723a205265706179206661696c656400000000000000600082015250565b6000610d7a601983610969565b9150610d8582610d44565b602082019050919050565b60006020820190508181036000830152610da981610d6d565b9050919050565b6000602082019050610dc56000830184610a0c565b92915050565b600081519050610dda8161074f565b92915050565b600060208284031215610df657610df561069f565b5b6000610e0484828501610dcb565b91505092915050565b6000610e1882610745565b9150610e2383610745565b9250817fffffffffffffffffffffffffffffffffffffffffffffffffffffffffffffffff0483118215151615610e5c57610e5b610c88565b5b828202905092915050565b7f4e487b7100000000000000000000000000000000000000000000000000000000600052601260045260246000fd5b6000610ea182610745565b9150610eac83610745565b925082610ebc57610ebb610e67565b5b82820490509291505056fea2646970667358221220b2ea22a9a97450c1cd4aca14e5e55a9801132af439d2e02da88c0ab06659e4c964736f6c63430008090033",
  "linkReferences": {},
  "deployedLinkReferences": {}
}