{
  "_format": "hh-sol-artifact-1",
  "contractName": "MyContract",
  "sourceName": "contracts/getting_started_with_solidity/09_events/MyContract.sol",
  "abi": [
    {
      "anonymous": false,
      "inputs": [
        {
          "indexed": false,
          "internalType": "string",
          "name": "newName",
          "type": "string"
        }
      ],
      "name": "nameEvent",
      "type": "event"
    },
    {
      "inputs": [
        {
          "internalType": "string",
          "name": "newName",
          "type": "string"
        }
      ],
      "name": "setName",
      "outputs": [],
      "stateMutability": "nonpayable",
      "type": "function"
    }
  ],
  "bytecode": "0x608060405234801561001057600080fd5b50610424806100206000396000f3fe608060405234801561001057600080fd5b506004361061002b5760003560e01c8063c47f002714610030575b600080fd5b61004a6004803603810190610045919061029a565b61004c565b005b806000908051906020019061006292919061009d565b507f9645e7fb5eec05c0f156d4901a10663561199c6dd0401214a0b833fe0022d89981604051610092919061036b565b60405180910390a150565b8280546100a9906103bc565b90600052602060002090601f0160209004810192826100cb5760008555610112565b82601f106100e457805160ff1916838001178555610112565b82800160010185558215610112579182015b828111156101115782518255916020019190600101906100f6565b5b50905061011f9190610123565b5090565b5b8082111561013c576000816000905550600101610124565b5090565b6000604051905090565b600080fd5b600080fd5b600080fd5b600080fd5b6000601f19601f8301169050919050565b7f4e487b7100000000000000000000000000000000000000000000000000000000600052604160045260246000fd5b6101a78261015e565b810181811067ffffffffffffffff821117156101c6576101c561016f565b5b80604052505050565b60006101d9610140565b90506101e5828261019e565b919050565b600067ffffffffffffffff8211156102055761020461016f565b5b61020e8261015e565b9050602081019050919050565b82818337600083830152505050565b600061023d610238846101ea565b6101cf565b90508281526020810184848401111561025957610258610159565b5b61026484828561021b565b509392505050565b600082601f83011261028157610280610154565b5b813561029184826020860161022a565b91505092915050565b6000602082840312156102b0576102af61014a565b5b600082013567ffffffffffffffff8111156102ce576102cd61014f565b5b6102da8482850161026c565b91505092915050565b600081519050919050565b600082825260208201905092915050565b60005b8381101561031d578082015181840152602081019050610302565b8381111561032c576000848401525b50505050565b600061033d826102e3565b61034781856102ee565b93506103578185602086016102ff565b6103608161015e565b840191505092915050565b600060208201905081810360008301526103858184610332565b905092915050565b7f4e487b7100000000000000000000000000000000000000000000000000000000600052602260045260246000fd5b600060028204905060018216806103d457607f821691505b602082108114156103e8576103e761038d565b5b5091905056fea26469706673582212208b220003706e42f49f464fa93ee99f7b5bb0ed9447b5ea0a6e77cac209128eed64736f6c63430008090033",
  "linkReferences": {},
  "deployedLinkReferences": {}
}