{
  "_format": "hh-sol-artifact-1",
  "contractName": "SampleContract",
  "sourceName": "contracts/getting_started_with_solidity/03_variables/SampleContract.sol",
  "abi": [
    {
      "inputs": [],
      "name": "getChainId",
      "outputs": [
        {
          "internalType": "uint256",
          "name": "",
          "type": "uint256"
        }
      ],
      "stateMutability": "view",
      "type": "function"
    },
    {
      "inputs": [],
      "name": "getResult",
      "outputs": [
        {
          "internalType": "uint256",
          "name": "",
          "type": "uint256"
        }
      ],
      "stateMutability": "pure",
      "type": "function"
    },
    {
      "inputs": [],
      "name": "getSenderOfTransaction",
      "outputs": [
        {
          "internalType": "address",
          "name": "",
          "type": "address"
        }
      ],
      "stateMutability": "view",
      "type": "function"
    },
    {
      "inputs": [],
      "name": "storedData",
      "outputs": [
        {
          "internalType": "uint256",
          "name": "",
          "type": "uint256"
        }
      ],
      "stateMutability": "view",
      "type": "function"
    }
  ],
  "bytecode": "0x608060405234801561001057600080fd5b50610250806100206000396000f3fe608060405234801561001057600080fd5b506004361061004c5760003560e01c80632a1afcd9146100515780633408e4701461006f578063a5f287131461008d578063de292789146100ab575b600080fd5b6100596100c9565b604051610066919061011e565b60405180910390f35b6100776100cf565b604051610084919061011e565b60405180910390f35b6100956100d7565b6040516100a2919061017a565b60405180910390f35b6100b36100df565b6040516100c0919061011e565b60405180910390f35b60005481565b600046905090565b600033905090565b60008060079050600060039050600081836100fa91906101c4565b905080935050505090565b6000819050919050565b61011881610105565b82525050565b6000602082019050610133600083018461010f565b92915050565b600073ffffffffffffffffffffffffffffffffffffffff82169050919050565b600061016482610139565b9050919050565b61017481610159565b82525050565b600060208201905061018f600083018461016b565b92915050565b7f4e487b7100000000000000000000000000000000000000000000000000000000600052601160045260246000fd5b60006101cf82610105565b91506101da83610105565b9250827fffffffffffffffffffffffffffffffffffffffffffffffffffffffffffffffff0382111561020f5761020e610195565b5b82820190509291505056fea26469706673582212207fba99821be1acc21e3c5866c431ed0600d69d83029693a85bc680d16d67816364736f6c63430008090033",
  "linkReferences": {},
  "deployedLinkReferences": {}
}